{
  "_format": "hh3-artifact-1",
  "contractName": "DynamicCallEncoder",
  "sourceName": "contracts/dynamic-calls/DynamicCallEncoder.sol",
  "abi": [
    {
      "inputs": [],
      "name": "BytesLibSliceOutOfBounds",
      "type": "error"
    },
    {
      "inputs": [],
      "name": "DynamicCallEncoderBadLength",
      "type": "error"
    },
    {
      "inputs": [],
      "name": "DynamicCallEncoderBadStaticSize",
      "type": "error"
    },
    {
      "inputs": [],
      "name": "DynamicCallEncoderBadStaticTrailer",
      "type": "error"
    },
    {
      "inputs": [],
      "name": "DynamicCallEncoderEmptyDynamic",
      "type": "error"
    },
    {
      "inputs": [],
      "name": "DynamicCallEncoderInvalidArgKind",
      "type": "error"
    },
    {
      "inputs": [],
      "name": "DynamicCallEncoderTooShortStatic",
      "type": "error"
    },
    {
      "inputs": [],
      "name": "DynamicCallEncoderVariableOutOfBounds",
      "type": "error"
    },
    {
      "inputs": [],
      "name": "DynamicCallEncoderVariableRefBadLength",
      "type": "error"
    },
    {
      "inputs": [],
      "name": "DynamicCallEncoderVariableTooShort",
      "type": "error"
    },
    {
      "inputs": [],
      "name": "DynamicCallEncoderVariablesLengthOutOfBounds",
      "type": "error"
    },
    {
      "inputs": [
        {
          "components": [
            {
              "internalType": "address",
              "name": "target",
              "type": "address"
            },
            {
              "internalType": "uint256",
              "name": "value",
              "type": "uint256"
            },
            {
              "internalType": "bytes4",
              "name": "selector",
              "type": "bytes4"
            },
            {
              "components": [
                {
                  "internalType": "enum DynamicArgKind",
                  "name": "kind",
                  "type": "uint8"
                },
                {
                  "internalType": "bytes",
                  "name": "data",
                  "type": "bytes"
                }
              ],
              "internalType": "struct DynamicArg[]",
              "name": "arguments",
              "type": "tuple[]"
            }
          ],
          "internalType": "struct DynamicCall",
          "name": "dynamicCall",
          "type": "tuple"
        },
        {
          "internalType": "bytes[][]",
          "name": "variables",
          "type": "bytes[][]"
        },
        {
          "internalType": "uint256",
          "name": "variablesLength",
          "type": "uint256"
        }
      ],
      "name": "encode",
      "outputs": [
        {
          "internalType": "bytes",
          "name": "data",
          "type": "bytes"
        }
      ],
      "stateMutability": "pure",
      "type": "function"
    }
  ],
  "bytecode": "0x6080604052348015600e575f5ffd5b50610e1b8061001c5f395ff3fe608060405234801561000f575f5ffd5b5060043610610029575f3560e01c806337c93d4b1461002d575b5f5ffd5b61004061003b366004610baa565b610056565b60405161004d9190610cb6565b60405180910390f35b60608251821115610093576040517f66e32eb400000000000000000000000000000000000000000000000000000000815260040160405180910390fd5b6100a78460400151856060015185856100af565b949350505050565b82516060905f8167ffffffffffffffff8111156100ce576100ce6108aa565b60405190808252806020026020018201604052801561010157816020015b60608152602001906001900390816100ec5790505b5090505f8267ffffffffffffffff81111561011e5761011e6108aa565b604051908082528060200260200182016040528015610147578160200160208202803683370190505b5090505f805b848110156101de575f61017a8a838151811061016b5761016b610ceb565b60200260200101518a8a610316565b9050805f015185838151811061019257610192610ceb565b602002602001018190525080602001518483815181106101b4576101b4610ceb565b9115156020928302919091019091015260408101516101d39084610d13565b92505060010161014d565b50606080825f5b878110156102e0578581815181106101ff576101ff610ceb565b60200260200101511561029a5760405161021f9085908490602001610d3d565b60405160208183030381529060405293508287828151811061024357610243610ceb565b602002602001015160405160200161025c929190610d55565b604051602081830303815290604052925086818151811061027f5761027f610ceb565b602002602001015151826102939190610d13565b91506102d8565b838782815181106102ad576102ad610ceb565b60200260200101516040516020016102c6929190610d55565b60405160208183030381529060405293505b6001016101e5565b508b83836040516020016102f693929190610d69565b604051602081830303815290604052975050505050505050949350505050565b61033a6040518060600160405280606081526020015f151581526020015f81525090565b5f8451600181111561034e5761034e610d9f565b036103675761036084602001516103c9565b90506103c2565b60018451600181111561037c5761037c610d9f565b03610390576103608460200151848461059a565b6040517f51c907b200000000000000000000000000000000000000000000000000000000815260040160405180910390fd5b9392505050565b6103ed6040518060600160405280606081526020015f151581526020015f81525090565b602082516103fb9190610db3565b15610432576040517fdd42b1e500000000000000000000000000000000000000000000000000000000815260040160405180910390fd5b61043b826106b4565b1561049f575f61044c8360606106f9565b905080515f03610488576040517f3202a09c00000000000000000000000000000000000000000000000000000000815260040160405180910390fd5b815260016020808301919091526040820152919050565b6040825110156104db576040517f22e16a1300000000000000000000000000000000000000000000000000000000815260040160405180910390fd5b5f6104e7836020015190565b90506104f4816020610d13565b83511461052d576040517f0dad520a00000000000000000000000000000000000000000000000000000000815260040160405180910390fd5b825183015115610569576040517ff6fad9ee00000000000000000000000000000000000000000000000000000000815260040160405180910390fd5b5f610584602080865161057c9190610dd2565b869190610710565b8084525f60208501525160408401525050919050565b6105be6040518060600160405280606081526020015f151581526020015f81525090565b83516040146105f9576040517f893ed1c100000000000000000000000000000000000000000000000000000000815260040160405180910390fd5b5f610605856020015190565b90505f610613866040015190565b905083821061063557604051630310496160e21b815260040160405180910390fd5b84828151811061064757610647610ceb565b602002602001015151811061066f57604051630310496160e21b815260040160405180910390fd5b6106aa85838151811061068457610684610ceb565b6020026020010151828151811061069d5761069d610ceb565b60200260200101516107d7565b9695505050505050565b5f6060825110156106c657505f919050565b602082015160408084015160608501519091831480156106e65750606082145b80156106f0575080155b95945050505050565b606061070783838551610710565b90505b92915050565b606082821015610733576040516319359e9d60e11b815260040160405180910390fd5b8351821115610755576040516319359e9d60e11b815260040160405180910390fd5b5f6107608484610dd2565b90508067ffffffffffffffff81111561077b5761077b6108aa565b6040519080825280601f01601f1916602001820160405280156107a5576020820181803683370190505b509150836020860101602083015f5b838110156107cc5782810151828201526020016107b4565b505050509392505050565b6107fb6040518060600160405280606081526020015f151581526020015f81525090565b602082511015610837576040517f65337a5300000000000000000000000000000000000000000000000000000000815260040160405180910390fd5b61084082610873565b15610851575f61044c8360206106f9565b61085d825f6020610710565b81525f6020808301919091526040820152919050565b5f60408251101561088557505f919050565b602082516108939190610db3565b1561089f57505f919050565b506020908101511490565b634e487b7160e01b5f52604160045260245ffd5b6040805190810167ffffffffffffffff811182821017156108e1576108e16108aa565b60405290565b6040516080810167ffffffffffffffff811182821017156108e1576108e16108aa565b604051601f8201601f1916810167ffffffffffffffff81118282101715610933576109336108aa565b604052919050565b5f67ffffffffffffffff821115610954576109546108aa565b5060051b60200190565b5f82601f83011261096d575f5ffd5b813567ffffffffffffffff811115610987576109876108aa565b61099a601f8201601f191660200161090a565b8181528460208386010111156109ae575f5ffd5b816020850160208301375f918101602001919091529392505050565b5f82601f8301126109d9575f5ffd5b81356109ec6109e78261093b565b61090a565b8082825260208201915060208360051b860101925085831115610a0d575f5ffd5b602085015b83811015610aa457803567ffffffffffffffff811115610a30575f5ffd5b86016040818903601f19011215610a45575f5ffd5b610a4d6108be565b602082013560028110610a5e575f5ffd5b8152604082013567ffffffffffffffff811115610a79575f5ffd5b610a888a60208386010161095e565b6020830152508085525050602083019250602081019050610a12565b5095945050505050565b5f82601f830112610abd575f5ffd5b8135610acb6109e78261093b565b8082825260208201915060208360051b860101925085831115610aec575f5ffd5b602085015b83811015610aa457803567ffffffffffffffff811115610b0f575f5ffd5b8601603f81018813610b1f575f5ffd5b6020810135610b306109e78261093b565b808282526020820191506020808460051b8601010192508a831115610b53575f5ffd5b604084015b83811015610b9457803567ffffffffffffffff811115610b76575f5ffd5b610b858d60408884010161095e565b84525060209283019201610b58565b5086525050602093840193919091019050610af1565b5f5f5f60608486031215610bbc575f5ffd5b833567ffffffffffffffff811115610bd2575f5ffd5b840160808187031215610be3575f5ffd5b610beb6108e7565b813573ffffffffffffffffffffffffffffffffffffffff81168114610c0e575f5ffd5b81526020828101359082015260408201357fffffffff0000000000000000000000000000000000000000000000000000000081168114610c4c575f5ffd5b6040820152606082013567ffffffffffffffff811115610c6a575f5ffd5b610c76888285016109ca565b606083015250935050602084013567ffffffffffffffff811115610c98575f5ffd5b610ca486828701610aae565b93969395505050506040919091013590565b602081525f82518060208401528060208501604085015e5f604082850101526040601f19601f83011684010191505092915050565b634e487b7160e01b5f52603260045260245ffd5b634e487b7160e01b5f52601160045260245ffd5b8082018082111561070a5761070a610cff565b5f81518060208401855e5f93019283525090919050565b5f610d488285610d26565b9283525050602001919050565b5f6100a7610d638386610d26565b84610d26565b7fffffffff00000000000000000000000000000000000000000000000000000000841681525f6106f0610d636004840186610d26565b634e487b7160e01b5f52602160045260245ffd5b5f82610dcd57634e487b7160e01b5f52601260045260245ffd5b500690565b8181038181111561070a5761070a610cff56fea2646970667358221220df4b9aa537ca4d507e36694bbc5da72ed240d8452cc6f7a2b0c31896d1a3b62064736f6c634300081c0033",
  "linkReferences": {},
  "deployedLinkReferences": {},
  "immutableReferences": {},
  "inputSourceName": "project/contracts/dynamic-calls/DynamicCallEncoder.sol",
  "buildInfoId": "12f09d15bff90803c31bf3647fa771bdc294726c"
}