{
  "_format": "hh3-artifact-1",
  "contractName": "Settler",
  "sourceName": "contracts/Settler.sol",
  "abi": [
    {
      "inputs": [
        {
          "internalType": "address",
          "name": "_controller",
          "type": "address"
        },
        {
          "internalType": "address",
          "name": "_owner",
          "type": "address"
        }
      ],
      "stateMutability": "nonpayable",
      "type": "constructor"
    },
    {
      "inputs": [],
      "name": "ECDSAInvalidSignature",
      "type": "error"
    },
    {
      "inputs": [
        {
          "internalType": "uint256",
          "name": "length",
          "type": "uint256"
        }
      ],
      "name": "ECDSAInvalidSignatureLength",
      "type": "error"
    },
    {
      "inputs": [
        {
          "internalType": "bytes32",
          "name": "s",
          "type": "bytes32"
        }
      ],
      "name": "ECDSAInvalidSignatureS",
      "type": "error"
    },
    {
      "inputs": [],
      "name": "FailedCall",
      "type": "error"
    },
    {
      "inputs": [
        {
          "internalType": "uint256",
          "name": "balance",
          "type": "uint256"
        },
        {
          "internalType": "uint256",
          "name": "needed",
          "type": "uint256"
        }
      ],
      "name": "InsufficientBalance",
      "type": "error"
    },
    {
      "inputs": [],
      "name": "InvalidShortString",
      "type": "error"
    },
    {
      "inputs": [
        {
          "internalType": "address",
          "name": "owner",
          "type": "address"
        }
      ],
      "name": "OwnableInvalidOwner",
      "type": "error"
    },
    {
      "inputs": [
        {
          "internalType": "address",
          "name": "account",
          "type": "address"
        }
      ],
      "name": "OwnableUnauthorizedAccount",
      "type": "error"
    },
    {
      "inputs": [],
      "name": "ReentrancyGuardReentrantCall",
      "type": "error"
    },
    {
      "inputs": [
        {
          "internalType": "address",
          "name": "token",
          "type": "address"
        }
      ],
      "name": "SafeERC20FailedOperation",
      "type": "error"
    },
    {
      "inputs": [
        {
          "internalType": "uint256",
          "name": "index",
          "type": "uint256"
        },
        {
          "internalType": "uint256",
          "name": "amountOut",
          "type": "uint256"
        },
        {
          "internalType": "uint256",
          "name": "proposed",
          "type": "uint256"
        }
      ],
      "name": "SettlerAmountOutLtProposed",
      "type": "error"
    },
    {
      "inputs": [
        {
          "internalType": "address",
          "name": "executor",
          "type": "address"
        }
      ],
      "name": "SettlerExecutorNotAllowed",
      "type": "error"
    },
    {
      "inputs": [
        {
          "internalType": "uint256",
          "name": "deadline",
          "type": "uint256"
        },
        {
          "internalType": "uint256",
          "name": "timestamp",
          "type": "uint256"
        }
      ],
      "name": "SettlerIntentPastDeadline",
      "type": "error"
    },
    {
      "inputs": [
        {
          "internalType": "uint256",
          "name": "chainId",
          "type": "uint256"
        }
      ],
      "name": "SettlerInvalidChain",
      "type": "error"
    },
    {
      "inputs": [],
      "name": "SettlerInvalidProposedAmounts",
      "type": "error"
    },
    {
      "inputs": [
        {
          "internalType": "address",
          "name": "to",
          "type": "address"
        }
      ],
      "name": "SettlerInvalidRecipient",
      "type": "error"
    },
    {
      "inputs": [
        {
          "internalType": "address",
          "name": "settler",
          "type": "address"
        }
      ],
      "name": "SettlerInvalidSettler",
      "type": "error"
    },
    {
      "inputs": [
        {
          "internalType": "address",
          "name": "user",
          "type": "address"
        },
        {
          "internalType": "bytes32",
          "name": "nonce",
          "type": "bytes32"
        }
      ],
      "name": "SettlerNonceAlreadyUsed",
      "type": "error"
    },
    {
      "inputs": [],
      "name": "SettlerNonceZero",
      "type": "error"
    },
    {
      "inputs": [
        {
          "internalType": "uint256",
          "name": "index",
          "type": "uint256"
        },
        {
          "internalType": "uint256",
          "name": "post",
          "type": "uint256"
        },
        {
          "internalType": "uint256",
          "name": "pre",
          "type": "uint256"
        }
      ],
      "name": "SettlerPostBalanceOutLtPre",
      "type": "error"
    },
    {
      "inputs": [],
      "name": "SettlerProposalDataNotEmpty",
      "type": "error"
    },
    {
      "inputs": [
        {
          "internalType": "uint256",
          "name": "deadline",
          "type": "uint256"
        },
        {
          "internalType": "uint256",
          "name": "timestamp",
          "type": "uint256"
        }
      ],
      "name": "SettlerProposalPastDeadline",
      "type": "error"
    },
    {
      "inputs": [
        {
          "internalType": "address",
          "name": "signer",
          "type": "address"
        }
      ],
      "name": "SettlerProposalSignerNotAllowed",
      "type": "error"
    },
    {
      "inputs": [
        {
          "internalType": "uint256",
          "name": "index",
          "type": "uint256"
        },
        {
          "internalType": "uint256",
          "name": "proposed",
          "type": "uint256"
        },
        {
          "internalType": "uint256",
          "name": "minAmount",
          "type": "uint256"
        }
      ],
      "name": "SettlerProposedAmountLtMinAmount",
      "type": "error"
    },
    {
      "inputs": [],
      "name": "SettlerRescueFundsRecipientZero",
      "type": "error"
    },
    {
      "inputs": [
        {
          "internalType": "uint256",
          "name": "gasUsed",
          "type": "uint256"
        }
      ],
      "name": "SettlerSimulationSuccess",
      "type": "error"
    },
    {
      "inputs": [],
      "name": "SettlerSolverFeeInvalidLength",
      "type": "error"
    },
    {
      "inputs": [
        {
          "internalType": "uint256",
          "name": "fee",
          "type": "uint256"
        },
        {
          "internalType": "uint256",
          "name": "max",
          "type": "uint256"
        }
      ],
      "name": "SettlerSolverFeeTooHigh",
      "type": "error"
    },
    {
      "inputs": [
        {
          "internalType": "address",
          "name": "solver",
          "type": "address"
        }
      ],
      "name": "SettlerSolverNotAllowed",
      "type": "error"
    },
    {
      "inputs": [
        {
          "internalType": "uint8",
          "name": "op",
          "type": "uint8"
        }
      ],
      "name": "SettlerUnknownIntentType",
      "type": "error"
    },
    {
      "inputs": [
        {
          "internalType": "address",
          "name": "user",
          "type": "address"
        }
      ],
      "name": "SettlerUserNotSmartAccount",
      "type": "error"
    },
    {
      "inputs": [
        {
          "internalType": "string",
          "name": "str",
          "type": "string"
        }
      ],
      "name": "StringTooLong",
      "type": "error"
    },
    {
      "anonymous": false,
      "inputs": [],
      "name": "EIP712DomainChanged",
      "type": "event"
    },
    {
      "anonymous": false,
      "inputs": [
        {
          "indexed": true,
          "internalType": "bytes32",
          "name": "proposal",
          "type": "bytes32"
        },
        {
          "indexed": false,
          "internalType": "uint256",
          "name": "index",
          "type": "uint256"
        }
      ],
      "name": "Executed",
      "type": "event"
    },
    {
      "anonymous": false,
      "inputs": [
        {
          "indexed": true,
          "internalType": "address",
          "name": "token",
          "type": "address"
        },
        {
          "indexed": true,
          "internalType": "address",
          "name": "recipient",
          "type": "address"
        },
        {
          "indexed": false,
          "internalType": "uint256",
          "name": "amount",
          "type": "uint256"
        }
      ],
      "name": "FundsRescued",
      "type": "event"
    },
    {
      "anonymous": false,
      "inputs": [
        {
          "indexed": true,
          "internalType": "address",
          "name": "previousOwner",
          "type": "address"
        },
        {
          "indexed": true,
          "internalType": "address",
          "name": "newOwner",
          "type": "address"
        }
      ],
      "name": "OwnershipTransferred",
      "type": "event"
    },
    {
      "inputs": [],
      "name": "controller",
      "outputs": [
        {
          "internalType": "address",
          "name": "",
          "type": "address"
        }
      ],
      "stateMutability": "view",
      "type": "function"
    },
    {
      "inputs": [],
      "name": "eip712Domain",
      "outputs": [
        {
          "internalType": "bytes1",
          "name": "fields",
          "type": "bytes1"
        },
        {
          "internalType": "string",
          "name": "name",
          "type": "string"
        },
        {
          "internalType": "string",
          "name": "version",
          "type": "string"
        },
        {
          "internalType": "uint256",
          "name": "chainId",
          "type": "uint256"
        },
        {
          "internalType": "address",
          "name": "verifyingContract",
          "type": "address"
        },
        {
          "internalType": "bytes32",
          "name": "salt",
          "type": "bytes32"
        },
        {
          "internalType": "uint256[]",
          "name": "extensions",
          "type": "uint256[]"
        }
      ],
      "stateMutability": "view",
      "type": "function"
    },
    {
      "inputs": [
        {
          "components": [
            {
              "components": [
                {
                  "internalType": "enum OpType",
                  "name": "op",
                  "type": "uint8"
                },
                {
                  "internalType": "address",
                  "name": "user",
                  "type": "address"
                },
                {
                  "internalType": "address",
                  "name": "settler",
                  "type": "address"
                },
                {
                  "internalType": "bytes32",
                  "name": "nonce",
                  "type": "bytes32"
                },
                {
                  "internalType": "uint256",
                  "name": "deadline",
                  "type": "uint256"
                },
                {
                  "internalType": "bytes",
                  "name": "data",
                  "type": "bytes"
                },
                {
                  "components": [
                    {
                      "internalType": "address",
                      "name": "token",
                      "type": "address"
                    },
                    {
                      "internalType": "uint256",
                      "name": "amount",
                      "type": "uint256"
                    }
                  ],
                  "internalType": "struct MaxFee[]",
                  "name": "maxFees",
                  "type": "tuple[]"
                }
              ],
              "internalType": "struct Intent",
              "name": "intent",
              "type": "tuple"
            },
            {
              "components": [
                {
                  "internalType": "uint256",
                  "name": "deadline",
                  "type": "uint256"
                },
                {
                  "internalType": "bytes",
                  "name": "data",
                  "type": "bytes"
                },
                {
                  "internalType": "uint256[]",
                  "name": "fees",
                  "type": "uint256[]"
                }
              ],
              "internalType": "struct Proposal",
              "name": "proposal",
              "type": "tuple"
            },
            {
              "internalType": "bytes",
              "name": "signature",
              "type": "bytes"
            }
          ],
          "internalType": "struct Execution[]",
          "name": "executions",
          "type": "tuple[]"
        }
      ],
      "name": "execute",
      "outputs": [],
      "stateMutability": "nonpayable",
      "type": "function"
    },
    {
      "inputs": [
        {
          "components": [
            {
              "internalType": "enum OpType",
              "name": "op",
              "type": "uint8"
            },
            {
              "internalType": "address",
              "name": "user",
              "type": "address"
            },
            {
              "internalType": "address",
              "name": "settler",
              "type": "address"
            },
            {
              "internalType": "bytes32",
              "name": "nonce",
              "type": "bytes32"
            },
            {
              "internalType": "uint256",
              "name": "deadline",
              "type": "uint256"
            },
            {
              "internalType": "bytes",
              "name": "data",
              "type": "bytes"
            },
            {
              "components": [
                {
                  "internalType": "address",
                  "name": "token",
                  "type": "address"
                },
                {
                  "internalType": "uint256",
                  "name": "amount",
                  "type": "uint256"
                }
              ],
              "internalType": "struct MaxFee[]",
              "name": "maxFees",
              "type": "tuple[]"
            }
          ],
          "internalType": "struct Intent",
          "name": "intent",
          "type": "tuple"
        }
      ],
      "name": "getIntentHash",
      "outputs": [
        {
          "internalType": "bytes32",
          "name": "",
          "type": "bytes32"
        }
      ],
      "stateMutability": "pure",
      "type": "function"
    },
    {
      "inputs": [
        {
          "components": [
            {
              "internalType": "uint256",
              "name": "deadline",
              "type": "uint256"
            },
            {
              "internalType": "bytes",
              "name": "data",
              "type": "bytes"
            },
            {
              "internalType": "uint256[]",
              "name": "fees",
              "type": "uint256[]"
            }
          ],
          "internalType": "struct Proposal",
          "name": "proposal",
          "type": "tuple"
        },
        {
          "components": [
            {
              "internalType": "enum OpType",
              "name": "op",
              "type": "uint8"
            },
            {
              "internalType": "address",
              "name": "user",
              "type": "address"
            },
            {
              "internalType": "address",
              "name": "settler",
              "type": "address"
            },
            {
              "internalType": "bytes32",
              "name": "nonce",
              "type": "bytes32"
            },
            {
              "internalType": "uint256",
              "name": "deadline",
              "type": "uint256"
            },
            {
              "internalType": "bytes",
              "name": "data",
              "type": "bytes"
            },
            {
              "components": [
                {
                  "internalType": "address",
                  "name": "token",
                  "type": "address"
                },
                {
                  "internalType": "uint256",
                  "name": "amount",
                  "type": "uint256"
                }
              ],
              "internalType": "struct MaxFee[]",
              "name": "maxFees",
              "type": "tuple[]"
            }
          ],
          "internalType": "struct Intent",
          "name": "intent",
          "type": "tuple"
        },
        {
          "internalType": "address",
          "name": "solver",
          "type": "address"
        }
      ],
      "name": "getProposalHash",
      "outputs": [
        {
          "internalType": "bytes32",
          "name": "",
          "type": "bytes32"
        }
      ],
      "stateMutability": "pure",
      "type": "function"
    },
    {
      "inputs": [
        {
          "internalType": "address",
          "name": "",
          "type": "address"
        },
        {
          "internalType": "bytes32",
          "name": "",
          "type": "bytes32"
        }
      ],
      "name": "isNonceUsed",
      "outputs": [
        {
          "internalType": "bool",
          "name": "",
          "type": "bool"
        }
      ],
      "stateMutability": "view",
      "type": "function"
    },
    {
      "inputs": [],
      "name": "owner",
      "outputs": [
        {
          "internalType": "address",
          "name": "",
          "type": "address"
        }
      ],
      "stateMutability": "view",
      "type": "function"
    },
    {
      "inputs": [],
      "name": "renounceOwnership",
      "outputs": [],
      "stateMutability": "nonpayable",
      "type": "function"
    },
    {
      "inputs": [
        {
          "internalType": "address",
          "name": "token",
          "type": "address"
        },
        {
          "internalType": "address",
          "name": "recipient",
          "type": "address"
        },
        {
          "internalType": "uint256",
          "name": "amount",
          "type": "uint256"
        }
      ],
      "name": "rescueFunds",
      "outputs": [],
      "stateMutability": "nonpayable",
      "type": "function"
    },
    {
      "inputs": [
        {
          "components": [
            {
              "components": [
                {
                  "internalType": "enum OpType",
                  "name": "op",
                  "type": "uint8"
                },
                {
                  "internalType": "address",
                  "name": "user",
                  "type": "address"
                },
                {
                  "internalType": "address",
                  "name": "settler",
                  "type": "address"
                },
                {
                  "internalType": "bytes32",
                  "name": "nonce",
                  "type": "bytes32"
                },
                {
                  "internalType": "uint256",
                  "name": "deadline",
                  "type": "uint256"
                },
                {
                  "internalType": "bytes",
                  "name": "data",
                  "type": "bytes"
                },
                {
                  "components": [
                    {
                      "internalType": "address",
                      "name": "token",
                      "type": "address"
                    },
                    {
                      "internalType": "uint256",
                      "name": "amount",
                      "type": "uint256"
                    }
                  ],
                  "internalType": "struct MaxFee[]",
                  "name": "maxFees",
                  "type": "tuple[]"
                }
              ],
              "internalType": "struct Intent",
              "name": "intent",
              "type": "tuple"
            },
            {
              "components": [
                {
                  "internalType": "uint256",
                  "name": "deadline",
                  "type": "uint256"
                },
                {
                  "internalType": "bytes",
                  "name": "data",
                  "type": "bytes"
                },
                {
                  "internalType": "uint256[]",
                  "name": "fees",
                  "type": "uint256[]"
                }
              ],
              "internalType": "struct Proposal",
              "name": "proposal",
              "type": "tuple"
            },
            {
              "internalType": "bytes",
              "name": "signature",
              "type": "bytes"
            }
          ],
          "internalType": "struct Execution[]",
          "name": "executions",
          "type": "tuple[]"
        }
      ],
      "name": "simulate",
      "outputs": [],
      "stateMutability": "nonpayable",
      "type": "function"
    },
    {
      "inputs": [
        {
          "internalType": "address",
          "name": "newOwner",
          "type": "address"
        }
      ],
      "name": "transferOwnership",
      "outputs": [],
      "stateMutability": "nonpayable",
      "type": "function"
    },
    {
      "stateMutability": "payable",
      "type": "receive"
    }
  ],
  "bytecode": "0x610180604052348015610010575f5ffd5b5060405161367438038061367483398101604081905261002f91610254565b604080518082018252601681527f4d696d69632050726f746f636f6c20536574746c657200000000000000000000602080830191909152825180840190935260018352603160f81b9083015290826001600160a01b0381166100ab57604051631e4fbdf760e01b81525f60048201526024015b60405180910390fd5b6100b48161017b565b50600180556100c48260026101ca565b610120526100d38160036101ca565b61014052815160208084019190912060e052815190820120610100524660a05261015f60e05161010051604080517f8b73c3c69bb8fe3d512ecc4cf759cc79239f7b179b0ffacaa9a75d522b39400f60208201529081019290925260608201524660808201523060a08201525f9060c00160405160208183030381529060405280519060200120905090565b60805250503060c052506001600160a01b03166101605261042f565b5f80546001600160a01b038381166001600160a01b0319831681178455604051919092169283917f8be0079c531659141344cd1fd0a4f28419497f9722a3daafe3b4186f6b6457e09190a35050565b5f6020835110156101e5576101de836101fc565b90506101f6565b816101f0848261031d565b5060ff90505b92915050565b5f5f829050601f81511115610226578260405163305a27a960e01b81526004016100a291906103d7565b80516102318261040c565b179392505050565b80516001600160a01b038116811461024f575f5ffd5b919050565b5f5f60408385031215610265575f5ffd5b61026e83610239565b915061027c60208401610239565b90509250929050565b634e487b7160e01b5f52604160045260245ffd5b600181811c908216806102ad57607f821691505b6020821081036102cb57634e487b7160e01b5f52602260045260245ffd5b50919050565b601f82111561031857805f5260205f20601f840160051c810160208510156102f65750805b601f840160051c820191505b81811015610315575f8155600101610302565b50505b505050565b81516001600160401b0381111561033657610336610285565b61034a816103448454610299565b846102d1565b6020601f82116001811461037c575f83156103655750848201515b5f19600385901b1c1916600184901b178455610315565b5f84815260208120601f198516915b828110156103ab578785015182556020948501946001909201910161038b565b50848210156103c857868401515f19600387901b60f8161c191681555b50505050600190811b01905550565b602081525f82518060208401528060208501604085015e5f604082850101526040601f19601f83011684010191505092915050565b805160208083015191908110156102cb575f1960209190910360031b1b16919050565b60805160a05160c05160e051610100516101205161014051610160516131ce6104a65f395f818161025a015281816102a0015281816104b501528181610d5601526117e201525f61091401525f6108e201525f611e8a01525f611e6201525f611dbd01525f611de701525f611e1101526131ce5ff3fe6080604052600436106100bb575f3560e01c80638da5cb5b11610071578063cec1cbfc1161004c578063cec1cbfc1461020b578063f2fde38b1461022a578063f77c479114610249575f5ffd5b80638da5cb5b1461018f57806392b0457c146101bf578063a097f01e146101ec575f5ffd5b80636ccae054116100a15780636ccae05414610135578063715018a61461015457806384b0196e14610168575f5ffd5b80630685c03a146100c657806360331caf14610114575f5ffd5b366100c257005b5f5ffd5b3480156100d1575f5ffd5b506100ff6100e03660046122a5565b600460209081525f928352604080842090915290825290205460ff1681565b60405190151581526020015b60405180910390f35b34801561011f575f5ffd5b5061013361012e36600461266c565b61027c565b005b348015610140575f5ffd5b5061013361014f3660046127b2565b610346565b34801561015f575f5ffd5b506101336103fc565b348015610173575f5ffd5b5061017c61040f565b60405161010b979695949392919061281e565b34801561019a575f5ffd5b505f546001600160a01b03165b6040516001600160a01b03909116815260200161010b565b3480156101ca575f5ffd5b506101de6101d93660046128d0565b61046d565b60405190815260200161010b565b3480156101f7575f5ffd5b506101de610206366004612948565b610481565b348015610216575f5ffd5b5061013361022536600461266c565b610491565b348015610235575f5ffd5b5061013361024436600461297a565b61059b565b348015610254575f5ffd5b506101a77f000000000000000000000000000000000000000000000000000000000000000081565b5f3360405163d9d8edb960e01b81526001600160a01b0380831660048301529192507f00000000000000000000000000000000000000000000000000000000000000009091169063d9d8edb990602401602060405180830381865afa1580156102e7573d5f5f3e3d5ffd5b505050506040513d601f19601f8201168201806040525081019061030b9190612995565b6103385760405163a7ac57a960e01b81526001600160a01b03821660048201526024015b60405180910390fd5b610342825f6105f1565b5050565b61034e6107b3565b6103566107f8565b6001600160a01b038216610396576040517f54328a0900000000000000000000000000000000000000000000000000000000815260040160405180910390fd5b6103a183838361083b565b816001600160a01b0316836001600160a01b03167fed2837b80b3489773c5f1ed30dd2884b4c90dbf7b87428ea03c49b24ef59a805836040516103e691815260200190565b60405180910390a36103f760018055565b505050565b6104046107b3565b61040d5f610874565b565b5f6060805f5f5f60606104206108db565b61042861090d565b604080515f808252602082019092527f0f000000000000000000000000000000000000000000000000000000000000009b939a50919850469750309650945092509050565b5f61047984848461093a565b949350505050565b5f61048b826109d6565b92915050565b5f3360405163d9d8edb960e01b81526001600160a01b0380831660048301529192507f00000000000000000000000000000000000000000000000000000000000000009091169063d9d8edb990602401602060405180830381865afa1580156104fc573d5f5f3e3d5ffd5b505050506040513d601f19601f820116820180604052508101906105209190612995565b6105485760405163a7ac57a960e01b81526001600160a01b038216600482015260240161032f565b5f5a90506105578360016105f1565b5f5a61056390836129b4565b9050806040517fa523ba4900000000000000000000000000000000000000000000000000000000815260040161032f91815260200190565b6105a36107b3565b6001600160a01b0381166105e5576040517f1e4fbdf70000000000000000000000000000000000000000000000000000000081525f600482015260240161032f565b6105ee81610874565b50565b6105f96107f8565b5f5b82518110156107a9575f838281518110610617576106176129d3565b60200260200101515f015190505f848381518110610637576106376129d3565b60200260200101516020015190505f858481518110610658576106586129d3565b602002602001015160400151905061067283838388610a5d565b6020808401516001600160a01b03165f90815260048252604080822060608701518352909252908120805460ff19166001179055835160028111156106b9576106b96129e7565b036106cd576106c88383610e18565b610760565b6001835160028111156106e2576106e26129e7565b036106f1576106c883836110ad565b600283516002811115610706576107066129e7565b03610715576106c88383611149565b82516002811115610728576107286129e7565b6040517f7cdbcbf100000000000000000000000000000000000000000000000000000000815260ff909116600482015260240161032f565b61076b82843361093a565b6040518581527f3a7a2319bce6d060c98aa49682d12788f621b7e2e68701a9a082398b39da0f979060200160405180910390a25050506001016105fb565b5061034260018055565b5f546001600160a01b0316331461040d576040517f118cdaa700000000000000000000000000000000000000000000000000000000815233600482015260240161032f565b600260015403610834576040517f3ee5aeb500000000000000000000000000000000000000000000000000000000815260040160405180910390fd5b6002600155565b73eeeeeeeeeeeeeeeeeeeeeeeeeeeeeeeeeeeeeeee6001600160a01b03841603610869576103f7828261123c565b6103f78383836112e1565b5f80546001600160a01b038381167fffffffffffffffffffffffff0000000000000000000000000000000000000000831681178455604051919092169283917f8be0079c531659141344cd1fd0a4f28419497f9722a3daafe3b4186f6b6457e09190a35050565b60606109087f00000000000000000000000000000000000000000000000000000000000000006002611355565b905090565b60606109087f00000000000000000000000000000000000000000000000000000000000000006003611355565b5f7fabd98b1a5498f7ce6ce5fd671f1a1c2ad437b155c4c12281f925612823c72e88610965846109d6565b83865f015187602001518051906020012061098389604001516113ff565b6040805160208101979097528601949094526001600160a01b039092166060850152608084015260a083015260c082015260e0016040516020818303038152906040528051906020012090509392505050565b5f7f71677b9a8616c2544972166154c3cd36220959e61c1ff4cd52e754989678b83d825f015183602001518460400151856060015186608001518760a0015180519060200120610a298960c00151611411565b604051602001610a40989796959493929190612a1b565b604051602081830303815290604052805190602001209050919050565b60408401516001600160a01b03163014610ab45760408085015190517f30b078bf0000000000000000000000000000000000000000000000000000000081526001600160a01b03909116600482015260240161032f565b6060840151610aef576040517f58e8d18100000000000000000000000000000000000000000000000000000000815260040160405180910390fd5b6020808501516001600160a01b03165f90815260048252604080822060608801518352909252205460ff1615610b6c57602084015160608501516040517f9756f94d0000000000000000000000000000000000000000000000000000000081526001600160a01b039092166004830152602482015260440161032f565b5f610b7685611557565b90508015610c155742856080015111610bca5760808501516040517f95d3dc22000000000000000000000000000000000000000000000000000000008152600481019190915242602482015260440161032f565b83514210801590610c135784516040517f2c39717b000000000000000000000000000000000000000000000000000000008152600481019190915242602482015260440161032f565b505b8360400151518560c001515114610c58576040517f9dca144800000000000000000000000000000000000000000000000000000000815260040160405180910390fd5b5f5b8560c0015151811015610cfb575f8660c001518281518110610c7e57610c7e6129d3565b60200260200101516020015190505f86604001518381518110610ca357610ca36129d3565b6020026020010151905081811115610cf1576040517f8ffa61fa000000000000000000000000000000000000000000000000000000008152600481018290526024810183905260440161032f565b5050600101610c5a565b505f610d19610d13610d0e87893361093a565b6115b4565b856115fb565b6040517f163eed9e0000000000000000000000000000000000000000000000000000000081526001600160a01b0380831660048301529192505f917f0000000000000000000000000000000000000000000000000000000000000000169063163eed9e90602401602060405180830381865afa158015610d9b573d5f5f3e3d5ffd5b505050506040513d601f19601f82011682018060405250810190610dbf9190612995565b158015610dca575083155b90508015610e0f576040517f100158a80000000000000000000000000000000000000000000000000000000081526001600160a01b038316600482015260240161032f565b50505050505050565b5f8260a00151806020019051810190610e319190612b21565b90505f8260200151806020019051810190610e4c9190612c9e565b9050610e588282611623565b5f610e668560200151611894565b905046835f015103610ec8575f5b836040015151811015610ec6575f84604001518281518110610e9857610e986129d3565b60200260200101519050610ebd815f01518860200151865f01518460200151876118bf565b50600101610e74565b505b5f610ed284611964565b83516040517fc26077140000000000000000000000000000000000000000000000000000000081529192506001600160a01b03169063c260771490610f1d9089908990600401612e09565b5f604051808303815f87803b158015610f34575f5ffd5b505af1158015610f46573d5f5f3e3d5ffd5b50505050468460200151036110a5575f5b846060015151811015611099575f85606001518281518110610f7b57610f7b6129d3565b602002602001015190505f610f93825f015130611a20565b90505f848481518110610fa857610fa86129d3565b6020026020010151905080821015610ffd576040517ff5ad5ab700000000000000000000000000000000000000000000000000000000815260048101859052602481018390526044810182905260640161032f565b5f61100882846129b4565b90505f88604001518681518110611021576110216129d3565b6020026020010151905080821015611076576040517ff0a43aa700000000000000000000000000000000000000000000000000000000815260048101879052602481018390526044810182905260640161032f565b611088855f015186604001518461083b565b505060019093019250610f57915050565b506110a5868684611ad7565b505050505050565b5f8260a001518060200190518101906110c69190612ee1565b90506110d28183611b5b565b5f6110e08460200151611894565b90505f5b826020015151811015611137575f83602001518281518110611108576111086129d3565b6020026020010151905061112e815f0151876020015183604001518460200151876118bf565b506001016110e4565b50611143848483611ad7565b50505050565b5f8260a001518060200190518101906111629190612f6d565b905061117381838560200151611c1c565b60208301515f5b82602001515181101561122f575f8360200151828151811061119e5761119e6129d3565b60200260200101519050826001600160a01b0316634ae00041825f0151836020015184604001516040518463ffffffff1660e01b81526004016111e3939291906130b7565b5f604051808303815f875af11580156111fe573d5f5f3e3d5ffd5b505050506040513d5f823e601f3d908101601f1916820160405261122591908101906130e8565b505060010161117a565b5061114384846001611ad7565b8047101561127f576040517fcf4791810000000000000000000000000000000000000000000000000000000081524760048201526024810182905260440161032f565b5f5f836001600160a01b0316836040515f6040518083038185875af1925050503d805f81146112c9576040519150601f19603f3d011682016040523d82523d5f602084013e6112ce565b606091505b5091509150816111435761114381611cad565b6040516001600160a01b038381166024830152604482018390526103f791859182169063a9059cbb906064015b604051602081830303815290604052915060e01b6020820180517bffffffffffffffffffffffffffffffffffffffffffffffffffffffff8381831617835250505050611cef565b606060ff831461136f5761136883611d74565b905061048b565b81805461137b9061311a565b80601f01602080910402602001604051908101604052809291908181526020018280546113a79061311a565b80156113f25780601f106113c9576101008083540402835291602001916113f2565b820191905f5260205f20905b8154815290600101906020018083116113d557829003601f168201915b5050505050905092915050565b5f81604051602001610a40919061314c565b5f5f825167ffffffffffffffff81111561142d5761142d6122cf565b604051908082528060200260200182016040528015611456578160200160208202803683370190505b5090505f5b8351811015611527577fe44101eb81f50b64d4005e31312ea7bafd6f81357f9dce4fe51d5f2dcb939da4848281518110611497576114976129d3565b60200260200101515f01518583815181106114b4576114b46129d3565b6020026020010151602001516040516020016114ec939291909283526001600160a01b03919091166020830152604082015260600190565b60405160208183030381529060405280519060200120828281518110611514576115146129d3565b602090810291909101015260010161145b565b5080604051602001611539919061314c565b60405160208183030381529060405280519060200120915050919050565b5f808251600281111561156c5761156c6129e7565b1461157957506001919050565b5f8260a001518060200190518101906115929190612b21565b90508060200151815f0151036115ab5750600192915050565b51461492915050565b5f61048b6115c0611db1565b836040517f19010000000000000000000000000000000000000000000000000000000000008152600281019290925260228201526042902090565b5f5f5f5f6116098686611eda565b9250925092506116198282611f23565b5090949350505050565b81515f90461480159061163a575046836020015114155b9050801561165d5760405163308a43dd60e11b815246600482015260240161032f565b826060015151826040015151146116a0576040517f1816c20200000000000000000000000000000000000000000000000000000000815260040160405180910390fd5b5f5b836060015151811015611799575f846060015182815181106116c6576116c66129d3565b602002602001015190505f81604001519050306001600160a01b0316816001600160a01b03160361171557604051630b9ab59960e01b81526001600160a01b038216600482015260240161032f565b5f826020015190505f86604001518581518110611734576117346129d3565b6020026020010151905081811015611789576040517f1fef5f3300000000000000000000000000000000000000000000000000000000815260048101869052602481018290526044810183905260640161032f565b5050600190920191506116a29050565b5060208301518351146103f75781516040517f7d7011020000000000000000000000000000000000000000000000000000000081526001600160a01b0391821660048201525f917f00000000000000000000000000000000000000000000000000000000000000001690637d70110290602401602060405180830381865afa158015611827573d5f5f3e3d5ffd5b505050506040513d601f19601f8201168201806040525081019061184b9190612995565b15905080156111435782516040517fdb489af40000000000000000000000000000000000000000000000000000000081526001600160a01b03909116600482015260240161032f565b5f61048b827ff44bac8900000000000000000000000000000000000000000000000000000000612026565b8015611948576040517fbeabacc80000000000000000000000000000000000000000000000000000000081526001600160a01b03868116600483015284811660248301526044820184905285169063beabacc8906064015f604051808303815f87803b15801561192d575f5ffd5b505af115801561193f573d5f5f3e3d5ffd5b5050505061195d565b61195d6001600160a01b038616858585612048565b5050505050565b606081606001515167ffffffffffffffff811115611984576119846122cf565b6040519080825280602002602001820160405280156119ad578160200160208202803683370190505b50905046826020015103611a1b575f5b826060015151811015611a19576119f4836060015182815181106119e3576119e36129d3565b60200260200101515f015130611a20565b828281518110611a0657611a066129d3565b60209081029190910101526001016119bd565b505b919050565b5f73eeeeeeeeeeeeeeeeeeeeeeeeeeeeeeeeeeeeeeee6001600160a01b03841603611a5657506001600160a01b0381163161048b565b6040517f70a082310000000000000000000000000000000000000000000000000000000081526001600160a01b0383811660048301528416906370a0823190602401602060405180830381865afa158015611ab3573d5f5f3e3d5ffd5b505050506040513d601f19601f820116820180604052508101906113689190613181565b6020830151335f5b8560c00151518110156110a5575f8660c001518281518110611b0357611b036129d3565b60200260200101515f01519050611b24816001600160a01b03166103481490565b611b5257611b5281858589604001518681518110611b4457611b446129d3565b6020026020010151896118bf565b50600101611adf565b81514614611b7e5760405163308a43dd60e11b815246600482015260240161032f565b60208101515115611ba2576040516393c58e1160e01b815260040160405180910390fd5b5f5b8260200151518110156103f7575f83602001518281518110611bc857611bc86129d3565b6020026020010151604001519050306001600160a01b0316816001600160a01b031603611c1357604051630b9ab59960e01b81526001600160a01b038216600482015260240161032f565b50600101611ba4565b82514614611c3f5760405163308a43dd60e11b815246600482015260240161032f565b60208201515115611c63576040516393c58e1160e01b815260040160405180910390fd5b611c6c81611894565b6103f7576040517fcaec9bac0000000000000000000000000000000000000000000000000000000081526001600160a01b038216600482015260240161032f565b805115611cbd5780518082602001fd5b6040517fd6bda27500000000000000000000000000000000000000000000000000000000815260040160405180910390fd5b5f5f60205f8451602086015f885af180611d0e576040513d5f823e3d81fd5b50505f513d91508115611d25578060011415611d32565b6001600160a01b0384163b155b15611143576040517f5274afe70000000000000000000000000000000000000000000000000000000081526001600160a01b038516600482015260240161032f565b60605f611d8083612081565b6040805160208082528183019092529192505f91906020820181803683375050509182525060208101929092525090565b5f306001600160a01b037f000000000000000000000000000000000000000000000000000000000000000016148015611e0957507f000000000000000000000000000000000000000000000000000000000000000046145b15611e3357507f000000000000000000000000000000000000000000000000000000000000000090565b610908604080517f8b73c3c69bb8fe3d512ecc4cf759cc79239f7b179b0ffacaa9a75d522b39400f60208201527f0000000000000000000000000000000000000000000000000000000000000000918101919091527f000000000000000000000000000000000000000000000000000000000000000060608201524660808201523060a08201525f9060c00160405160208183030381529060405280519060200120905090565b5f5f5f8351604103611f11576020840151604085015160608601515f1a611f03888285856120c1565b955095509550505050611f1c565b505081515f91506002905b9250925092565b5f826003811115611f3657611f366129e7565b03611f3f575050565b6001826003811115611f5357611f536129e7565b03611f8a576040517ff645eedf00000000000000000000000000000000000000000000000000000000815260040160405180910390fd5b6002826003811115611f9e57611f9e6129e7565b03611fd8576040517ffce698f70000000000000000000000000000000000000000000000000000000081526004810182905260240161032f565b6003826003811115611fec57611fec6129e7565b03610342576040517fd78bce0c0000000000000000000000000000000000000000000000000000000081526004810182905260240161032f565b5f61203083612189565b8015612041575061204183836121d3565b9392505050565b6040516001600160a01b0384811660248301528381166044830152606482018390526111439186918216906323b872dd9060840161130e565b5f60ff8216601f81111561048b576040517fb3512b0c00000000000000000000000000000000000000000000000000000000815260040160405180910390fd5b5f80807f7fffffffffffffffffffffffffffffff5d576e7357a4501ddfe92f46681b20a08411156120fa57505f9150600390508261217f565b604080515f808252602082018084528a905260ff891692820192909252606081018790526080810186905260019060a0016020604051602081039080840390855afa15801561214b573d5f5f3e3d5ffd5b5050604051601f1901519150506001600160a01b03811661217657505f92506001915082905061217f565b92505f91508190505b9450945094915050565b5f61219b826301ffc9a760e01b6121d3565b801561048b57506121cc827fffffffff000000000000000000000000000000000000000000000000000000006121d3565b1592915050565b6040517fffffffff00000000000000000000000000000000000000000000000000000000821660248201525f90819060440160408051601f19818403018152919052602080820180517bffffffffffffffffffffffffffffffffffffffffffffffffffffffff166301ffc9a760e01b17815282519293505f9283928392909183918a617530fa92503d91505f519050828015612270575060208210155b801561227b57505f81115b979650505050505050565b6001600160a01b03811681146105ee575f5ffd5b8035611a1b81612286565b5f5f604083850312156122b6575f5ffd5b82356122c181612286565b946020939093013593505050565b634e487b7160e01b5f52604160045260245ffd5b6040805190810167ffffffffffffffff81118282101715612306576123066122cf565b60405290565b60405160e0810167ffffffffffffffff81118282101715612306576123066122cf565b6040516060810167ffffffffffffffff81118282101715612306576123066122cf565b6040516080810167ffffffffffffffff81118282101715612306576123066122cf565b604051601f8201601f1916810167ffffffffffffffff8111828210171561239e5761239e6122cf565b604052919050565b5f67ffffffffffffffff8211156123bf576123bf6122cf565b5060051b60200190565b803560038110611a1b575f5ffd5b5f67ffffffffffffffff8211156123f0576123f06122cf565b50601f01601f191660200190565b5f82601f83011261240d575f5ffd5b813561242061241b826123d7565b612375565b818152846020838601011115612434575f5ffd5b816020850160208301375f918101602001919091529392505050565b5f82601f83011261245f575f5ffd5b813561246d61241b826123a6565b8082825260208201915060208360061b86010192508583111561248e575f5ffd5b602085015b838110156124d957604081880312156124aa575f5ffd5b6124b26122e3565b81356124bd81612286565b8152602082810135818301529084529290920191604001612493565b5095945050505050565b5f60e082840312156124f3575f5ffd5b6124fb61230c565b9050612506826123c9565b81526125146020830161229a565b60208201526125256040830161229a565b6040820152606082810135908201526080808301359082015260a082013567ffffffffffffffff811115612557575f5ffd5b612563848285016123fe565b60a08301525060c082013567ffffffffffffffff811115612582575f5ffd5b61258e84828501612450565b60c08301525092915050565b5f606082840312156125aa575f5ffd5b6125b261232f565b823581529050602082013567ffffffffffffffff8111156125d1575f5ffd5b6125dd848285016123fe565b602083015250604082013567ffffffffffffffff8111156125fc575f5ffd5b8201601f8101841361260c575f5ffd5b803561261a61241b826123a6565b8082825260208201915060208360051b85010192508683111561263b575f5ffd5b6020840193505b8284101561265d578335825260209384019390910190612642565b60408501525091949350505050565b5f6020828403121561267c575f5ffd5b813567ffffffffffffffff811115612692575f5ffd5b8201601f810184136126a2575f5ffd5b80356126b061241b826123a6565b8082825260208201915060208360051b8501019250868311156126d1575f5ffd5b602084015b838110156127a757803567ffffffffffffffff8111156126f4575f5ffd5b85016060818a03601f19011215612709575f5ffd5b61271161232f565b602082013567ffffffffffffffff81111561272a575f5ffd5b6127398b6020838601016124e3565b825250604082013567ffffffffffffffff811115612755575f5ffd5b6127648b60208386010161259a565b602083015250606082013567ffffffffffffffff811115612783575f5ffd5b6127928b6020838601016123fe565b604083015250845250602092830192016126d6565b509695505050505050565b5f5f5f606084860312156127c4575f5ffd5b83356127cf81612286565b925060208401356127df81612286565b929592945050506040919091013590565b5f81518084528060208401602086015e5f602082860101526020601f19601f83011685010191505092915050565b7fff000000000000000000000000000000000000000000000000000000000000008816815260e060208201525f61285860e08301896127f0565b828103604084015261286a81896127f0565b606084018890526001600160a01b038716608085015260a0840186905283810360c0850152845180825260208087019350909101905f5b818110156128bf5783518352602093840193909201916001016128a1565b50909b9a5050505050505050505050565b5f5f5f606084860312156128e2575f5ffd5b833567ffffffffffffffff8111156128f8575f5ffd5b6129048682870161259a565b935050602084013567ffffffffffffffff811115612920575f5ffd5b61292c868287016124e3565b925050604084013561293d81612286565b809150509250925092565b5f60208284031215612958575f5ffd5b813567ffffffffffffffff81111561296e575f5ffd5b610479848285016124e3565b5f6020828403121561298a575f5ffd5b813561204181612286565b5f602082840312156129a5575f5ffd5b81518015158114612041575f5ffd5b8181038181111561048b57634e487b7160e01b5f52601160045260245ffd5b634e487b7160e01b5f52603260045260245ffd5b634e487b7160e01b5f52602160045260245ffd5b60038110612a1757634e487b7160e01b5f52602160045260245ffd5b9052565b8881526101008101612a30602083018a6129fb565b6001600160a01b03881660408301526001600160a01b03871660608301528560808301528460a08301528360c08301528260e08301529998505050505050505050565b5f612a8061241b846123a6565b83815290506020810160608402830185811115612a9b575f5ffd5b835b81811015612af9575f60608289031215612ab5575f5ffd5b612abd61232f565b90508151612aca81612286565b8152602082810151908201526040820151612ae481612286565b60408201528352602090920191606001612a9d565b5050509392505050565b5f82601f830112612b12575f5ffd5b61204183835160208501612a73565b5f60208284031215612b31575f5ffd5b815167ffffffffffffffff811115612b47575f5ffd5b820160808185031215612b58575f5ffd5b612b60612352565b8151815260208083015190820152604082015167ffffffffffffffff811115612b87575f5ffd5b8201601f81018613612b97575f5ffd5b8051612ba561241b826123a6565b8082825260208201915060208360061b850101925088831115612bc6575f5ffd5b6020840193505b82841015612c16576040848a031215612be4575f5ffd5b612bec6122e3565b8451612bf781612286565b8152602085810151818301529083526040909401939190910190612bcd565b6040850152505050606082015167ffffffffffffffff811115612c37575f5ffd5b612c4386828501612b03565b606083015250949350505050565b5f82601f830112612c60575f5ffd5b8151612c6e61241b826123d7565b818152846020838601011115612c82575f5ffd5b8160208501602083015e5f918101602001919091529392505050565b5f60208284031215612cae575f5ffd5b815167ffffffffffffffff811115612cc4575f5ffd5b820160608185031215612cd5575f5ffd5b612cdd61232f565b8151612ce881612286565b8152602082015167ffffffffffffffff811115612d03575f5ffd5b612d0f86828501612c51565b602083015250604082015167ffffffffffffffff811115612d2e575f5ffd5b80830192505084601f830112612d42575f5ffd5b8151612d5061241b826123a6565b8082825260208201915060208360051b860101925087831115612d71575f5ffd5b6020850194505b82851015612d93578451825260209485019490910190612d78565b6040840152509095945050505050565b805182525f602082015160606020850152612dc160608501826127f0565b9050604083015184820360408601528181518084526020840191506020830193505f92505b808310156124d95783518252602082019150602084019350600183019250612de6565b60408152612e1b6040820184516129fb565b6001600160a01b0360208401511660608201526001600160a01b036040840151166080820152606083015160a0820152608083015160c08201525f60a084015160e080840152612e6f6101208401826127f0565b60c0860151848203603f19016101008601528051808352602091820193505f9291909101905b80831015612ece5783516001600160a01b0381511683526020810151602084015250604082019150602084019350600183019250612e95565b50848103602086015261227b8187612da3565b5f60208284031215612ef1575f5ffd5b815167ffffffffffffffff811115612f07575f5ffd5b820160408185031215612f18575f5ffd5b612f206122e3565b81518152602082015167ffffffffffffffff811115612f3d575f5ffd5b80830192505084601f830112612f51575f5ffd5b612f6085835160208501612a73565b6020820152949350505050565b5f60208284031215612f7d575f5ffd5b815167ffffffffffffffff811115612f93575f5ffd5b820160408185031215612fa4575f5ffd5b612fac6122e3565b81518152602082015167ffffffffffffffff811115612fc9575f5ffd5b80830192505084601f830112612fdd575f5ffd5b8151612feb61241b826123a6565b8082825260208201915060208360051b86010192508783111561300c575f5ffd5b602085015b838110156130a657805167ffffffffffffffff81111561302f575f5ffd5b86016060818b03601f19011215613044575f5ffd5b61304c61232f565b602082015161305a81612286565b8152604082015167ffffffffffffffff811115613075575f5ffd5b6130848c602083860101612c51565b6020838101919091526060939093015160408301525084529283019201613011565b506020840152509095945050505050565b6001600160a01b0384168152606060208201525f6130d860608301856127f0565b9050826040830152949350505050565b5f602082840312156130f8575f5ffd5b815167ffffffffffffffff81111561310e575f5ffd5b61047984828501612c51565b600181811c9082168061312e57607f821691505b602082108103611a1957634e487b7160e01b5f52602260045260245ffd5b81515f90829060208501835b82811015613176578151845260209384019390910190600101613158565b509195945050505050565b5f60208284031215613191575f5ffd5b505191905056fea2646970667358221220058c78ec03c04bc4b74c33f79e98b0a454cd7355a33bea39c829b85125e1ee0d64736f6c634300081c0033",
  "linkReferences": {},
  "deployedLinkReferences": {},
  "immutableReferences": {
    "4041": [
      {
        "length": 32,
        "start": 7697
      }
    ],
    "4043": [
      {
        "length": 32,
        "start": 7655
      }
    ],
    "4045": [
      {
        "length": 32,
        "start": 7613
      }
    ],
    "4047": [
      {
        "length": 32,
        "start": 7778
      }
    ],
    "4049": [
      {
        "length": 32,
        "start": 7818
      }
    ],
    "4052": [
      {
        "length": 32,
        "start": 2274
      }
    ],
    "4055": [
      {
        "length": 32,
        "start": 2324
      }
    ],
    "8710": [
      {
        "length": 32,
        "start": 602
      },
      {
        "length": 32,
        "start": 672
      },
      {
        "length": 32,
        "start": 1205
      },
      {
        "length": 32,
        "start": 3414
      },
      {
        "length": 32,
        "start": 6114
      }
    ]
  },
  "inputSourceName": "project/contracts/Settler.sol",
  "buildInfoId": "1305bbcb571121cc28a0a16d9392a4f2b0c8734c"
}