{
  "_format": "hh3-artifact-1",
  "contractName": "SmartAccount7702",
  "sourceName": "contracts/smart-accounts/SmartAccount7702.sol",
  "abi": [
    {
      "inputs": [
        {
          "internalType": "address",
          "name": "_settler",
          "type": "address"
        }
      ],
      "stateMutability": "nonpayable",
      "type": "constructor"
    },
    {
      "inputs": [
        {
          "internalType": "address",
          "name": "target",
          "type": "address"
        }
      ],
      "name": "AddressEmptyCode",
      "type": "error"
    },
    {
      "inputs": [],
      "name": "FailedCall",
      "type": "error"
    },
    {
      "inputs": [
        {
          "internalType": "uint256",
          "name": "balance",
          "type": "uint256"
        },
        {
          "internalType": "uint256",
          "name": "needed",
          "type": "uint256"
        }
      ],
      "name": "InsufficientBalance",
      "type": "error"
    },
    {
      "inputs": [],
      "name": "ReentrancyGuardReentrantCall",
      "type": "error"
    },
    {
      "inputs": [
        {
          "internalType": "address",
          "name": "token",
          "type": "address"
        }
      ],
      "name": "SafeERC20FailedOperation",
      "type": "error"
    },
    {
      "inputs": [],
      "name": "SmartAccount7702SenderNotSettler",
      "type": "error"
    },
    {
      "anonymous": false,
      "inputs": [
        {
          "indexed": true,
          "internalType": "address",
          "name": "target",
          "type": "address"
        },
        {
          "indexed": false,
          "internalType": "bytes",
          "name": "data",
          "type": "bytes"
        },
        {
          "indexed": false,
          "internalType": "uint256",
          "name": "value",
          "type": "uint256"
        },
        {
          "indexed": false,
          "internalType": "bytes",
          "name": "result",
          "type": "bytes"
        }
      ],
      "name": "Called",
      "type": "event"
    },
    {
      "anonymous": false,
      "inputs": [
        {
          "indexed": true,
          "internalType": "address",
          "name": "token",
          "type": "address"
        },
        {
          "indexed": true,
          "internalType": "address",
          "name": "recipient",
          "type": "address"
        },
        {
          "indexed": false,
          "internalType": "uint256",
          "name": "amount",
          "type": "uint256"
        }
      ],
      "name": "Transferred",
      "type": "event"
    },
    {
      "inputs": [
        {
          "internalType": "address",
          "name": "target",
          "type": "address"
        },
        {
          "internalType": "bytes",
          "name": "data",
          "type": "bytes"
        },
        {
          "internalType": "uint256",
          "name": "value",
          "type": "uint256"
        }
      ],
      "name": "call",
      "outputs": [
        {
          "internalType": "bytes",
          "name": "",
          "type": "bytes"
        }
      ],
      "stateMutability": "nonpayable",
      "type": "function"
    },
    {
      "inputs": [],
      "name": "settler",
      "outputs": [
        {
          "internalType": "address",
          "name": "",
          "type": "address"
        }
      ],
      "stateMutability": "view",
      "type": "function"
    },
    {
      "inputs": [
        {
          "internalType": "bytes4",
          "name": "interfaceId",
          "type": "bytes4"
        }
      ],
      "name": "supportsInterface",
      "outputs": [
        {
          "internalType": "bool",
          "name": "",
          "type": "bool"
        }
      ],
      "stateMutability": "view",
      "type": "function"
    },
    {
      "inputs": [
        {
          "internalType": "address",
          "name": "token",
          "type": "address"
        },
        {
          "internalType": "address",
          "name": "recipient",
          "type": "address"
        },
        {
          "internalType": "uint256",
          "name": "amount",
          "type": "uint256"
        }
      ],
      "name": "transfer",
      "outputs": [],
      "stateMutability": "nonpayable",
      "type": "function"
    }
  ],
  "bytecode": "0x60a0604052348015600e575f5ffd5b50604051610949380380610949833981016040819052602b91603f565b60015f556001600160a01b0316608052606a565b5f60208284031215604e575f5ffd5b81516001600160a01b03811681146063575f5ffd5b9392505050565b6080516108ba61008f5f395f8181609b0152818161018701526101e501526108ba5ff3fe608060405234801561000f575f5ffd5b506004361061004a575f3560e01c806301ffc9a71461004e5780634ae0004114610076578063ab221a7614610096578063beabacc8146100d5575b5f5ffd5b61006161005c366004610676565b6100ea565b60405190151581526020015b60405180910390f35b6100896100843660046106fd565b610182565b60405161006d91906107f8565b6100bd7f000000000000000000000000000000000000000000000000000000000000000081565b6040516001600160a01b03909116815260200161006d565b6100e86100e336600461080a565b6101e2565b005b5f7fffffffff0000000000000000000000000000000000000000000000000000000082167ff44bac8900000000000000000000000000000000000000000000000000000000148061017c57507f01ffc9a7000000000000000000000000000000000000000000000000000000007fffffffff000000000000000000000000000000000000000000000000000000008316145b92915050565b6060337f00000000000000000000000000000000000000000000000000000000000000006001600160a01b0316146101cd57604051637fd7572d60e01b815260040160405180910390fd5b6101d884848461023b565b90505b9392505050565b337f00000000000000000000000000000000000000000000000000000000000000006001600160a01b03161461022b57604051637fd7572d60e01b815260040160405180910390fd5b6102368383836102a0565b505050565b6060610245610309565b61025084848461034a565b9050836001600160a01b03167f8e5d52c2fd20a8ca33fcfe8232fb93b5c1b40ac5c050512ac0ba6033dfb02d4e84848460405161028f93929190610844565b60405180910390a26101db60015f55565b6102a8610309565b6102b38383836103ef565b816001600160a01b0316836001600160a01b03167fd1ba4ac2e2a11b5101f6cb4d978f514a155b421e8ec396d2d9abaf0bb02917ee836040516102f891815260200190565b60405180910390a361023660015f55565b60025f5403610344576040517f3ee5aeb500000000000000000000000000000000000000000000000000000000815260040160405180910390fd5b60025f55565b60608147101561037b5760405163cf47918160e01b8152476004820152602481018390526044015b60405180910390fd5b5f5f856001600160a01b03168486604051610396919061086e565b5f6040518083038185875af1925050503d805f81146103d0576040519150601f19603f3d011682016040523d82523d5f602084013e6103d5565b606091505b50915091506103e5868383610428565b9695505050505050565b73eeeeeeeeeeeeeeeeeeeeeeeeeeeeeeeeeeeeeeee6001600160a01b0384160361041d57610236828261049d565b61023683838361052f565b60608261043d57610438826105af565b6101db565b815115801561045457506001600160a01b0384163b155b15610496576040517f9996b3150000000000000000000000000000000000000000000000000000000081526001600160a01b0385166004820152602401610372565b50806101db565b804710156104c75760405163cf47918160e01b815247600482015260248101829052604401610372565b5f5f836001600160a01b0316836040515f6040518083038185875af1925050503d805f8114610511576040519150601f19603f3d011682016040523d82523d5f602084013e610516565b606091505b50915091508161052957610529816105af565b50505050565b604080516001600160a01b038416602482015260448082018490528251808303909101815260649091019091526020810180517bffffffffffffffffffffffffffffffffffffffffffffffffffffffff167fa9059cbb000000000000000000000000000000000000000000000000000000001790526102369084906105f1565b8051156105bf5780518082602001fd5b6040517fd6bda27500000000000000000000000000000000000000000000000000000000815260040160405180910390fd5b5f5f60205f8451602086015f885af180610610576040513d5f823e3d81fd5b50505f513d91508115610627578060011415610634565b6001600160a01b0384163b155b15610529576040517f5274afe70000000000000000000000000000000000000000000000000000000081526001600160a01b0385166004820152602401610372565b5f60208284031215610686575f5ffd5b81357fffffffff00000000000000000000000000000000000000000000000000000000811681146101db575f5ffd5b80356001600160a01b03811681146106cb575f5ffd5b919050565b7f4e487b71000000000000000000000000000000000000000000000000000000005f52604160045260245ffd5b5f5f5f6060848603121561070f575f5ffd5b610718846106b5565b9250602084013567ffffffffffffffff811115610733575f5ffd5b8401601f81018613610743575f5ffd5b803567ffffffffffffffff81111561075d5761075d6106d0565b604051601f8201601f19908116603f0116810167ffffffffffffffff8111828210171561078c5761078c6106d0565b6040528181528282016020018810156107a3575f5ffd5b816020840160208301375f9181016020019190915293969395505050506040919091013590565b5f81518084528060208401602086015e5f602082860101526020601f19601f83011685010191505092915050565b602081525f6101db60208301846107ca565b5f5f5f6060848603121561081c575f5ffd5b610825846106b5565b9250610833602085016106b5565b929592945050506040919091013590565b606081525f61085660608301866107ca565b84602084015282810360408401526103e581856107ca565b5f82518060208501845e5f92019182525091905056fea2646970667358221220bdcc4e4360b81855f429fad386675f368258859399f6e8728091522ae456142564736f6c634300081c0033",
  "linkReferences": {},
  "deployedLinkReferences": {},
  "immutableReferences": {
    "13087": [
      {
        "length": 32,
        "start": 155
      },
      {
        "length": 32,
        "start": 391
      },
      {
        "length": 32,
        "start": 485
      }
    ]
  },
  "inputSourceName": "project/contracts/smart-accounts/SmartAccount7702.sol",
  "buildInfoId": "c1330536164be24643c51488b01cb54b8abf1339"
}