{
  "_format": "hh3-artifact-1",
  "contractName": "Settler",
  "sourceName": "contracts/Settler.sol",
  "abi": [
    {
      "inputs": [
        {
          "internalType": "address",
          "name": "_controller",
          "type": "address"
        },
        {
          "internalType": "address",
          "name": "_owner",
          "type": "address"
        }
      ],
      "stateMutability": "nonpayable",
      "type": "constructor"
    },
    {
      "inputs": [],
      "name": "ECDSAInvalidSignature",
      "type": "error"
    },
    {
      "inputs": [
        {
          "internalType": "uint256",
          "name": "length",
          "type": "uint256"
        }
      ],
      "name": "ECDSAInvalidSignatureLength",
      "type": "error"
    },
    {
      "inputs": [
        {
          "internalType": "bytes32",
          "name": "s",
          "type": "bytes32"
        }
      ],
      "name": "ECDSAInvalidSignatureS",
      "type": "error"
    },
    {
      "inputs": [],
      "name": "FailedCall",
      "type": "error"
    },
    {
      "inputs": [
        {
          "internalType": "uint256",
          "name": "balance",
          "type": "uint256"
        },
        {
          "internalType": "uint256",
          "name": "needed",
          "type": "uint256"
        }
      ],
      "name": "InsufficientBalance",
      "type": "error"
    },
    {
      "inputs": [],
      "name": "InvalidShortString",
      "type": "error"
    },
    {
      "inputs": [
        {
          "internalType": "address",
          "name": "owner",
          "type": "address"
        }
      ],
      "name": "OwnableInvalidOwner",
      "type": "error"
    },
    {
      "inputs": [
        {
          "internalType": "address",
          "name": "account",
          "type": "address"
        }
      ],
      "name": "OwnableUnauthorizedAccount",
      "type": "error"
    },
    {
      "inputs": [],
      "name": "ReentrancyGuardReentrantCall",
      "type": "error"
    },
    {
      "inputs": [
        {
          "internalType": "address",
          "name": "token",
          "type": "address"
        }
      ],
      "name": "SafeERC20FailedOperation",
      "type": "error"
    },
    {
      "inputs": [
        {
          "internalType": "uint256",
          "name": "index",
          "type": "uint256"
        },
        {
          "internalType": "uint256",
          "name": "amountOut",
          "type": "uint256"
        },
        {
          "internalType": "uint256",
          "name": "proposed",
          "type": "uint256"
        }
      ],
      "name": "SettlerAmountOutLtProposed",
      "type": "error"
    },
    {
      "inputs": [
        {
          "internalType": "address",
          "name": "executor",
          "type": "address"
        }
      ],
      "name": "SettlerExecutorNotAllowed",
      "type": "error"
    },
    {
      "inputs": [
        {
          "internalType": "uint256",
          "name": "deadline",
          "type": "uint256"
        },
        {
          "internalType": "uint256",
          "name": "timestamp",
          "type": "uint256"
        }
      ],
      "name": "SettlerIntentPastDeadline",
      "type": "error"
    },
    {
      "inputs": [
        {
          "internalType": "uint256",
          "name": "chainId",
          "type": "uint256"
        }
      ],
      "name": "SettlerInvalidChain",
      "type": "error"
    },
    {
      "inputs": [],
      "name": "SettlerInvalidProposedAmounts",
      "type": "error"
    },
    {
      "inputs": [
        {
          "internalType": "address",
          "name": "to",
          "type": "address"
        }
      ],
      "name": "SettlerInvalidRecipient",
      "type": "error"
    },
    {
      "inputs": [
        {
          "internalType": "address",
          "name": "settler",
          "type": "address"
        }
      ],
      "name": "SettlerInvalidSettler",
      "type": "error"
    },
    {
      "inputs": [
        {
          "internalType": "address",
          "name": "user",
          "type": "address"
        },
        {
          "internalType": "bytes32",
          "name": "nonce",
          "type": "bytes32"
        }
      ],
      "name": "SettlerNonceAlreadyUsed",
      "type": "error"
    },
    {
      "inputs": [],
      "name": "SettlerNonceZero",
      "type": "error"
    },
    {
      "inputs": [
        {
          "internalType": "uint256",
          "name": "index",
          "type": "uint256"
        },
        {
          "internalType": "uint256",
          "name": "post",
          "type": "uint256"
        },
        {
          "internalType": "uint256",
          "name": "pre",
          "type": "uint256"
        }
      ],
      "name": "SettlerPostBalanceOutLtPre",
      "type": "error"
    },
    {
      "inputs": [
        {
          "internalType": "uint256",
          "name": "deadline",
          "type": "uint256"
        },
        {
          "internalType": "uint256",
          "name": "timestamp",
          "type": "uint256"
        }
      ],
      "name": "SettlerProposalPastDeadline",
      "type": "error"
    },
    {
      "inputs": [
        {
          "internalType": "address",
          "name": "signer",
          "type": "address"
        }
      ],
      "name": "SettlerProposalSignerNotAllowed",
      "type": "error"
    },
    {
      "inputs": [
        {
          "internalType": "uint256",
          "name": "index",
          "type": "uint256"
        },
        {
          "internalType": "uint256",
          "name": "proposed",
          "type": "uint256"
        },
        {
          "internalType": "uint256",
          "name": "minAmount",
          "type": "uint256"
        }
      ],
      "name": "SettlerProposedAmountLtMinAmount",
      "type": "error"
    },
    {
      "inputs": [],
      "name": "SettlerRescueFundsRecipientZero",
      "type": "error"
    },
    {
      "inputs": [
        {
          "internalType": "uint256",
          "name": "gasUsed",
          "type": "uint256"
        }
      ],
      "name": "SettlerSimulationSuccess",
      "type": "error"
    },
    {
      "inputs": [
        {
          "internalType": "uint256",
          "name": "requested",
          "type": "uint256"
        },
        {
          "internalType": "uint256",
          "name": "proposed",
          "type": "uint256"
        }
      ],
      "name": "SettlerSolverFeeTooHigh",
      "type": "error"
    },
    {
      "inputs": [
        {
          "internalType": "address",
          "name": "solver",
          "type": "address"
        }
      ],
      "name": "SettlerSolverNotAllowed",
      "type": "error"
    },
    {
      "inputs": [
        {
          "internalType": "uint8",
          "name": "op",
          "type": "uint8"
        }
      ],
      "name": "SettlerUnknownIntentType",
      "type": "error"
    },
    {
      "inputs": [
        {
          "internalType": "address",
          "name": "user",
          "type": "address"
        }
      ],
      "name": "SettlerUserNotSmartAccount",
      "type": "error"
    },
    {
      "inputs": [
        {
          "internalType": "string",
          "name": "str",
          "type": "string"
        }
      ],
      "name": "StringTooLong",
      "type": "error"
    },
    {
      "anonymous": false,
      "inputs": [],
      "name": "EIP712DomainChanged",
      "type": "event"
    },
    {
      "anonymous": false,
      "inputs": [
        {
          "indexed": true,
          "internalType": "bytes32",
          "name": "proposal",
          "type": "bytes32"
        },
        {
          "indexed": false,
          "internalType": "uint256",
          "name": "index",
          "type": "uint256"
        }
      ],
      "name": "Executed",
      "type": "event"
    },
    {
      "anonymous": false,
      "inputs": [
        {
          "indexed": true,
          "internalType": "address",
          "name": "token",
          "type": "address"
        },
        {
          "indexed": true,
          "internalType": "address",
          "name": "recipient",
          "type": "address"
        },
        {
          "indexed": false,
          "internalType": "uint256",
          "name": "amount",
          "type": "uint256"
        }
      ],
      "name": "FundsRescued",
      "type": "event"
    },
    {
      "anonymous": false,
      "inputs": [
        {
          "indexed": true,
          "internalType": "address",
          "name": "previousOwner",
          "type": "address"
        },
        {
          "indexed": true,
          "internalType": "address",
          "name": "newOwner",
          "type": "address"
        }
      ],
      "name": "OwnershipTransferred",
      "type": "event"
    },
    {
      "inputs": [],
      "name": "controller",
      "outputs": [
        {
          "internalType": "address",
          "name": "",
          "type": "address"
        }
      ],
      "stateMutability": "view",
      "type": "function"
    },
    {
      "inputs": [],
      "name": "eip712Domain",
      "outputs": [
        {
          "internalType": "bytes1",
          "name": "fields",
          "type": "bytes1"
        },
        {
          "internalType": "string",
          "name": "name",
          "type": "string"
        },
        {
          "internalType": "string",
          "name": "version",
          "type": "string"
        },
        {
          "internalType": "uint256",
          "name": "chainId",
          "type": "uint256"
        },
        {
          "internalType": "address",
          "name": "verifyingContract",
          "type": "address"
        },
        {
          "internalType": "bytes32",
          "name": "salt",
          "type": "bytes32"
        },
        {
          "internalType": "uint256[]",
          "name": "extensions",
          "type": "uint256[]"
        }
      ],
      "stateMutability": "view",
      "type": "function"
    },
    {
      "inputs": [
        {
          "components": [
            {
              "components": [
                {
                  "internalType": "enum OpType",
                  "name": "op",
                  "type": "uint8"
                },
                {
                  "internalType": "address",
                  "name": "user",
                  "type": "address"
                },
                {
                  "internalType": "address",
                  "name": "settler",
                  "type": "address"
                },
                {
                  "internalType": "bytes32",
                  "name": "nonce",
                  "type": "bytes32"
                },
                {
                  "internalType": "uint256",
                  "name": "deadline",
                  "type": "uint256"
                },
                {
                  "internalType": "bytes",
                  "name": "data",
                  "type": "bytes"
                }
              ],
              "internalType": "struct Intent",
              "name": "intent",
              "type": "tuple"
            },
            {
              "components": [
                {
                  "internalType": "uint256",
                  "name": "deadline",
                  "type": "uint256"
                },
                {
                  "internalType": "bytes",
                  "name": "data",
                  "type": "bytes"
                }
              ],
              "internalType": "struct Proposal",
              "name": "proposal",
              "type": "tuple"
            },
            {
              "internalType": "bytes",
              "name": "signature",
              "type": "bytes"
            }
          ],
          "internalType": "struct Execution[]",
          "name": "executions",
          "type": "tuple[]"
        }
      ],
      "name": "execute",
      "outputs": [],
      "stateMutability": "nonpayable",
      "type": "function"
    },
    {
      "inputs": [
        {
          "components": [
            {
              "internalType": "enum OpType",
              "name": "op",
              "type": "uint8"
            },
            {
              "internalType": "address",
              "name": "user",
              "type": "address"
            },
            {
              "internalType": "address",
              "name": "settler",
              "type": "address"
            },
            {
              "internalType": "bytes32",
              "name": "nonce",
              "type": "bytes32"
            },
            {
              "internalType": "uint256",
              "name": "deadline",
              "type": "uint256"
            },
            {
              "internalType": "bytes",
              "name": "data",
              "type": "bytes"
            }
          ],
          "internalType": "struct Intent",
          "name": "intent",
          "type": "tuple"
        }
      ],
      "name": "getIntentHash",
      "outputs": [
        {
          "internalType": "bytes32",
          "name": "",
          "type": "bytes32"
        }
      ],
      "stateMutability": "pure",
      "type": "function"
    },
    {
      "inputs": [
        {
          "components": [
            {
              "internalType": "uint256",
              "name": "deadline",
              "type": "uint256"
            },
            {
              "internalType": "bytes",
              "name": "data",
              "type": "bytes"
            }
          ],
          "internalType": "struct Proposal",
          "name": "proposal",
          "type": "tuple"
        },
        {
          "components": [
            {
              "internalType": "enum OpType",
              "name": "op",
              "type": "uint8"
            },
            {
              "internalType": "address",
              "name": "user",
              "type": "address"
            },
            {
              "internalType": "address",
              "name": "settler",
              "type": "address"
            },
            {
              "internalType": "bytes32",
              "name": "nonce",
              "type": "bytes32"
            },
            {
              "internalType": "uint256",
              "name": "deadline",
              "type": "uint256"
            },
            {
              "internalType": "bytes",
              "name": "data",
              "type": "bytes"
            }
          ],
          "internalType": "struct Intent",
          "name": "intent",
          "type": "tuple"
        },
        {
          "internalType": "address",
          "name": "solver",
          "type": "address"
        }
      ],
      "name": "getProposalHash",
      "outputs": [
        {
          "internalType": "bytes32",
          "name": "",
          "type": "bytes32"
        }
      ],
      "stateMutability": "pure",
      "type": "function"
    },
    {
      "inputs": [
        {
          "internalType": "address",
          "name": "",
          "type": "address"
        },
        {
          "internalType": "bytes32",
          "name": "",
          "type": "bytes32"
        }
      ],
      "name": "isNonceUsed",
      "outputs": [
        {
          "internalType": "bool",
          "name": "",
          "type": "bool"
        }
      ],
      "stateMutability": "view",
      "type": "function"
    },
    {
      "inputs": [],
      "name": "owner",
      "outputs": [
        {
          "internalType": "address",
          "name": "",
          "type": "address"
        }
      ],
      "stateMutability": "view",
      "type": "function"
    },
    {
      "inputs": [],
      "name": "renounceOwnership",
      "outputs": [],
      "stateMutability": "nonpayable",
      "type": "function"
    },
    {
      "inputs": [
        {
          "internalType": "address",
          "name": "token",
          "type": "address"
        },
        {
          "internalType": "address",
          "name": "recipient",
          "type": "address"
        },
        {
          "internalType": "uint256",
          "name": "amount",
          "type": "uint256"
        }
      ],
      "name": "rescueFunds",
      "outputs": [],
      "stateMutability": "nonpayable",
      "type": "function"
    },
    {
      "inputs": [
        {
          "components": [
            {
              "components": [
                {
                  "internalType": "enum OpType",
                  "name": "op",
                  "type": "uint8"
                },
                {
                  "internalType": "address",
                  "name": "user",
                  "type": "address"
                },
                {
                  "internalType": "address",
                  "name": "settler",
                  "type": "address"
                },
                {
                  "internalType": "bytes32",
                  "name": "nonce",
                  "type": "bytes32"
                },
                {
                  "internalType": "uint256",
                  "name": "deadline",
                  "type": "uint256"
                },
                {
                  "internalType": "bytes",
                  "name": "data",
                  "type": "bytes"
                }
              ],
              "internalType": "struct Intent",
              "name": "intent",
              "type": "tuple"
            },
            {
              "components": [
                {
                  "internalType": "uint256",
                  "name": "deadline",
                  "type": "uint256"
                },
                {
                  "internalType": "bytes",
                  "name": "data",
                  "type": "bytes"
                }
              ],
              "internalType": "struct Proposal",
              "name": "proposal",
              "type": "tuple"
            },
            {
              "internalType": "bytes",
              "name": "signature",
              "type": "bytes"
            }
          ],
          "internalType": "struct Execution[]",
          "name": "executions",
          "type": "tuple[]"
        }
      ],
      "name": "simulate",
      "outputs": [],
      "stateMutability": "nonpayable",
      "type": "function"
    },
    {
      "inputs": [
        {
          "internalType": "address",
          "name": "newOwner",
          "type": "address"
        }
      ],
      "name": "transferOwnership",
      "outputs": [],
      "stateMutability": "nonpayable",
      "type": "function"
    },
    {
      "stateMutability": "payable",
      "type": "receive"
    }
  ],
  "bytecode": "0x610180604052348015610010575f5ffd5b5060405161326a38038061326a83398101604081905261002f91610254565b604080518082018252601681527f4d696d69632050726f746f636f6c20536574746c657200000000000000000000602080830191909152825180840190935260018352603160f81b9083015290826001600160a01b0381166100ab57604051631e4fbdf760e01b81525f60048201526024015b60405180910390fd5b6100b48161017b565b50600180556100c48260026101ca565b610120526100d38160036101ca565b61014052815160208084019190912060e052815190820120610100524660a05261015f60e05161010051604080517f8b73c3c69bb8fe3d512ecc4cf759cc79239f7b179b0ffacaa9a75d522b39400f60208201529081019290925260608201524660808201523060a08201525f9060c00160405160208183030381529060405280519060200120905090565b60805250503060c052506001600160a01b03166101605261042f565b5f80546001600160a01b038381166001600160a01b0319831681178455604051919092169283917f8be0079c531659141344cd1fd0a4f28419497f9722a3daafe3b4186f6b6457e09190a35050565b5f6020835110156101e5576101de836101fc565b90506101f6565b816101f0848261031d565b5060ff90505b92915050565b5f5f829050601f81511115610226578260405163305a27a960e01b81526004016100a291906103d7565b80516102318261040c565b179392505050565b80516001600160a01b038116811461024f575f5ffd5b919050565b5f5f60408385031215610265575f5ffd5b61026e83610239565b915061027c60208401610239565b90509250929050565b634e487b7160e01b5f52604160045260245ffd5b600181811c908216806102ad57607f821691505b6020821081036102cb57634e487b7160e01b5f52602260045260245ffd5b50919050565b601f82111561031857805f5260205f20601f840160051c810160208510156102f65750805b601f840160051c820191505b81811015610315575f8155600101610302565b50505b505050565b81516001600160401b0381111561033657610336610285565b61034a816103448454610299565b846102d1565b6020601f82116001811461037c575f83156103655750848201515b5f19600385901b1c1916600184901b178455610315565b5f84815260208120601f198516915b828110156103ab578785015182556020948501946001909201910161038b565b50848210156103c857868401515f19600387901b60f8161c191681555b50505050600190811b01905550565b602081525f82518060208401528060208501604085015e5f604082850101526040601f19601f83011684010191505092915050565b805160208083015191908110156102cb575f1960209190910360031b1b16919050565b60805160a05160c05160e05161010051610120516101405161016051612dc46104a65f395f818161025a015281816102a00152818161047801528181610c3a01526115df01525f61091401525f6108e201525f611c2101525f611bf901525f611b5401525f611b7e01525f611ba80152612dc45ff3fe6080604052600436106100bb575f3560e01c806384b0196e11610071578063d8e7e8ba1161004c578063d8e7e8ba1461020b578063f2fde38b1461022a578063f77c479114610249575f5ffd5b806384b0196e146101875780638da5cb5b146101ae578063c33064c9146101de575f5ffd5b80636ccae054116100a15780636ccae05414610135578063715018a61461015457806378eea50114610168575f5ffd5b80630685c03a146100c657806330fac70914610114575f5ffd5b366100c257005b5f5ffd5b3480156100d1575f5ffd5b506100ff6100e036600461203c565b600460209081525f928352604080842090915290825290205460ff1681565b60405190151581526020015b60405180910390f35b34801561011f575f5ffd5b5061013361012e3660046122b9565b61027c565b005b348015610140575f5ffd5b5061013361014f3660046123ff565b61038b565b34801561015f575f5ffd5b50610133610441565b348015610173575f5ffd5b506101336101823660046122b9565b610454565b348015610192575f5ffd5b5061019b610519565b60405161010b979695949392919061246b565b3480156101b9575f5ffd5b505f546001600160a01b03165b6040516001600160a01b03909116815260200161010b565b3480156101e9575f5ffd5b506101fd6101f836600461251d565b610577565b60405190815260200161010b565b348015610216575f5ffd5b506101fd61022536600461254f565b610587565b348015610235575f5ffd5b506101336102443660046125c7565b61059b565b348015610254575f5ffd5b506101c67f000000000000000000000000000000000000000000000000000000000000000081565b5f3360405163d9d8edb960e01b81526001600160a01b0380831660048301529192507f00000000000000000000000000000000000000000000000000000000000000009091169063d9d8edb990602401602060405180830381865afa1580156102e7573d5f5f3e3d5ffd5b505050506040513d601f19601f8201168201806040525081019061030b91906125e2565b6103385760405163a7ac57a960e01b81526001600160a01b03821660048201526024015b60405180910390fd5b5f5a90506103478360016105f1565b5f5a6103539083612601565b9050806040517fa523ba4900000000000000000000000000000000000000000000000000000000815260040161032f91815260200190565b6103936107b3565b61039b6107f8565b6001600160a01b0382166103db576040517f54328a0900000000000000000000000000000000000000000000000000000000815260040160405180910390fd5b6103e683838361083b565b816001600160a01b0316836001600160a01b03167fed2837b80b3489773c5f1ed30dd2884b4c90dbf7b87428ea03c49b24ef59a8058360405161042b91815260200190565b60405180910390a361043c60018055565b505050565b6104496107b3565b6104525f610874565b565b5f3360405163d9d8edb960e01b81526001600160a01b0380831660048301529192507f00000000000000000000000000000000000000000000000000000000000000009091169063d9d8edb990602401602060405180830381865afa1580156104bf573d5f5f3e3d5ffd5b505050506040513d601f19601f820116820180604052508101906104e391906125e2565b61050b5760405163a7ac57a960e01b81526001600160a01b038216600482015260240161032f565b610515825f6105f1565b5050565b5f6060805f5f5f606061052a6108db565b61053261090d565b604080515f808252602082019092527f0f000000000000000000000000000000000000000000000000000000000000009b939a50919850469750309650945092509050565b5f6105818261093a565b92915050565b5f6105938484846109b3565b949350505050565b6105a36107b3565b6001600160a01b0381166105e5576040517f1e4fbdf70000000000000000000000000000000000000000000000000000000081525f600482015260240161032f565b6105ee81610874565b50565b6105f96107f8565b5f5b82518110156107a9575f83828151811061061757610617612620565b60200260200101515f015190505f84838151811061063757610637612620565b60200260200101516020015190505f85848151811061065857610658612620565b602002602001015160400151905061067283838388610a3c565b6020808401516001600160a01b03165f90815260048252604080822060608701518352909252908120805460ff19166001179055835160028111156106b9576106b9612634565b036106cd576106c88383610cfc565b610760565b6001835160028111156106e2576106e2612634565b036106f1576106c88383610f86565b60028351600281111561070657610706612634565b03610715576106c88383611048565b8251600281111561072857610728612634565b6040517f7cdbcbf100000000000000000000000000000000000000000000000000000000815260ff909116600482015260240161032f565b61076b8284336109b3565b6040518581527f3a7a2319bce6d060c98aa49682d12788f621b7e2e68701a9a082398b39da0f979060200160405180910390a25050506001016105fb565b5061051560018055565b5f546001600160a01b03163314610452576040517f118cdaa700000000000000000000000000000000000000000000000000000000815233600482015260240161032f565b600260015403610834576040517f3ee5aeb500000000000000000000000000000000000000000000000000000000815260040160405180910390fd5b6002600155565b73eeeeeeeeeeeeeeeeeeeeeeeeeeeeeeeeeeeeeeee6001600160a01b038416036108695761043c82826111e8565b61043c838383611293565b5f80546001600160a01b038381167fffffffffffffffffffffffff0000000000000000000000000000000000000000831681178455604051919092169283917f8be0079c531659141344cd1fd0a4f28419497f9722a3daafe3b4186f6b6457e09190a35050565b60606109087f00000000000000000000000000000000000000000000000000000000000000006002611307565b905090565b60606109087f00000000000000000000000000000000000000000000000000000000000000006003611307565b5f7f601d165e97fddf25117988dc9d9361693f4785b210db8df1c9953ce55e0e8c61825f015183602001518460400151856060015186608001518760a00151805190602001206040516020016109969796959493929190612668565b604051602081830303815290604052805190602001209050919050565b5f7fa6063c8e8ff6c4ac166085af95dc7972bba1ec73c4babc5e219cc619a89f6eec6109de8461093a565b85516020808801518051908201206040805192830195909552938101929092526001600160a01b0385166060830152608082015260a081019190915260c0016040516020818303038152906040528051906020012090509392505050565b60408401516001600160a01b03163014610a935760408085015190517f30b078bf0000000000000000000000000000000000000000000000000000000081526001600160a01b03909116600482015260240161032f565b6060840151610ace576040517f58e8d18100000000000000000000000000000000000000000000000000000000815260040160405180910390fd5b6020808501516001600160a01b03165f90815260048252604080822060608801518352909252205460ff1615610b4b57602084015160608501516040517f9756f94d0000000000000000000000000000000000000000000000000000000081526001600160a01b039092166004830152602482015260440161032f565b42846080015111610b975760808401516040517f95d3dc22000000000000000000000000000000000000000000000000000000008152600481019190915242602482015260440161032f565b82514210801590610be05783516040517f2c39717b000000000000000000000000000000000000000000000000000000008152600481019190915242602482015260440161032f565b5f610bfd610bf7610bf28789336109b3565b6113b1565b856113f8565b6040517f163eed9e0000000000000000000000000000000000000000000000000000000081526001600160a01b0380831660048301529192505f917f0000000000000000000000000000000000000000000000000000000000000000169063163eed9e90602401602060405180830381865afa158015610c7f573d5f5f3e3d5ffd5b505050506040513d601f19601f82011682018060405250810190610ca391906125e2565b158015610cae575083155b90508015610cf3576040517f100158a80000000000000000000000000000000000000000000000000000000081526001600160a01b038316600482015260240161032f565b50505050505050565b5f8260a00151806020019051810190610d159190612771565b90505f8260200151806020019051810190610d3091906128ee565b9050610d3c8282611420565b8151469003610dac575f610d538560200151611691565b90505f5b836040015151811015610da9575f84604001518281518110610d7b57610d7b612620565b60200260200101519050610da0815f01518860200151865f01518460200151876116bc565b50600101610d57565b50505b5f610db68361175a565b82516040517f3e93956c0000000000000000000000000000000000000000000000000000000081529192506001600160a01b031690633e93956c90610e019088908890600401612a11565b5f604051808303815f87803b158015610e18575f5ffd5b505af1158015610e2a573d5f5f3e3d5ffd5b5050505046836020015103610f7f575f5b836060015151811015610f7d575f84606001518281518110610e5f57610e5f612620565b602002602001015190505f610e77825f015130611816565b90505f848481518110610e8c57610e8c612620565b6020026020010151905080821015610ee1576040517ff5ad5ab700000000000000000000000000000000000000000000000000000000815260048101859052602481018390526044810182905260640161032f565b5f610eec8284612601565b90505f87604001518681518110610f0557610f05612620565b6020026020010151905080821015610f5a576040517ff0a43aa700000000000000000000000000000000000000000000000000000000815260048101879052602481018390526044810182905260640161032f565b610f6c855f015186604001518461083b565b505060019093019250610e3b915050565b505b5050505050565b5f8260a00151806020019051810190610f9f9190612a95565b90505f8260200151806020019051810190610fba9190612b7d565b9050610fc682826118cd565b5f610fd48560200151611691565b90505f5b83602001515181101561102b575f84602001518281518110610ffc57610ffc612620565b60200260200101519050611022815f0151886020015183604001518460200151876116bc565b50600101610fd8565b50610f7f836040015186602001516110403390565b8551856116bc565b5f8260a001518060200190518101906110619190612b97565b90505f826020015180602001905181019061107c9190612b7d565b905061108d828286602001516119a1565b60208401515f5b836020015151811015611149575f846020015182815181106110b8576110b8612620565b60200260200101519050826001600160a01b0316634ae00041825f0151836020015184604001516040518463ffffffff1660e01b81526004016110fd93929190612ce2565b5f604051808303815f875af1158015611118573d5f5f3e3d5ffd5b505050506040513d5f823e601f3d908101601f1916820160405261113f9190810190612d13565b5050600101611094565b50806001600160a01b031663beabacc884604001516111653390565b855160405160e085901b7fffffffff000000000000000000000000000000000000000000000000000000001681526001600160a01b03938416600482015292909116602483015260448201526064015f604051808303815f87803b1580156111cb575f5ffd5b505af11580156111dd573d5f5f3e3d5ffd5b505050505050505050565b8047101561122b576040517fcf4791810000000000000000000000000000000000000000000000000000000081524760048201526024810182905260440161032f565b5f5f836001600160a01b0316836040515f6040518083038185875af1925050503d805f8114611275576040519150601f19603f3d011682016040523d82523d5f602084013e61127a565b606091505b50915091508161128d5761128d81611a44565b50505050565b6040516001600160a01b0383811660248301526044820183905261043c91859182169063a9059cbb906064015b604051602081830303815290604052915060e01b6020820180517bffffffffffffffffffffffffffffffffffffffffffffffffffffffff8381831617835250505050611a86565b606060ff83146113215761131a83611b0b565b9050610581565b81805461132d90612d45565b80601f016020809104026020016040519081016040528092919081815260200182805461135990612d45565b80156113a45780601f1061137b576101008083540402835291602001916113a4565b820191905f5260205f20905b81548152906001019060200180831161138757829003601f168201915b5050505050905092915050565b5f6105816113bd611b48565b836040517f19010000000000000000000000000000000000000000000000000000000000008152600281019290925260228201526042902090565b5f5f5f5f6114068686611c71565b9250925092506114168282611cba565b5090949350505050565b81515f904614801590611437575046836020015114155b9050801561145a5760405163308a43dd60e11b815246600482015260240161032f565b8260600151518260400151511461149d576040517f1816c20200000000000000000000000000000000000000000000000000000000815260040160405180910390fd5b5f5b836060015151811015611596575f846060015182815181106114c3576114c3612620565b602002602001015190505f81604001519050306001600160a01b0316816001600160a01b03160361151257604051630b9ab59960e01b81526001600160a01b038216600482015260240161032f565b5f826020015190505f8660400151858151811061153157611531612620565b6020026020010151905081811015611586576040517f1fef5f3300000000000000000000000000000000000000000000000000000000815260048101869052602481018290526044810183905260640161032f565b50506001909201915061149f9050565b50602083015183511461043c5781516040517f7d7011020000000000000000000000000000000000000000000000000000000081526001600160a01b0391821660048201525f917f00000000000000000000000000000000000000000000000000000000000000001690637d70110290602401602060405180830381865afa158015611624573d5f5f3e3d5ffd5b505050506040513d601f19601f8201168201806040525081019061164891906125e2565b159050801561128d5782516040517fdb489af40000000000000000000000000000000000000000000000000000000081526001600160a01b03909116600482015260240161032f565b5f610581827ff44bac8900000000000000000000000000000000000000000000000000000000611dbd565b8015611745576040517fbeabacc80000000000000000000000000000000000000000000000000000000081526001600160a01b03868116600483015284811660248301526044820184905285169063beabacc8906064015f604051808303815f87803b15801561172a575f5ffd5b505af115801561173c573d5f5f3e3d5ffd5b50505050610f7f565b610f7f6001600160a01b038616858585611ddf565b606081606001515167ffffffffffffffff81111561177a5761177a612066565b6040519080825280602002602001820160405280156117a3578160200160208202803683370190505b50905046826020015103611811575f5b82606001515181101561180f576117ea836060015182815181106117d9576117d9612620565b60200260200101515f015130611816565b8282815181106117fc576117fc612620565b60209081029190910101526001016117b3565b505b919050565b5f73eeeeeeeeeeeeeeeeeeeeeeeeeeeeeeeeeeeeeeee6001600160a01b0384160361184c57506001600160a01b03811631610581565b6040517f70a082310000000000000000000000000000000000000000000000000000000081526001600160a01b0383811660048301528416906370a0823190602401602060405180830381865afa1580156118a9573d5f5f3e3d5ffd5b505050506040513d601f19601f8201168201806040525081019061131a9190612d77565b815146146118f05760405163308a43dd60e11b815246600482015260240161032f565b5f5b82602001515181101561196a575f8360200151828151811061191657611916612620565b6020026020010151604001519050306001600160a01b0316816001600160a01b03160361196157604051630b9ab59960e01b81526001600160a01b038216600482015260240161032f565b506001016118f2565b5080516060830151101561051557606082015181516040516347fd30fd60e11b81526004810192909252602482015260440161032f565b825146146119c45760405163308a43dd60e11b815246600482015260240161032f565b6119cd81611691565b611a0e576040517fcaec9bac0000000000000000000000000000000000000000000000000000000081526001600160a01b038216600482015260240161032f565b81516060840151101561043c57606083015182516040516347fd30fd60e11b81526004810192909252602482015260440161032f565b805115611a545780518082602001fd5b6040517fd6bda27500000000000000000000000000000000000000000000000000000000815260040160405180910390fd5b5f5f60205f8451602086015f885af180611aa5576040513d5f823e3d81fd5b50505f513d91508115611abc578060011415611ac9565b6001600160a01b0384163b155b1561128d576040517f5274afe70000000000000000000000000000000000000000000000000000000081526001600160a01b038516600482015260240161032f565b60605f611b1783611e18565b6040805160208082528183019092529192505f91906020820181803683375050509182525060208101929092525090565b5f306001600160a01b037f000000000000000000000000000000000000000000000000000000000000000016148015611ba057507f000000000000000000000000000000000000000000000000000000000000000046145b15611bca57507f000000000000000000000000000000000000000000000000000000000000000090565b610908604080517f8b73c3c69bb8fe3d512ecc4cf759cc79239f7b179b0ffacaa9a75d522b39400f60208201527f0000000000000000000000000000000000000000000000000000000000000000918101919091527f000000000000000000000000000000000000000000000000000000000000000060608201524660808201523060a08201525f9060c00160405160208183030381529060405280519060200120905090565b5f5f5f8351604103611ca8576020840151604085015160608601515f1a611c9a88828585611e58565b955095509550505050611cb3565b505081515f91506002905b9250925092565b5f826003811115611ccd57611ccd612634565b03611cd6575050565b6001826003811115611cea57611cea612634565b03611d21576040517ff645eedf00000000000000000000000000000000000000000000000000000000815260040160405180910390fd5b6002826003811115611d3557611d35612634565b03611d6f576040517ffce698f70000000000000000000000000000000000000000000000000000000081526004810182905260240161032f565b6003826003811115611d8357611d83612634565b03610515576040517fd78bce0c0000000000000000000000000000000000000000000000000000000081526004810182905260240161032f565b5f611dc783611f20565b8015611dd85750611dd88383611f6a565b9392505050565b6040516001600160a01b03848116602483015283811660448301526064820183905261128d9186918216906323b872dd906084016112c0565b5f60ff8216601f811115610581576040517fb3512b0c00000000000000000000000000000000000000000000000000000000815260040160405180910390fd5b5f80807f7fffffffffffffffffffffffffffffff5d576e7357a4501ddfe92f46681b20a0841115611e9157505f91506003905082611f16565b604080515f808252602082018084528a905260ff891692820192909252606081018790526080810186905260019060a0016020604051602081039080840390855afa158015611ee2573d5f5f3e3d5ffd5b5050604051601f1901519150506001600160a01b038116611f0d57505f925060019150829050611f16565b92505f91508190505b9450945094915050565b5f611f32826301ffc9a760e01b611f6a565b80156105815750611f63827fffffffff00000000000000000000000000000000000000000000000000000000611f6a565b1592915050565b6040517fffffffff00000000000000000000000000000000000000000000000000000000821660248201525f90819060440160408051601f19818403018152919052602080820180517bffffffffffffffffffffffffffffffffffffffffffffffffffffffff166301ffc9a760e01b17815282519293505f9283928392909183918a617530fa92503d91505f519050828015612007575060208210155b801561201257505f81115b979650505050505050565b6001600160a01b03811681146105ee575f5ffd5b80356118118161201d565b5f5f6040838503121561204d575f5ffd5b82356120588161201d565b946020939093013593505050565b634e487b7160e01b5f52604160045260245ffd5b60405160c0810167ffffffffffffffff8111828210171561209d5761209d612066565b60405290565b6040805190810167ffffffffffffffff8111828210171561209d5761209d612066565b6040516060810167ffffffffffffffff8111828210171561209d5761209d612066565b6040516080810167ffffffffffffffff8111828210171561209d5761209d612066565b604051601f8201601f1916810167ffffffffffffffff8111828210171561213557612135612066565b604052919050565b5f67ffffffffffffffff82111561215657612156612066565b5060051b60200190565b5f67ffffffffffffffff82111561217957612179612066565b50601f01601f191660200190565b5f82601f830112612196575f5ffd5b81356121a96121a482612160565b61210c565b8181528460208386010111156121bd575f5ffd5b816020850160208301375f918101602001919091529392505050565b5f60c082840312156121e9575f5ffd5b6121f161207a565b9050813560038110612201575f5ffd5b815261220f60208301612031565b602082015261222060408301612031565b6040820152606082810135908201526080808301359082015260a082013567ffffffffffffffff811115612252575f5ffd5b61225e84828501612187565b60a08301525092915050565b5f6040828403121561227a575f5ffd5b6122826120a3565b823581529050602082013567ffffffffffffffff8111156122a1575f5ffd5b6122ad84828501612187565b60208301525092915050565b5f602082840312156122c9575f5ffd5b813567ffffffffffffffff8111156122df575f5ffd5b8201601f810184136122ef575f5ffd5b80356122fd6121a48261213d565b8082825260208201915060208360051b85010192508683111561231e575f5ffd5b602084015b838110156123f457803567ffffffffffffffff811115612341575f5ffd5b85016060818a03601f19011215612356575f5ffd5b61235e6120c6565b602082013567ffffffffffffffff811115612377575f5ffd5b6123868b6020838601016121d9565b825250604082013567ffffffffffffffff8111156123a2575f5ffd5b6123b18b60208386010161226a565b602083015250606082013567ffffffffffffffff8111156123d0575f5ffd5b6123df8b602083860101612187565b60408301525084525060209283019201612323565b509695505050505050565b5f5f5f60608486031215612411575f5ffd5b833561241c8161201d565b9250602084013561242c8161201d565b929592945050506040919091013590565b5f81518084528060208401602086015e5f602082860101526020601f19601f83011685010191505092915050565b7fff000000000000000000000000000000000000000000000000000000000000008816815260e060208201525f6124a560e083018961243d565b82810360408401526124b7818961243d565b606084018890526001600160a01b038716608085015260a0840186905283810360c0850152845180825260208087019350909101905f5b8181101561250c5783518352602093840193909201916001016124ee565b50909b9a5050505050505050505050565b5f6020828403121561252d575f5ffd5b813567ffffffffffffffff811115612543575f5ffd5b610593848285016121d9565b5f5f5f60608486031215612561575f5ffd5b833567ffffffffffffffff811115612577575f5ffd5b6125838682870161226a565b935050602084013567ffffffffffffffff81111561259f575f5ffd5b6125ab868287016121d9565b92505060408401356125bc8161201d565b809150509250925092565b5f602082840312156125d7575f5ffd5b8135611dd88161201d565b5f602082840312156125f2575f5ffd5b81518015158114611dd8575f5ffd5b8181038181111561058157634e487b7160e01b5f52601160045260245ffd5b634e487b7160e01b5f52603260045260245ffd5b634e487b7160e01b5f52602160045260245ffd5b6003811061266457634e487b7160e01b5f52602160045260245ffd5b9052565b87815260e0810161267c6020830189612648565b6001600160a01b03871660408301526001600160a01b03861660608301528460808301528360a08301528260c083015298975050505050505050565b80516118118161201d565b5f6126d06121a48461213d565b838152905060208101606084028301858111156126eb575f5ffd5b835b81811015612749575f60608289031215612705575f5ffd5b61270d6120c6565b9050815161271a8161201d565b81526020828101519082015260408201516127348161201d565b604082015283526020909201916060016126ed565b5050509392505050565b5f82601f830112612762575f5ffd5b611dd8838351602085016126c3565b5f60208284031215612781575f5ffd5b815167ffffffffffffffff811115612797575f5ffd5b8201608081850312156127a8575f5ffd5b6127b06120e9565b8151815260208083015190820152604082015167ffffffffffffffff8111156127d7575f5ffd5b8201601f810186136127e7575f5ffd5b80516127f56121a48261213d565b8082825260208201915060208360061b850101925088831115612816575f5ffd5b6020840193505b82841015612866576040848a031215612834575f5ffd5b61283c6120a3565b84516128478161201d565b815260208581015181830152908352604090940193919091019061281d565b6040850152505050606082015167ffffffffffffffff811115612887575f5ffd5b61289386828501612753565b606083015250949350505050565b5f82601f8301126128b0575f5ffd5b81516128be6121a482612160565b8181528460208386010111156128d2575f5ffd5b8160208501602083015e5f918101602001919091529392505050565b5f602082840312156128fe575f5ffd5b815167ffffffffffffffff811115612914575f5ffd5b820160608185031215612925575f5ffd5b61292d6120c6565b81516129388161201d565b8152602082015167ffffffffffffffff811115612953575f5ffd5b61295f868285016128a1565b602083015250604082015167ffffffffffffffff81111561297e575f5ffd5b80830192505084601f830112612992575f5ffd5b81516129a06121a48261213d565b8082825260208201915060208360051b8601019250878311156129c1575f5ffd5b6020850194505b828510156129e35784518252602094850194909101906129c8565b6040840152509095945050505050565b805182525f602082015160406020850152610593604085018261243d565b60408152612a23604082018451612648565b6001600160a01b0360208401511660608201526001600160a01b036040840151166080820152606083015160a0820152608083015160c08201525f60a084015160c060e0840152612a7861010084018261243d565b90508281036020840152612a8c81856129f3565b95945050505050565b5f60208284031215612aa5575f5ffd5b815167ffffffffffffffff811115612abb575f5ffd5b820160808185031215612acc575f5ffd5b612ad46120e9565b81518152602082015167ffffffffffffffff811115612af1575f5ffd5b8201601f81018613612b01575f5ffd5b612b10868251602084016126c3565b6020830152506040820151612b248161201d565b6040820152606091820151918101919091529392505050565b5f60208284031215612b4d575f5ffd5b6040516020810167ffffffffffffffff81118282101715612b7057612b70612066565b6040529151825250919050565b5f60208284031215612b8d575f5ffd5b611dd88383612b3d565b5f60208284031215612ba7575f5ffd5b815167ffffffffffffffff811115612bbd575f5ffd5b820160808185031215612bce575f5ffd5b612bd66120e9565b81518152602082015167ffffffffffffffff811115612bf3575f5ffd5b8201601f81018613612c03575f5ffd5b8051612c116121a48261213d565b8082825260208201915060208360051b850101925088831115612c32575f5ffd5b602084015b83811015612ccc57805167ffffffffffffffff811115612c55575f5ffd5b85016060818c03601f19011215612c6a575f5ffd5b612c726120c6565b6020820151612c808161201d565b8152604082015167ffffffffffffffff811115612c9b575f5ffd5b612caa8d6020838601016128a1565b6020838101919091526060939093015160408301525084529283019201612c37565b50602085015250612b24915050604083016126b8565b6001600160a01b0384168152606060208201525f612d03606083018561243d565b9050826040830152949350505050565b5f60208284031215612d23575f5ffd5b815167ffffffffffffffff811115612d39575f5ffd5b610593848285016128a1565b600181811c90821680612d5957607f821691505b60208210810361180f57634e487b7160e01b5f52602260045260245ffd5b5f60208284031215612d87575f5ffd5b505191905056fea2646970667358221220fb1e3d766c0b477d4459f6ce1dc6f67fa62f627e8dda0f2198945f1517be8e0b64736f6c634300081c0033",
  "linkReferences": {},
  "deployedLinkReferences": {},
  "immutableReferences": {
    "4041": [
      {
        "length": 32,
        "start": 7080
      }
    ],
    "4043": [
      {
        "length": 32,
        "start": 7038
      }
    ],
    "4045": [
      {
        "length": 32,
        "start": 6996
      }
    ],
    "4047": [
      {
        "length": 32,
        "start": 7161
      }
    ],
    "4049": [
      {
        "length": 32,
        "start": 7201
      }
    ],
    "4052": [
      {
        "length": 32,
        "start": 2274
      }
    ],
    "4055": [
      {
        "length": 32,
        "start": 2324
      }
    ],
    "8622": [
      {
        "length": 32,
        "start": 602
      },
      {
        "length": 32,
        "start": 672
      },
      {
        "length": 32,
        "start": 1144
      },
      {
        "length": 32,
        "start": 3130
      },
      {
        "length": 32,
        "start": 5599
      }
    ]
  },
  "inputSourceName": "project/contracts/Settler.sol",
  "buildInfoId": "529d9bfb0e23f1cc1e37008f681fd45d53e5196b"
}