{
  "_format": "hh3-artifact-1",
  "contractName": "Settler",
  "sourceName": "contracts/Settler.sol",
  "abi": [
    {
      "inputs": [],
      "stateMutability": "nonpayable",
      "type": "constructor"
    },
    {
      "inputs": [
        {
          "internalType": "address",
          "name": "target",
          "type": "address"
        }
      ],
      "name": "AddressEmptyCode",
      "type": "error"
    },
    {
      "inputs": [],
      "name": "ECDSAInvalidSignature",
      "type": "error"
    },
    {
      "inputs": [
        {
          "internalType": "uint256",
          "name": "length",
          "type": "uint256"
        }
      ],
      "name": "ECDSAInvalidSignatureLength",
      "type": "error"
    },
    {
      "inputs": [
        {
          "internalType": "bytes32",
          "name": "s",
          "type": "bytes32"
        }
      ],
      "name": "ECDSAInvalidSignatureS",
      "type": "error"
    },
    {
      "inputs": [],
      "name": "FailedCall",
      "type": "error"
    },
    {
      "inputs": [
        {
          "internalType": "uint256",
          "name": "balance",
          "type": "uint256"
        },
        {
          "internalType": "uint256",
          "name": "needed",
          "type": "uint256"
        }
      ],
      "name": "InsufficientBalance",
      "type": "error"
    },
    {
      "inputs": [],
      "name": "InvalidInitialization",
      "type": "error"
    },
    {
      "inputs": [],
      "name": "NotInitializing",
      "type": "error"
    },
    {
      "inputs": [
        {
          "internalType": "address",
          "name": "owner",
          "type": "address"
        }
      ],
      "name": "OwnableInvalidOwner",
      "type": "error"
    },
    {
      "inputs": [
        {
          "internalType": "address",
          "name": "account",
          "type": "address"
        }
      ],
      "name": "OwnableUnauthorizedAccount",
      "type": "error"
    },
    {
      "inputs": [],
      "name": "ReentrancyGuardReentrantCall",
      "type": "error"
    },
    {
      "inputs": [
        {
          "internalType": "address",
          "name": "token",
          "type": "address"
        }
      ],
      "name": "SafeERC20FailedOperation",
      "type": "error"
    },
    {
      "inputs": [
        {
          "internalType": "uint256",
          "name": "index",
          "type": "uint256"
        },
        {
          "internalType": "uint256",
          "name": "amountOut",
          "type": "uint256"
        },
        {
          "internalType": "uint256",
          "name": "proposed",
          "type": "uint256"
        }
      ],
      "name": "SettlerAmountOutLtProposed",
      "type": "error"
    },
    {
      "inputs": [],
      "name": "SettlerCrossChainSwapMustBeOnlyOperation",
      "type": "error"
    },
    {
      "inputs": [],
      "name": "SettlerDynamicCallEncoderZero",
      "type": "error"
    },
    {
      "inputs": [
        {
          "internalType": "address",
          "name": "executor",
          "type": "address"
        }
      ],
      "name": "SettlerExecutorNotAllowed",
      "type": "error"
    },
    {
      "inputs": [
        {
          "internalType": "bytes32",
          "name": "hash",
          "type": "bytes32"
        }
      ],
      "name": "SettlerIntentAlreadyExecuted",
      "type": "error"
    },
    {
      "inputs": [],
      "name": "SettlerIntentOperationsEmpty",
      "type": "error"
    },
    {
      "inputs": [
        {
          "internalType": "uint256",
          "name": "deadline",
          "type": "uint256"
        },
        {
          "internalType": "uint256",
          "name": "timestamp",
          "type": "uint256"
        }
      ],
      "name": "SettlerIntentPastDeadline",
      "type": "error"
    },
    {
      "inputs": [
        {
          "internalType": "uint256",
          "name": "min",
          "type": "uint256"
        },
        {
          "internalType": "uint256",
          "name": "current",
          "type": "uint256"
        }
      ],
      "name": "SettlerIntentValidationsNotEnough",
      "type": "error"
    },
    {
      "inputs": [
        {
          "internalType": "uint256",
          "name": "chainId",
          "type": "uint256"
        }
      ],
      "name": "SettlerInvalidChain",
      "type": "error"
    },
    {
      "inputs": [],
      "name": "SettlerInvalidProposedAmounts",
      "type": "error"
    },
    {
      "inputs": [
        {
          "internalType": "address",
          "name": "to",
          "type": "address"
        }
      ],
      "name": "SettlerInvalidRecipient",
      "type": "error"
    },
    {
      "inputs": [
        {
          "internalType": "address",
          "name": "settler",
          "type": "address"
        }
      ],
      "name": "SettlerInvalidSettler",
      "type": "error"
    },
    {
      "inputs": [],
      "name": "SettlerNonceZero",
      "type": "error"
    },
    {
      "inputs": [],
      "name": "SettlerOperationChainsMismatch",
      "type": "error"
    },
    {
      "inputs": [
        {
          "internalType": "uint256",
          "name": "index",
          "type": "uint256"
        },
        {
          "internalType": "uint256",
          "name": "post",
          "type": "uint256"
        },
        {
          "internalType": "uint256",
          "name": "pre",
          "type": "uint256"
        }
      ],
      "name": "SettlerPostBalanceOutLtPre",
      "type": "error"
    },
    {
      "inputs": [],
      "name": "SettlerProposalDataInvalidLength",
      "type": "error"
    },
    {
      "inputs": [],
      "name": "SettlerProposalDataNotEmpty",
      "type": "error"
    },
    {
      "inputs": [
        {
          "internalType": "uint256",
          "name": "deadline",
          "type": "uint256"
        },
        {
          "internalType": "uint256",
          "name": "timestamp",
          "type": "uint256"
        }
      ],
      "name": "SettlerProposalPastDeadline",
      "type": "error"
    },
    {
      "inputs": [
        {
          "internalType": "address",
          "name": "signer",
          "type": "address"
        }
      ],
      "name": "SettlerProposalSignerNotAllowed",
      "type": "error"
    },
    {
      "inputs": [
        {
          "internalType": "uint256",
          "name": "index",
          "type": "uint256"
        },
        {
          "internalType": "uint256",
          "name": "proposed",
          "type": "uint256"
        },
        {
          "internalType": "uint256",
          "name": "minAmount",
          "type": "uint256"
        }
      ],
      "name": "SettlerProposedAmountLtMinAmount",
      "type": "error"
    },
    {
      "inputs": [],
      "name": "SettlerRescueFundsRecipientZero",
      "type": "error"
    },
    {
      "inputs": [
        {
          "internalType": "uint256",
          "name": "gasUsed",
          "type": "uint256"
        }
      ],
      "name": "SettlerSimulationSuccess",
      "type": "error"
    },
    {
      "inputs": [],
      "name": "SettlerSolverFeeInvalidLength",
      "type": "error"
    },
    {
      "inputs": [
        {
          "internalType": "uint256",
          "name": "fee",
          "type": "uint256"
        },
        {
          "internalType": "uint256",
          "name": "max",
          "type": "uint256"
        }
      ],
      "name": "SettlerSolverFeeTooHigh",
      "type": "error"
    },
    {
      "inputs": [
        {
          "internalType": "address",
          "name": "solver",
          "type": "address"
        }
      ],
      "name": "SettlerSolverNotAllowed",
      "type": "error"
    },
    {
      "inputs": [
        {
          "internalType": "uint256",
          "name": "lengthRequested",
          "type": "uint256"
        }
      ],
      "name": "SettlerTooManySafeguards",
      "type": "error"
    },
    {
      "inputs": [
        {
          "internalType": "uint8",
          "name": "opType",
          "type": "uint8"
        }
      ],
      "name": "SettlerUnknownOperationType",
      "type": "error"
    },
    {
      "inputs": [
        {
          "internalType": "address",
          "name": "user",
          "type": "address"
        }
      ],
      "name": "SettlerUserNotSmartAccount",
      "type": "error"
    },
    {
      "inputs": [
        {
          "internalType": "address",
          "name": "previous",
          "type": "address"
        },
        {
          "internalType": "address",
          "name": "current",
          "type": "address"
        }
      ],
      "name": "SettlerValidatorDuplicatedOrUnsorted",
      "type": "error"
    },
    {
      "inputs": [
        {
          "internalType": "address",
          "name": "validator",
          "type": "address"
        }
      ],
      "name": "SettlerValidatorNotAllowed",
      "type": "error"
    },
    {
      "inputs": [],
      "name": "SmartAccountsHandlerZero",
      "type": "error"
    },
    {
      "anonymous": false,
      "inputs": [
        {
          "indexed": true,
          "internalType": "address",
          "name": "dynamicCallEncoder",
          "type": "address"
        }
      ],
      "name": "DynamicCallEncoderSet",
      "type": "event"
    },
    {
      "anonymous": false,
      "inputs": [],
      "name": "EIP712DomainChanged",
      "type": "event"
    },
    {
      "anonymous": false,
      "inputs": [
        {
          "indexed": true,
          "internalType": "address",
          "name": "token",
          "type": "address"
        },
        {
          "indexed": true,
          "internalType": "address",
          "name": "recipient",
          "type": "address"
        },
        {
          "indexed": false,
          "internalType": "uint256",
          "name": "amount",
          "type": "uint256"
        }
      ],
      "name": "FundsRescued",
      "type": "event"
    },
    {
      "anonymous": false,
      "inputs": [
        {
          "indexed": false,
          "internalType": "uint64",
          "name": "version",
          "type": "uint64"
        }
      ],
      "name": "Initialized",
      "type": "event"
    },
    {
      "anonymous": false,
      "inputs": [
        {
          "indexed": true,
          "internalType": "address",
          "name": "user",
          "type": "address"
        },
        {
          "indexed": true,
          "internalType": "bytes32",
          "name": "topic",
          "type": "bytes32"
        },
        {
          "indexed": true,
          "internalType": "uint8",
          "name": "opType",
          "type": "uint8"
        },
        {
          "components": [
            {
              "internalType": "uint8",
              "name": "opType",
              "type": "uint8"
            },
            {
              "internalType": "address",
              "name": "user",
              "type": "address"
            },
            {
              "internalType": "bytes",
              "name": "data",
              "type": "bytes"
            },
            {
              "components": [
                {
                  "internalType": "bytes32",
                  "name": "topic",
                  "type": "bytes32"
                },
                {
                  "internalType": "bytes",
                  "name": "data",
                  "type": "bytes"
                }
              ],
              "internalType": "struct OperationEvent[]",
              "name": "events",
              "type": "tuple[]"
            }
          ],
          "indexed": false,
          "internalType": "struct Operation",
          "name": "operation",
          "type": "tuple"
        },
        {
          "components": [
            {
              "internalType": "uint256",
              "name": "deadline",
              "type": "uint256"
            },
            {
              "internalType": "bytes[]",
              "name": "datas",
              "type": "bytes[]"
            },
            {
              "internalType": "uint256[]",
              "name": "fees",
              "type": "uint256[]"
            }
          ],
          "indexed": false,
          "internalType": "struct Proposal",
          "name": "proposal",
          "type": "tuple"
        },
        {
          "indexed": false,
          "internalType": "bytes32",
          "name": "intentHash",
          "type": "bytes32"
        },
        {
          "indexed": false,
          "internalType": "uint256",
          "name": "index",
          "type": "uint256"
        },
        {
          "indexed": false,
          "internalType": "bytes",
          "name": "output",
          "type": "bytes"
        },
        {
          "indexed": false,
          "internalType": "bytes",
          "name": "data",
          "type": "bytes"
        }
      ],
      "name": "OperationExecuted",
      "type": "event"
    },
    {
      "anonymous": false,
      "inputs": [
        {
          "indexed": true,
          "internalType": "address",
          "name": "operationsValidator",
          "type": "address"
        }
      ],
      "name": "OperationsValidatorSet",
      "type": "event"
    },
    {
      "anonymous": false,
      "inputs": [
        {
          "indexed": true,
          "internalType": "address",
          "name": "previousOwner",
          "type": "address"
        },
        {
          "indexed": true,
          "internalType": "address",
          "name": "newOwner",
          "type": "address"
        }
      ],
      "name": "OwnershipTransferred",
      "type": "event"
    },
    {
      "anonymous": false,
      "inputs": [
        {
          "indexed": true,
          "internalType": "bytes32",
          "name": "proposal",
          "type": "bytes32"
        }
      ],
      "name": "ProposalExecuted",
      "type": "event"
    },
    {
      "anonymous": false,
      "inputs": [
        {
          "indexed": true,
          "internalType": "address",
          "name": "user",
          "type": "address"
        }
      ],
      "name": "SafeguardSet",
      "type": "event"
    },
    {
      "anonymous": false,
      "inputs": [
        {
          "indexed": true,
          "internalType": "address",
          "name": "smartAccountsHandler",
          "type": "address"
        }
      ],
      "name": "SmartAccountsHandlerSet",
      "type": "event"
    },
    {
      "inputs": [],
      "name": "controller",
      "outputs": [
        {
          "internalType": "address",
          "name": "",
          "type": "address"
        }
      ],
      "stateMutability": "view",
      "type": "function"
    },
    {
      "inputs": [],
      "name": "dynamicCallEncoder",
      "outputs": [
        {
          "internalType": "address",
          "name": "",
          "type": "address"
        }
      ],
      "stateMutability": "view",
      "type": "function"
    },
    {
      "inputs": [],
      "name": "eip712Domain",
      "outputs": [
        {
          "internalType": "bytes1",
          "name": "fields",
          "type": "bytes1"
        },
        {
          "internalType": "string",
          "name": "name",
          "type": "string"
        },
        {
          "internalType": "string",
          "name": "version",
          "type": "string"
        },
        {
          "internalType": "uint256",
          "name": "chainId",
          "type": "uint256"
        },
        {
          "internalType": "address",
          "name": "verifyingContract",
          "type": "address"
        },
        {
          "internalType": "bytes32",
          "name": "salt",
          "type": "bytes32"
        },
        {
          "internalType": "uint256[]",
          "name": "extensions",
          "type": "uint256[]"
        }
      ],
      "stateMutability": "view",
      "type": "function"
    },
    {
      "inputs": [
        {
          "components": [
            {
              "internalType": "address",
              "name": "feePayer",
              "type": "address"
            },
            {
              "internalType": "address",
              "name": "settler",
              "type": "address"
            },
            {
              "internalType": "bytes32",
              "name": "nonce",
              "type": "bytes32"
            },
            {
              "internalType": "uint256",
              "name": "deadline",
              "type": "uint256"
            },
            {
              "components": [
                {
                  "internalType": "address",
                  "name": "token",
                  "type": "address"
                },
                {
                  "internalType": "uint256",
                  "name": "amount",
                  "type": "uint256"
                }
              ],
              "internalType": "struct MaxFee[]",
              "name": "maxFees",
              "type": "tuple[]"
            },
            {
              "internalType": "bytes",
              "name": "triggerSig",
              "type": "bytes"
            },
            {
              "internalType": "uint256",
              "name": "minValidations",
              "type": "uint256"
            },
            {
              "internalType": "bytes[]",
              "name": "validations",
              "type": "bytes[]"
            },
            {
              "components": [
                {
                  "internalType": "uint8",
                  "name": "opType",
                  "type": "uint8"
                },
                {
                  "internalType": "address",
                  "name": "user",
                  "type": "address"
                },
                {
                  "internalType": "bytes",
                  "name": "data",
                  "type": "bytes"
                },
                {
                  "components": [
                    {
                      "internalType": "bytes32",
                      "name": "topic",
                      "type": "bytes32"
                    },
                    {
                      "internalType": "bytes",
                      "name": "data",
                      "type": "bytes"
                    }
                  ],
                  "internalType": "struct OperationEvent[]",
                  "name": "events",
                  "type": "tuple[]"
                }
              ],
              "internalType": "struct Operation[]",
              "name": "operations",
              "type": "tuple[]"
            }
          ],
          "internalType": "struct Intent",
          "name": "intent",
          "type": "tuple"
        },
        {
          "components": [
            {
              "internalType": "uint256",
              "name": "deadline",
              "type": "uint256"
            },
            {
              "internalType": "bytes[]",
              "name": "datas",
              "type": "bytes[]"
            },
            {
              "internalType": "uint256[]",
              "name": "fees",
              "type": "uint256[]"
            }
          ],
          "internalType": "struct Proposal",
          "name": "proposal",
          "type": "tuple"
        },
        {
          "internalType": "bytes",
          "name": "signature",
          "type": "bytes"
        }
      ],
      "name": "execute",
      "outputs": [],
      "stateMutability": "nonpayable",
      "type": "function"
    },
    {
      "inputs": [
        {
          "internalType": "bytes32",
          "name": "",
          "type": "bytes32"
        }
      ],
      "name": "getIntentBlock",
      "outputs": [
        {
          "internalType": "uint256",
          "name": "",
          "type": "uint256"
        }
      ],
      "stateMutability": "view",
      "type": "function"
    },
    {
      "inputs": [
        {
          "components": [
            {
              "internalType": "address",
              "name": "feePayer",
              "type": "address"
            },
            {
              "internalType": "address",
              "name": "settler",
              "type": "address"
            },
            {
              "internalType": "bytes32",
              "name": "nonce",
              "type": "bytes32"
            },
            {
              "internalType": "uint256",
              "name": "deadline",
              "type": "uint256"
            },
            {
              "components": [
                {
                  "internalType": "address",
                  "name": "token",
                  "type": "address"
                },
                {
                  "internalType": "uint256",
                  "name": "amount",
                  "type": "uint256"
                }
              ],
              "internalType": "struct MaxFee[]",
              "name": "maxFees",
              "type": "tuple[]"
            },
            {
              "internalType": "bytes",
              "name": "triggerSig",
              "type": "bytes"
            },
            {
              "internalType": "uint256",
              "name": "minValidations",
              "type": "uint256"
            },
            {
              "internalType": "bytes[]",
              "name": "validations",
              "type": "bytes[]"
            },
            {
              "components": [
                {
                  "internalType": "uint8",
                  "name": "opType",
                  "type": "uint8"
                },
                {
                  "internalType": "address",
                  "name": "user",
                  "type": "address"
                },
                {
                  "internalType": "bytes",
                  "name": "data",
                  "type": "bytes"
                },
                {
                  "components": [
                    {
                      "internalType": "bytes32",
                      "name": "topic",
                      "type": "bytes32"
                    },
                    {
                      "internalType": "bytes",
                      "name": "data",
                      "type": "bytes"
                    }
                  ],
                  "internalType": "struct OperationEvent[]",
                  "name": "events",
                  "type": "tuple[]"
                }
              ],
              "internalType": "struct Operation[]",
              "name": "operations",
              "type": "tuple[]"
            }
          ],
          "internalType": "struct Intent",
          "name": "intent",
          "type": "tuple"
        }
      ],
      "name": "getIntentHash",
      "outputs": [
        {
          "internalType": "bytes32",
          "name": "",
          "type": "bytes32"
        }
      ],
      "stateMutability": "pure",
      "type": "function"
    },
    {
      "inputs": [
        {
          "components": [
            {
              "internalType": "uint256",
              "name": "deadline",
              "type": "uint256"
            },
            {
              "internalType": "bytes[]",
              "name": "datas",
              "type": "bytes[]"
            },
            {
              "internalType": "uint256[]",
              "name": "fees",
              "type": "uint256[]"
            }
          ],
          "internalType": "struct Proposal",
          "name": "proposal",
          "type": "tuple"
        },
        {
          "components": [
            {
              "internalType": "address",
              "name": "feePayer",
              "type": "address"
            },
            {
              "internalType": "address",
              "name": "settler",
              "type": "address"
            },
            {
              "internalType": "bytes32",
              "name": "nonce",
              "type": "bytes32"
            },
            {
              "internalType": "uint256",
              "name": "deadline",
              "type": "uint256"
            },
            {
              "components": [
                {
                  "internalType": "address",
                  "name": "token",
                  "type": "address"
                },
                {
                  "internalType": "uint256",
                  "name": "amount",
                  "type": "uint256"
                }
              ],
              "internalType": "struct MaxFee[]",
              "name": "maxFees",
              "type": "tuple[]"
            },
            {
              "internalType": "bytes",
              "name": "triggerSig",
              "type": "bytes"
            },
            {
              "internalType": "uint256",
              "name": "minValidations",
              "type": "uint256"
            },
            {
              "internalType": "bytes[]",
              "name": "validations",
              "type": "bytes[]"
            },
            {
              "components": [
                {
                  "internalType": "uint8",
                  "name": "opType",
                  "type": "uint8"
                },
                {
                  "internalType": "address",
                  "name": "user",
                  "type": "address"
                },
                {
                  "internalType": "bytes",
                  "name": "data",
                  "type": "bytes"
                },
                {
                  "components": [
                    {
                      "internalType": "bytes32",
                      "name": "topic",
                      "type": "bytes32"
                    },
                    {
                      "internalType": "bytes",
                      "name": "data",
                      "type": "bytes"
                    }
                  ],
                  "internalType": "struct OperationEvent[]",
                  "name": "events",
                  "type": "tuple[]"
                }
              ],
              "internalType": "struct Operation[]",
              "name": "operations",
              "type": "tuple[]"
            }
          ],
          "internalType": "struct Intent",
          "name": "intent",
          "type": "tuple"
        },
        {
          "internalType": "address",
          "name": "solver",
          "type": "address"
        }
      ],
      "name": "getProposalHash",
      "outputs": [
        {
          "internalType": "bytes32",
          "name": "",
          "type": "bytes32"
        }
      ],
      "stateMutability": "pure",
      "type": "function"
    },
    {
      "inputs": [
        {
          "internalType": "address",
          "name": "user",
          "type": "address"
        }
      ],
      "name": "getUserSafeguard",
      "outputs": [
        {
          "internalType": "bytes",
          "name": "",
          "type": "bytes"
        }
      ],
      "stateMutability": "view",
      "type": "function"
    },
    {
      "inputs": [
        {
          "internalType": "address",
          "name": "_controller",
          "type": "address"
        },
        {
          "internalType": "address",
          "name": "_owner",
          "type": "address"
        },
        {
          "internalType": "address",
          "name": "_dynamicCallEncoder",
          "type": "address"
        }
      ],
      "name": "initialize",
      "outputs": [],
      "stateMutability": "nonpayable",
      "type": "function"
    },
    {
      "inputs": [],
      "name": "operationsValidator",
      "outputs": [
        {
          "internalType": "address",
          "name": "",
          "type": "address"
        }
      ],
      "stateMutability": "view",
      "type": "function"
    },
    {
      "inputs": [],
      "name": "owner",
      "outputs": [
        {
          "internalType": "address",
          "name": "",
          "type": "address"
        }
      ],
      "stateMutability": "view",
      "type": "function"
    },
    {
      "inputs": [],
      "name": "renounceOwnership",
      "outputs": [],
      "stateMutability": "nonpayable",
      "type": "function"
    },
    {
      "inputs": [
        {
          "internalType": "address",
          "name": "token",
          "type": "address"
        },
        {
          "internalType": "address",
          "name": "recipient",
          "type": "address"
        },
        {
          "internalType": "uint256",
          "name": "amount",
          "type": "uint256"
        }
      ],
      "name": "rescueFunds",
      "outputs": [],
      "stateMutability": "nonpayable",
      "type": "function"
    },
    {
      "inputs": [
        {
          "internalType": "address",
          "name": "newDynamicCallEncoder",
          "type": "address"
        }
      ],
      "name": "setDynamicCallEncoder",
      "outputs": [],
      "stateMutability": "nonpayable",
      "type": "function"
    },
    {
      "inputs": [
        {
          "internalType": "address",
          "name": "newOperationsValidator",
          "type": "address"
        }
      ],
      "name": "setOperationsValidator",
      "outputs": [],
      "stateMutability": "nonpayable",
      "type": "function"
    },
    {
      "inputs": [
        {
          "internalType": "bytes",
          "name": "safeguard",
          "type": "bytes"
        }
      ],
      "name": "setSafeguard",
      "outputs": [],
      "stateMutability": "nonpayable",
      "type": "function"
    },
    {
      "inputs": [
        {
          "internalType": "address",
          "name": "newSmartAccountsHandler",
          "type": "address"
        }
      ],
      "name": "setSmartAccountsHandler",
      "outputs": [],
      "stateMutability": "nonpayable",
      "type": "function"
    },
    {
      "inputs": [
        {
          "components": [
            {
              "internalType": "address",
              "name": "feePayer",
              "type": "address"
            },
            {
              "internalType": "address",
              "name": "settler",
              "type": "address"
            },
            {
              "internalType": "bytes32",
              "name": "nonce",
              "type": "bytes32"
            },
            {
              "internalType": "uint256",
              "name": "deadline",
              "type": "uint256"
            },
            {
              "components": [
                {
                  "internalType": "address",
                  "name": "token",
                  "type": "address"
                },
                {
                  "internalType": "uint256",
                  "name": "amount",
                  "type": "uint256"
                }
              ],
              "internalType": "struct MaxFee[]",
              "name": "maxFees",
              "type": "tuple[]"
            },
            {
              "internalType": "bytes",
              "name": "triggerSig",
              "type": "bytes"
            },
            {
              "internalType": "uint256",
              "name": "minValidations",
              "type": "uint256"
            },
            {
              "internalType": "bytes[]",
              "name": "validations",
              "type": "bytes[]"
            },
            {
              "components": [
                {
                  "internalType": "uint8",
                  "name": "opType",
                  "type": "uint8"
                },
                {
                  "internalType": "address",
                  "name": "user",
                  "type": "address"
                },
                {
                  "internalType": "bytes",
                  "name": "data",
                  "type": "bytes"
                },
                {
                  "components": [
                    {
                      "internalType": "bytes32",
                      "name": "topic",
                      "type": "bytes32"
                    },
                    {
                      "internalType": "bytes",
                      "name": "data",
                      "type": "bytes"
                    }
                  ],
                  "internalType": "struct OperationEvent[]",
                  "name": "events",
                  "type": "tuple[]"
                }
              ],
              "internalType": "struct Operation[]",
              "name": "operations",
              "type": "tuple[]"
            }
          ],
          "internalType": "struct Intent",
          "name": "intent",
          "type": "tuple"
        },
        {
          "components": [
            {
              "internalType": "uint256",
              "name": "deadline",
              "type": "uint256"
            },
            {
              "internalType": "bytes[]",
              "name": "datas",
              "type": "bytes[]"
            },
            {
              "internalType": "uint256[]",
              "name": "fees",
              "type": "uint256[]"
            }
          ],
          "internalType": "struct Proposal",
          "name": "proposal",
          "type": "tuple"
        },
        {
          "internalType": "bytes",
          "name": "signature",
          "type": "bytes"
        }
      ],
      "name": "simulate",
      "outputs": [],
      "stateMutability": "nonpayable",
      "type": "function"
    },
    {
      "inputs": [],
      "name": "smartAccountsHandler",
      "outputs": [
        {
          "internalType": "address",
          "name": "",
          "type": "address"
        }
      ],
      "stateMutability": "view",
      "type": "function"
    },
    {
      "inputs": [
        {
          "internalType": "address",
          "name": "newOwner",
          "type": "address"
        }
      ],
      "name": "transferOwnership",
      "outputs": [],
      "stateMutability": "nonpayable",
      "type": "function"
    },
    {
      "stateMutability": "payable",
      "type": "receive"
    }
  ],
  "bytecode": "0x6080604052348015600e575f5ffd5b5060156019565b60c9565b7ff0c57e16840df040f15088dc2f81fe391c3923bec73e23a9662efc9c229c6a00805468010000000000000000900460ff161560685760405163f92ee8a960e01b815260040160405180910390fd5b80546001600160401b039081161460c65780546001600160401b0319166001600160401b0390811782556040519081527fc7f505b2f371ae2175ee4913f4499e1f2633a7b5936321eed1cdaeb6115181d29060200160405180910390a15b50565b615c40806100d65f395ff3fe60806040526004361061015a575f3560e01c806396d45f51116100bb578063cbc9104511610071578063f2fde38b11610057578063f2fde38b146103d4578063f77c4791146103f3578063faa390d714610411575f5ffd5b8063cbc9104514610396578063e5814ea6146103b5575f5ffd5b80639f86fded116100a15780639f86fded14610339578063a49eacff14610358578063c0c53b8b14610377575f5ffd5b806396d45f51146102fb5780639c2a2c6e1461031a575f5ffd5b806384d44e2811610110578063911929df116100f6578063911929df1461029157806394795916146102bd57806395002651146102dc575f5ffd5b806384d44e281461021c5780638da5cb5b14610255575f5ffd5b80636ccae054116101405780636ccae054146101c2578063715018a6146101e157806384b0196e146101f5575f5ffd5b80630fc27cf6146101655780634987ed2f14610186575f5ffd5b3661016157005b5f5ffd5b348015610170575f5ffd5b5061018461017f366004613ab8565b610430565b005b348015610191575f5ffd5b506001546101a5906001600160a01b031681565b6040516001600160a01b0390911681526020015b60405180910390f35b3480156101cd575f5ffd5b506101846101dc366004613ad3565b610444565b3480156101ec575f5ffd5b5061018461051a565b348015610200575f5ffd5b5061020961052d565b6040516101b99796959493929190613b79565b348015610227575f5ffd5b50610247610236366004613c02565b60046020525f908152604090205481565b6040519081526020016101b9565b348015610260575f5ffd5b507f9016d09d72d40fdae2fd8ceac6b6234c7706214fd39c1cd1e609a0528c199300546001600160a01b03166101a5565b34801561029c575f5ffd5b506102b06102ab366004613ab8565b61062c565b6040516101b99190613c19565b3480156102c8575f5ffd5b506101846102d7366004614283565b6106d5565b3480156102e7575f5ffd5b506102476102f6366004614311565b6107c1565b348015610306575f5ffd5b50610184610315366004613ab8565b6107d7565b348015610325575f5ffd5b506003546101a5906001600160a01b031681565b348015610344575f5ffd5b50610184610353366004614283565b6107e8565b348015610363575f5ffd5b50610184610372366004613ab8565b610891565b348015610382575f5ffd5b50610184610391366004614389565b6108a2565b3480156103a1575f5ffd5b506101846103b03660046143c6565b610aaf565b3480156103c0575f5ffd5b506002546101a5906001600160a01b031681565b3480156103df575f5ffd5b506101846103ee366004613ab8565b610ab9565b3480156103fe575f5ffd5b505f546101a5906001600160a01b031681565b34801561041c575f5ffd5b5061024761042b3660046143f8565b610b0c565b610438610b1c565b61044181610b90565b50565b61044c610b1c565b610454610c19565b6001600160a01b038216610494576040517f54328a0900000000000000000000000000000000000000000000000000000000815260040160405180910390fd5b61049f838383610c7c565b816001600160a01b0316836001600160a01b03167fed2837b80b3489773c5f1ed30dd2884b4c90dbf7b87428ea03c49b24ef59a805836040516104e491815260200190565b60405180910390a361051560017f9b779b17422d0df92223018b32b4d1fa46e071723d6817e2486d003becc55f0055565b505050565b610522610b1c565b61052b5f610cdb565b565b5f60608082808083817fa16a46d94261c7517cc8ff89f61c0ce93598e3c849801011dee649a6a557d100805490915015801561056b57506001810154155b6105d6576040517f08c379a000000000000000000000000000000000000000000000000000000000815260206004820152601560248201527f4549503731323a20556e696e697469616c697a6564000000000000000000000060448201526064015b60405180910390fd5b6105de610d4b565b6105e6610e1e565b604080515f808252602082019092527f0f000000000000000000000000000000000000000000000000000000000000009c939b5091995046985030975095509350915050565b6001600160a01b0381165f9081526005602052604090208054606091906106529061442a565b80601f016020809104026020016040519081016040528092919081815260200182805461067e9061442a565b80156106c95780601f106106a0576101008083540402835291602001916106c9565b820191905f5260205f20905b8154815290600101906020018083116106ac57829003601f168201915b50505050509050919050565b5f335f5460405163d9d8edb960e01b81526001600160a01b03808416600483015292935091169063d9d8edb990602401602060405180830381865afa158015610720573d5f5f3e3d5ffd5b505050506040513d601f19601f82011682018060405250810190610744919061446b565b61076c5760405163a7ac57a960e01b81526001600160a01b03821660048201526024016105cd565b5f5a905061077d8585856001610e6f565b5f5a6107899083614484565b9050806040517fa523ba490000000000000000000000000000000000000000000000000000000081526004016105cd91815260200190565b5f6107cd848484610fa0565b90505b9392505050565b6107df610b1c565b6104418161103d565b5f335f5460405163d9d8edb960e01b81526001600160a01b03808416600483015292935091169063d9d8edb990602401602060405180830381865afa158015610833573d5f5f3e3d5ffd5b505050506040513d601f19601f82011682018060405250810190610857919061446b565b61087f5760405163a7ac57a960e01b81526001600160a01b03821660048201526024016105cd565b61088b8484845f610e6f565b50505050565b610899610b1c565b610441816110c6565b5f6108ab61110f565b805490915060ff68010000000000000000820416159067ffffffffffffffff165f811580156108d75750825b90505f8267ffffffffffffffff1660011480156108f35750303b155b905081158015610901575080155b15610938576040517ff92ee8a900000000000000000000000000000000000000000000000000000000815260040160405180910390fd5b845467ffffffffffffffff19166001178555831561096c57845468ff00000000000000001916680100000000000000001785555b61097587611137565b61097d611148565b6109f16040518060400160405280601681526020017f4d696d69632050726f746f636f6c20536574746c6572000000000000000000008152506040518060400160405280600181526020017f3100000000000000000000000000000000000000000000000000000000000000815250611158565b5f80546001600160a01b0319166001600160a01b038a16179055604051610a1790613a42565b604051809103905ff080158015610a30573d5f5f3e3d5ffd5b50600180546001600160a01b0319166001600160a01b0392909216919091179055610a5a8661103d565b8315610aa557845468ff000000000000000019168555604051600181527fc7f505b2f371ae2175ee4913f4499e1f2633a7b5936321eed1cdaeb6115181d29060200160405180910390a15b5050505050505050565b610441338261116e565b610ac1610b1c565b6001600160a01b038116610b03576040517f1e4fbdf70000000000000000000000000000000000000000000000000000000081525f60048201526024016105cd565b61044181610cdb565b5f610b16826111e7565b92915050565b33610b4e7f9016d09d72d40fdae2fd8ceac6b6234c7706214fd39c1cd1e609a0528c199300546001600160a01b031690565b6001600160a01b03161461052b576040517f118cdaa70000000000000000000000000000000000000000000000000000000081523360048201526024016105cd565b6001600160a01b038116610bd0576040517f42af048a00000000000000000000000000000000000000000000000000000000815260040160405180910390fd5b600180546001600160a01b0319166001600160a01b0383169081179091556040517f93fa00498c991ad852fbb3361afb0e3507720aa9ff69a8386009b76134a6e654905f90a250565b7f9b779b17422d0df92223018b32b4d1fa46e071723d6817e2486d003becc55f00805460011901610c76576040517f3ee5aeb500000000000000000000000000000000000000000000000000000000815260040160405180910390fd5b60029055565b73eeeeeeeeeeeeeeeeeeeeeeeeeeeeeeeeeeeeeeee6001600160a01b03841603610caa576105158282611276565b61051583838361131b565b60017f9b779b17422d0df92223018b32b4d1fa46e071723d6817e2486d003becc55f0055565b7f9016d09d72d40fdae2fd8ceac6b6234c7706214fd39c1cd1e609a0528c19930080546001600160a01b031981166001600160a01b03848116918217845560405192169182907f8be0079c531659141344cd1fd0a4f28419497f9722a3daafe3b4186f6b6457e0905f90a3505050565b7fa16a46d94261c7517cc8ff89f61c0ce93598e3c849801011dee649a6a557d10280546060917fa16a46d94261c7517cc8ff89f61c0ce93598e3c849801011dee649a6a557d10091610d9c9061442a565b80601f0160208091040260200160405190810160405280929190818152602001828054610dc89061442a565b8015610e135780601f10610dea57610100808354040283529160200191610e13565b820191905f5260205f20905b815481529060010190602001808311610df657829003601f168201915b505050505091505090565b7fa16a46d94261c7517cc8ff89f61c0ce93598e3c849801011dee649a6a557d10380546060917fa16a46d94261c7517cc8ff89f61c0ce93598e3c849801011dee649a6a557d10091610d9c9061442a565b610e77610c19565b610e838484848461138f565b4360045f610e90876111e7565b81526020019081526020015f20819055505f8461010001515167ffffffffffffffff811115610ec157610ec1613c2b565b604051908082528060200260200182016040528015610ef457816020015b6060815260200190600190039081610edf5790505b5090505f5b85610100015151811015610f3857610f1386868385611b85565b828281518110610f2557610f256144a3565b6020908102919091010152600101610ef9565b50610f438585611c5c565b610f4e848633610fa0565b6040517f7b1bcf1ccf901a11589afff5504d59fd0a53780eed2a952adade0348985139e0905f90a25061088b60017f9b779b17422d0df92223018b32b4d1fa46e071723d6817e2486d003becc55f0055565b5f7fa3fe6f3f3735a89666b95c43900391e47561d7b498410df539101e55309a968f610fcb846111e7565b83865f0151610fdd8860200151611d79565b610fea8960400151611e42565b6040805160208101979097528601949094526001600160a01b039092166060850152608084015260a083015260c082015260e0016040516020818303038152906040528051906020012090509392505050565b6001600160a01b03811661107d576040517f1793862f00000000000000000000000000000000000000000000000000000000815260040160405180910390fd5b600380546001600160a01b0319166001600160a01b0383169081179091556040517facfbb618325d1abc35c2404086871d507dcae4af0a50a143962f8606f16dde10905f90a250565b600280546001600160a01b0319166001600160a01b0383169081179091556040517f5f409c1b4d4ea8490b2608a50161c1a08dc17a0656869303e6e51b9fc89f4ef7905f90a250565b5f807ff0c57e16840df040f15088dc2f81fe391c3923bec73e23a9662efc9c229c6a00610b16565b61113f611e54565b61044181611e92565b611150611e54565b61052b611e9a565b611160611e54565b61116a8282611ea2565b5050565b6001600160a01b0382165f90815260056020526040812061118e91613a4f565b6001600160a01b0382165f9081526005602052604090206111af82826144fb565b506040516001600160a01b038316907f5ac98b81e10e07689d7de8e9ec09900564d65647de8d039328d4cbdf575b28f4905f90a25050565b5f7f7d91aa1f7591f1c332ec5a25ed7cf5b18b014aff05605580d4bb8c353714eea6825f01518360200151846040015185606001516112298760800151611f14565b8760a001518860c001516112418a610100015161202a565b604051602001611259999897969594939291906145b6565b604051602081830303815290604052805190602001209050919050565b804710156112b9576040517fcf479181000000000000000000000000000000000000000000000000000000008152476004820152602481018290526044016105cd565b5f5f836001600160a01b0316836040515f6040518083038185875af1925050503d805f8114611303576040519150601f19603f3d011682016040523d82523d5f602084013e611308565b606091505b50915091508161088b5761088b816120c4565b6040516001600160a01b0383811660248301526044820183905261051591859182169063a9059cbb906064015b604051602081830303815290604052915060e01b6020820180517bffffffffffffffffffffffffffffffffffffffffffffffffffffffff8381831617835250505050612106565b60208401516001600160a01b031630146113e65760208401516040517f30b078bf0000000000000000000000000000000000000000000000000000000081526001600160a01b0390911660048201526024016105cd565b6040840151611421576040517f58e8d18100000000000000000000000000000000000000000000000000000000815260040160405180910390fd5b5f61142b856111e7565b5f8181526004602052604090205490915015611476576040517f0413dc4a000000000000000000000000000000000000000000000000000000008152600481018290526024016105cd565b846101000151515f036114b5576040517fe5dfb56a00000000000000000000000000000000000000000000000000000000815260040160405180910390fd5b83602001515185610100015151146114f9576040517f95784c9b00000000000000000000000000000000000000000000000000000000815260040160405180910390fd5b6002546001600160a01b03161561167a575f5b85610100015151811015611678575f8661010001518281518110611532576115326144a3565b602002602001015190505f60055f83602001516001600160a01b03166001600160a01b031681526020019081526020015f20805461156f9061442a565b80601f016020809104026020016040519081016040528092919081815260200182805461159b9061442a565b80156115e65780601f106115bd576101008083540402835291602001916115e6565b820191905f5260205f20905b8154815290600101906020018083116115c957829003601f168201915b505050505090505f8151111561166e576002546040517f4007c7140000000000000000000000000000000000000000000000000000000081526001600160a01b0390911690634007c7149061164190859085906004016146cd565b5f6040518083038186803b158015611657575f5ffd5b505afa158015611669573d5f5f3e3d5ffd5b505050505b505060010161150c565b505b5f6116848661218b565b9050801561172357428660600151116116d85760608601516040517f95d3dc2200000000000000000000000000000000000000000000000000000000815260048101919091524260248201526044016105cd565b845142108015906117215785516040517f2c39717b00000000000000000000000000000000000000000000000000000000815260048101919091524260248201526044016105cd565b505b84604001515186608001515114611766576040517f9dca144800000000000000000000000000000000000000000000000000000000815260040160405180910390fd5b5f5b866080015151811015611809575f8760800151828151811061178c5761178c6144a3565b60200260200101516020015190505f876040015183815181106117b1576117b16144a3565b60200260200101519050818111156117ff576040517f8ffa61fa00000000000000000000000000000000000000000000000000000000815260048101829052602481018390526044016105cd565b5050600101611768565b505f5f5f9054906101000a90046001600160a01b03166001600160a01b031663680038c76040518163ffffffff1660e01b8152600401602060405180830381865afa15801561185a573d5f5f3e3d5ffd5b505050506040513d601f19601f8201168201806040525081019061187e91906146f1565b90505f8160ff168860c0015111611898578160ff1661189e565b8760c001515b9050808860e001515110156118f05760e0880151516040517fcd0ce6990000000000000000000000000000000000000000000000000000000081526105cd918391600401918252602082015260400190565b60408051602081019091528481525f908161191261190d836121fd565b61223a565b90505f5b8b60e0015151811015611a85575f61194b838e60e00151848151811061193e5761193e6144a3565b6020026020010151612281565b9050846001600160a01b0316816001600160a01b0316116119ab576040517fce98854c0000000000000000000000000000000000000000000000000000000081526001600160a01b038087166004830152821660248201526044016105cd565b5f80546040517f616556700000000000000000000000000000000000000000000000000000000081526001600160a01b038085166004830152939750879390911690636165567090602401602060405180830381865afa158015611a11573d5f5f3e3d5ffd5b505050506040513d601f19601f82011682018060405250810190611a35919061446b565b1590508015611a7b576040517ff24706660000000000000000000000000000000000000000000000000000000081526001600160a01b03831660048201526024016105cd565b5050600101611916565b505f611a9e611a9861190d8d8f33610fa0565b8b612281565b5f80546040517f163eed9e0000000000000000000000000000000000000000000000000000000081526001600160a01b0380851660048301529394509192169063163eed9e90602401602060405180830381865afa158015611b02573d5f5f3e3d5ffd5b505050506040513d601f19601f82011682018060405250810190611b26919061446b565b158015611b31575089155b90508015611b76576040517f100158a80000000000000000000000000000000000000000000000000000000081526001600160a01b03831660048201526024016105cd565b50505050505050505050505050565b60605f8561010001518481518110611b9f57611b9f6144a3565b602090810291909101015151905060ff81161580611bc0575060ff81166003145b15611bd857611bd08686866122a9565b915050611c54565b5f1960ff821601611bee57611bd086868661278f565b60011960ff821601611c0557611bd08686866128c4565b60031960ff821601611c1d57611bd086868686612a31565b6040517f3bb38fe200000000000000000000000000000000000000000000000000000000815260ff821660048201526024016105cd565b949350505050565b600360ff168261010001515f81518110611c7857611c786144a3565b60200260200101515f015160ff1603611cd5575f8261010001515f81518110611ca357611ca36144a3565b602002602001015160400151806020019051810190611cc291906147c4565b905046815f015103611cd357505050565b505b815160015433905f90611cf1906001600160a01b031684612c2c565b90505f5b856080015151811015611d71575f86608001518281518110611d1957611d196144a3565b60200260200101515f01519050611d3a816001600160a01b03166103481490565b611d6857611d6881868689604001518681518110611d5a57611d5a6144a3565b602002602001015187612cb0565b50600101611cf5565b505050505050565b5f5f825167ffffffffffffffff811115611d9557611d95613c2b565b604051908082528060200260200182016040528015611dbe578160200160208202803683370190505b5090505f5b8351811015611e1257838181518110611dde57611dde6144a3565b602002602001015180519060200120828281518110611dff57611dff6144a3565b6020908102919091010152600101611dc3565b5080604051602001611e2491906148f4565b60405160208183030381529060405280519060200120915050919050565b5f8160405160200161125991906148f4565b611e5c612cf0565b61052b576040517fd7e6bcf800000000000000000000000000000000000000000000000000000000815260040160405180910390fd5b610ac1611e54565b610cb5611e54565b611eaa611e54565b7fa16a46d94261c7517cc8ff89f61c0ce93598e3c849801011dee649a6a557d1007fa16a46d94261c7517cc8ff89f61c0ce93598e3c849801011dee649a6a557d102611ef684826144fb565b5060038101611f0583826144fb565b505f8082556001909101555050565b5f5f825167ffffffffffffffff811115611f3057611f30613c2b565b604051908082528060200260200182016040528015611f59578160200160208202803683370190505b5090505f5b8351811015611e12577fe44101eb81f50b64d4005e31312ea7bafd6f81357f9dce4fe51d5f2dcb939da4848281518110611f9a57611f9a6144a3565b60200260200101515f0151858381518110611fb757611fb76144a3565b602002602001015160200151604051602001611fef939291909283526001600160a01b03919091166020830152604082015260600190565b60405160208183030381529060405280519060200120828281518110612017576120176144a3565b6020908102919091010152600101611f5e565b5f5f825167ffffffffffffffff81111561204657612046613c2b565b60405190808252806020026020018201604052801561206f578160200160208202803683370190505b5090505f5b8351811015611e125761209f848281518110612092576120926144a3565b6020026020010151612d0e565b8282815181106120b1576120b16144a3565b6020908102919091010152600101612074565b8051156120d45780518082602001fd5b6040517fd6bda27500000000000000000000000000000000000000000000000000000000815260040160405180910390fd5b5f5f60205f8451602086015f885af180612125576040513d5f823e3d81fd5b50505f513d9150811561213c578060011415612149565b6001600160a01b0384163b155b1561088b576040517f5274afe70000000000000000000000000000000000000000000000000000000081526001600160a01b03851660048201526024016105cd565b5f5f8261010001515f815181106121a4576121a46144a3565b60200260200101519050600360048111156121c1576121c161470c565b60ff16815f015160ff16146121d95750600192915050565b5f81604001518060200190518101906121f291906147c4565b514614949350505050565b8051604080517f07094367b2db06e3dbb414cf947644f8e08067ea238c5f41cb2fa5fea5be628e6020820152908101919091525f90606001611259565b5f610b16612246612d8c565b836040517f19010000000000000000000000000000000000000000000000000000000000008152600281019290925260228201526042902090565b5f5f5f5f61228f8686612d9a565b92509250925061229f8282612de3565b5090949350505050565b60605f84610100015183815181106122c3576122c36144a3565b602002602001015190505f81604001518060200190518101906122e691906147c4565b90505f856020015185815181106122ff576122ff6144a3565b602002602001015180602001905181019061231a9190614976565b9050600360ff16835f015160ff160361237d57600187610100015151111561236e576040517f376fce5900000000000000000000000000000000000000000000000000000000815260040160405180910390fd5b6123788282612ee6565b612387565b612387828261301e565b60208301516001545f916123a4916001600160a01b031690612c2c565b905046835f015103612406575f5b836040015151811015612404575f846040015182815181106123d6576123d66144a3565b602002602001015190506123fb815f01518760200151865f0151846020015187612cb0565b506001016123b2565b505b5f61241084613070565b90505f61241c8a6111e7565b9050835f01516001600160a01b031663fd93eba687838c602001518c81518110612448576124486144a3565b60200260200101516040518463ffffffff1660e01b815260040161246e93929190614a7b565b5f604051808303815f87803b158015612485575f5ffd5b505af1158015612497573d5f5f3e3d5ffd5b5050505084606001515167ffffffffffffffff8111156124b9576124b9613c2b565b6040519080825280602002602001820160405280156124ec57816020015b60608152602001906001900390816124d75790505b50965046856020015103612782575f85606001515167ffffffffffffffff81111561251957612519613c2b565b604051908082528060200260200182016040528015612542578160200160208202803683370190505b5090505f5b86606001515181101561274b575f8760600151828151811061256b5761256b6144a3565b602002602001015190505f612583825f01513061312c565b90505f868481518110612598576125986144a3565b60200260200101519050808210156125ed576040517ff5ad5ab70000000000000000000000000000000000000000000000000000000081526004810185905260248101839052604481018290526064016105cd565b6125f78183614484565b858581518110612609576126096144a3565b6020026020010181815250505f8960400151858151811061262c5761262c6144a3565b6020026020010151905080868681518110612649576126496144a3565b602002602001015110156126b7578486868151811061266a5761266a6144a3565b60209081029190910101516040517ff0a43aa700000000000000000000000000000000000000000000000000000000815260048101929092526024820152604481018290526064016105cd565b6126e2845f015185604001518888815181106126d5576126d56144a3565b6020026020010151610c7c565b8585815181106126f4576126f46144a3565b602002602001015160405160200161270e91815260200190565b6040516020818303038152906040528d868151811061272f5761272f6144a3565b6020026020010181905250505050508080600101915050612547565b50612780878b61275a8e6111e7565b8c8560405160200161276c9190614aaf565b6040516020818303038152906040526131ea565b505b5050505050509392505050565b60605f84610100015183815181106127a9576127a96144a3565b602002602001015190505f81604001518060200190518101906127cc9190614ac1565b90506127f581866020015186815181106127e8576127e86144a3565b6020026020010151613281565b60208201516001545f91612812916001600160a01b031690612c2c565b90505f5b826020015151811015612869575f8360200151828151811061283a5761283a6144a3565b60200260200101519050612860815f015186602001518360400151846020015187612cb0565b50600101612816565b50604080515f8082526020820190925290612894565b606081526020019060019003908161287f5790505b5093506128ba83876128a58a6111e7565b604080515f81526020810190915289906131ea565b5050509392505050565b60605f84610100015183815181106128de576128de6144a3565b602002602001015190505f81604001518060200190518101906129019190614b4d565b905061292f818660200151868151811061291d5761291d6144a3565b6020026020010151846020015161333e565b80602001515167ffffffffffffffff81111561294d5761294d613c2b565b60405190808252806020026020018201604052801561298057816020015b606081526020019060019003908161296b5790505b5092505f5b816020015151811015612a07575f826020015182815181106129a9576129a96144a3565b6020908102919091018101518582015181519282015160408301516001549395506129e1946001600160a01b039094169391906133d8565b8583815181106129f3576129f36144a3565b602090810291909101015250600101612985565b50612a288286612a16896111e7565b878760405160200161276c9190614cf1565b50509392505050565b60605f8561010001518481518110612a4b57612a4b6144a3565b602002602001015190505f8160400151806020019051810190612a6e9190614d03565b9050612a8a818760200151878151811061291d5761291d6144a3565b80602001515167ffffffffffffffff811115612aa857612aa8613c2b565b604051908082528060200260200182016040528015612adb57816020015b6060815260200190600190039081612ac65790505b5092505f5b816020015151811015612c01575f82602001518281518110612b0457612b046144a3565b6020026020010151806020019051810190612b1f9190614de3565b6003546040517ff964081d0000000000000000000000000000000000000000000000000000000081529192505f916001600160a01b039091169063f964081d90612b719085908b908d90600401614fcc565b5f60405180830381865afa158015612b8b573d5f5f3e3d5ffd5b505050506040513d5f823e601f3d908101601f19168201604052612bb291908101906150e2565b602080870151845191850151600154939450612bda936001600160a01b0316929085906133d8565b868481518110612bec57612bec6144a3565b60209081029190910101525050600101612ae0565b50612c228287612c108a6111e7565b888760405160200161276c9190614cf1565b5050949350505050565b6040517f5e07a6e60000000000000000000000000000000000000000000000000000000081526001600160a01b0382811660048301525f9190841690635e07a6e690602401602060405180830381865afa158015612c8c573d5f5f3e3d5ffd5b505050506040513d601f19601f820116820180604052508101906107d0919061446b565b8015612cd457600154612ccf906001600160a01b03168587868661346e565b612ce9565b612ce96001600160a01b0386168585856134c7565b5050505050565b5f612cf961110f565b5468010000000000000000900460ff16919050565b5f7fb50234482bc32bb6c761550484098f7c231b0a3e3180699a836f6241d1029de3825f01518360200151846040015180519060200120612d528660600151613500565b60408051602081019690965260ff909416938501939093526001600160a01b039091166060840152608083015260a082015260c001611259565b5f612d95613614565b905090565b5f5f5f8351604103612dd1576020840151604085015160608601515f1a612dc388828585613687565b955095509550505050612ddc565b505081515f91506002905b9250925092565b5f826003811115612df657612df661470c565b03612dff575050565b6001826003811115612e1357612e1361470c565b03612e4a576040517ff645eedf00000000000000000000000000000000000000000000000000000000815260040160405180910390fd5b6002826003811115612e5e57612e5e61470c565b03612e98576040517ffce698f7000000000000000000000000000000000000000000000000000000008152600481018290526024016105cd565b6003826003811115612eac57612eac61470c565b0361116a576040517fd78bce0c000000000000000000000000000000000000000000000000000000008152600481018290526024016105cd565b6020820151825103612f0b57604051633bc78edf60e01b815260040160405180910390fd5b81515f904614801590612f22575046836020015114155b90508015612f455760405163308a43dd60e11b81524660048201526024016105cd565b612f4f838361374f565b5f805483516040517f7d7011020000000000000000000000000000000000000000000000000000000081526001600160a01b039182166004820152911690637d70110290602401602060405180830381865afa158015612fb1573d5f5f3e3d5ffd5b505050506040513d601f19601f82011682018060405250810190612fd5919061446b565b159050801561088b5782516040517fdb489af40000000000000000000000000000000000000000000000000000000081526001600160a01b0390911660048201526024016105cd565b602082015182511461304357604051633bc78edf60e01b815260040160405180910390fd5b815146146130665760405163308a43dd60e11b81524660048201526024016105cd565b61116a828261374f565b606081606001515167ffffffffffffffff81111561309057613090613c2b565b6040519080825280602002602001820160405280156130b9578160200160208202803683370190505b50905046826020015103613127575f5b82606001515181101561312557613100836060015182815181106130ef576130ef6144a3565b60200260200101515f01513061312c565b828281518110613112576131126144a3565b60209081029190910101526001016130c9565b505b919050565b5f73eeeeeeeeeeeeeeeeeeeeeeeeeeeeeeeeeeeeeeee6001600160a01b0384160361316257506001600160a01b03811631610b16565b6040517f70a082310000000000000000000000000000000000000000000000000000000081526001600160a01b0383811660048301528416906370a0823190602401602060405180830381865afa1580156131bf573d5f5f3e3d5ffd5b505050506040513d601f19601f820116820180604052508101906131e39190615114565b9050610b16565b5f5b856060015151811015611d71575f86606001518281518110613210576132106144a3565b60200260200101519050865f015160ff16815f015188602001516001600160a01b03167fb09e51e3f4dd06d21b6df6ec765fb1155b36c6c9b700e07e6a7b1a944c06d8d38a8a8a8a8a89602001516040516132709695949392919061512b565b60405180910390a4506001016131ec565b815146146132a45760405163308a43dd60e11b81524660048201526024016105cd565b8051156132c4576040516393c58e1160e01b815260040160405180910390fd5b5f5b826020015151811015610515575f836020015182815181106132ea576132ea6144a3565b6020026020010151604001519050306001600160a01b0316816001600160a01b03160361333557604051630b9ab59960e01b81526001600160a01b03821660048201526024016105cd565b506001016132c6565b825146146133615760405163308a43dd60e11b81524660048201526024016105cd565b815115613381576040516393c58e1160e01b815260040160405180910390fd5b600154613397906001600160a01b031682612c2c565b610515576040517fcaec9bac0000000000000000000000000000000000000000000000000000000081526001600160a01b03821660048201526024016105cd565b60606134618663ff883fcf60e01b878787876040516024016133fd94939291906151ee565b60408051601f198184030181529190526020810180517bffffffffffffffffffffffffffffffffffffffffffffffffffffffff167fffffffff000000000000000000000000000000000000000000000000000000009093169290921790915261388b565b6040019695505050505050565b6040516001600160a01b03808616602483015280851660448301528316606482015260848101829052611d719086907ff18d03cc000000000000000000000000000000000000000000000000000000009060a4016133fd565b6040516001600160a01b03848116602483015283811660448301526064820183905261088b9186918216906323b872dd90608401611348565b5f5f825167ffffffffffffffff81111561351c5761351c613c2b565b604051908082528060200260200182016040528015613545578160200160208202803683370190505b5090505f5b8351811015611e12577fcf6ba9f1afa971013ec5a00408cf423b65abc1de93e4b7dd80f4fa6f07f193df848281518110613586576135866144a3565b60200260200101515f01518583815181106135a3576135a36144a3565b602002602001015160200151805190602001206040516020016135d9939291909283526020830191909152604082015260600190565b60405160208183030381529060405280519060200120828281518110613601576136016144a3565b602090810291909101015260010161354a565b5f7f8b73c3c69bb8fe3d512ecc4cf759cc79239f7b179b0ffacaa9a75d522b39400f61363e6138fd565b613646613978565b60408051602081019490945283019190915260608201524660808201523060a082015260c00160405160208183030381529060405280519060200120905090565b5f80807f7fffffffffffffffffffffffffffffff5d576e7357a4501ddfe92f46681b20a08411156136c057505f91506003905082613745565b604080515f808252602082018084528a905260ff891692820192909252606081018790526080810186905260019060a0016020604051602081039080840390855afa158015613711573d5f5f3e3d5ffd5b5050604051601f1901519150506001600160a01b03811661373c57505f925060019150829050613745565b92505f91508190505b9450945094915050565b81606001515181604001515114613792576040517f1816c20200000000000000000000000000000000000000000000000000000000815260040160405180910390fd5b5f5b826060015151811015610515575f836060015182815181106137b8576137b86144a3565b602002602001015190505f81604001519050306001600160a01b0316816001600160a01b03160361380757604051630b9ab59960e01b81526001600160a01b03821660048201526024016105cd565b5f826020015190505f85604001518581518110613826576138266144a3565b602002602001015190508181101561387b576040517f1fef5f330000000000000000000000000000000000000000000000000000000081526004810186905260248101829052604481018390526064016105cd565b5050600190920191506137949050565b60605f5f846001600160a01b0316846040516138a7919061522f565b5f60405180830381855af49150503d805f81146138df576040519150601f19603f3d011682016040523d82523d5f602084013e6138e4565b606091505b50915091506138f48583836139cd565b95945050505050565b5f7fa16a46d94261c7517cc8ff89f61c0ce93598e3c849801011dee649a6a557d10081613928610d4b565b80519091501561394057805160209091012092915050565b8154801561394f579392505050565b7fc5d2460186f7233c927e7db2dcc703c0e500b653ca82273b7bfad8045d85a470935050505090565b5f7fa16a46d94261c7517cc8ff89f61c0ce93598e3c849801011dee649a6a557d100816139a3610e1e565b8051909150156139bb57805160209091012092915050565b6001820154801561394f579392505050565b6060826139e2576139dd826120c4565b6107d0565b81511580156139f957506001600160a01b0384163b155b15613a3b576040517f9996b3150000000000000000000000000000000000000000000000000000000081526001600160a01b03851660048201526024016105cd565b50806107d0565b6109c58061524683390190565b508054613a5b9061442a565b5f825580601f10613a6a575050565b601f0160209004905f5260205f209081019061044191905b80821115613a95575f8155600101613a82565b5090565b6001600160a01b0381168114610441575f5ffd5b803561312781613a99565b5f60208284031215613ac8575f5ffd5b81356107d081613a99565b5f5f5f60608486031215613ae5575f5ffd5b8335613af081613a99565b92506020840135613b0081613a99565b929592945050506040919091013590565b5f81518084528060208401602086015e5f602082860101526020601f19601f83011685010191505092915050565b5f8151808452602084019350602083015f5b82811015613b6f578151865260209586019590910190600101613b51565b5093949350505050565b7fff000000000000000000000000000000000000000000000000000000000000008816815260e060208201525f613bb360e0830189613b11565b8281036040840152613bc58189613b11565b90508660608401526001600160a01b03861660808401528460a084015282810360c0840152613bf48185613b3f565b9a9950505050505050505050565b5f60208284031215613c12575f5ffd5b5035919050565b602081525f6107d06020830184613b11565b634e487b7160e01b5f52604160045260245ffd5b6040805190810167ffffffffffffffff81118282101715613c6257613c62613c2b565b60405290565b6040516080810167ffffffffffffffff81118282101715613c6257613c62613c2b565b604051610120810167ffffffffffffffff81118282101715613c6257613c62613c2b565b6040516060810167ffffffffffffffff81118282101715613c6257613c62613c2b565b604051601f8201601f1916810167ffffffffffffffff81118282101715613cfb57613cfb613c2b565b604052919050565b5f67ffffffffffffffff821115613d1c57613d1c613c2b565b5060051b60200190565b5f82601f830112613d35575f5ffd5b8135613d48613d4382613d03565b613cd2565b8082825260208201915060208360061b860101925085831115613d69575f5ffd5b602085015b83811015613db45760408188031215613d85575f5ffd5b613d8d613c3f565b8135613d9881613a99565b8152602082810135818301529084529290920191604001613d6e565b5095945050505050565b5f67ffffffffffffffff821115613dd757613dd7613c2b565b50601f01601f191660200190565b5f82601f830112613df4575f5ffd5b8135613e02613d4382613dbe565b818152846020838601011115613e16575f5ffd5b816020850160208301375f918101602001919091529392505050565b5f82601f830112613e41575f5ffd5b8135613e4f613d4382613d03565b8082825260208201915060208360051b860101925085831115613e70575f5ffd5b602085015b83811015613db457803567ffffffffffffffff811115613e93575f5ffd5b613ea2886020838a0101613de5565b84525060209283019201613e75565b60ff81168114610441575f5ffd5b5f82601f830112613ece575f5ffd5b613edb613d438335613d03565b82358082526020808301929160051b850101851015613ef8575f5ffd5b602084015b6020853560051b86010181101561409f5767ffffffffffffffff81351115613f23575f5ffd5b803585016080818803601f19011215613f3a575f5ffd5b613f42613c68565b613f4f6020830135613eb1565b60208201358152613f636040830135613a99565b6040820135602082015267ffffffffffffffff60608301351115613f85575f5ffd5b613f988860206060850135850101613de5565b604082015267ffffffffffffffff60808301351115613fb5575f5ffd5b60206080830135830101915087601f830112613fcf575f5ffd5b613fdc613d438335613d03565b82358082526020808301929160051b8501018a811115613ffa575f5ffd5b602085015b818110156140885767ffffffffffffffff8135111561401c575f5ffd5b803586016040818e03601f19011215614033575f5ffd5b61403b613c3f565b6020820135815267ffffffffffffffff6040830135111561405a575f5ffd5b61406d8e60206040850135850101613de5565b60208201528086525050602084019350602081019050613fff565b505060608301525084525060209283019201613efd565b50949350505050565b5f61012082840312156140b9575f5ffd5b6140c1613c8b565b90506140cc82613aad565b81526140da60208301613aad565b60208201526040828101359082015260608083013590820152608082013567ffffffffffffffff81111561410c575f5ffd5b61411884828501613d26565b60808301525060a082013567ffffffffffffffff811115614137575f5ffd5b61414384828501613de5565b60a08301525060c0828101359082015260e082013567ffffffffffffffff81111561416c575f5ffd5b61417884828501613e32565b60e08301525061010082013567ffffffffffffffff811115614198575f5ffd5b6141a484828501613ebf565b6101008301525092915050565b5f606082840312156141c1575f5ffd5b6141c9613caf565b823581529050602082013567ffffffffffffffff8111156141e8575f5ffd5b6141f484828501613e32565b602083015250604082013567ffffffffffffffff811115614213575f5ffd5b8201601f81018413614223575f5ffd5b8035614231613d4382613d03565b8082825260208201915060208360051b850101925086831115614252575f5ffd5b6020840193505b82841015614274578335825260209384019390910190614259565b60408501525091949350505050565b5f5f5f60608486031215614295575f5ffd5b833567ffffffffffffffff8111156142ab575f5ffd5b6142b7868287016140a8565b935050602084013567ffffffffffffffff8111156142d3575f5ffd5b6142df868287016141b1565b925050604084013567ffffffffffffffff8111156142fb575f5ffd5b61430786828701613de5565b9150509250925092565b5f5f5f60608486031215614323575f5ffd5b833567ffffffffffffffff811115614339575f5ffd5b614345868287016141b1565b935050602084013567ffffffffffffffff811115614361575f5ffd5b61436d868287016140a8565b925050604084013561437e81613a99565b809150509250925092565b5f5f5f6060848603121561439b575f5ffd5b83356143a681613a99565b925060208401356143b681613a99565b9150604084013561437e81613a99565b5f602082840312156143d6575f5ffd5b813567ffffffffffffffff8111156143ec575f5ffd5b611c5484828501613de5565b5f60208284031215614408575f5ffd5b813567ffffffffffffffff81111561441e575f5ffd5b611c54848285016140a8565b600181811c9082168061443e57607f821691505b60208210810361312557634e487b7160e01b5f52602260045260245ffd5b80518015158114613127575f5ffd5b5f6020828403121561447b575f5ffd5b6107d08261445c565b81810381811115610b1657634e487b7160e01b5f52601160045260245ffd5b634e487b7160e01b5f52603260045260245ffd5b601f82111561051557805f5260205f20601f840160051c810160208510156144dc5750805b601f840160051c820191505b81811015612ce9575f81556001016144e8565b815167ffffffffffffffff81111561451557614515613c2b565b61452981614523845461442a565b846144b7565b6020601f82116001811461455b575f83156145445750848201515b5f19600385901b1c1916600184901b178455612ce9565b5f84815260208120601f198516915b8281101561458a578785015182556020948501946001909201910161456a565b50848210156145a757868401515f19600387901b60f8161c191681555b50505050600190811b01905550565b8981526001600160a01b03891660208201526001600160a01b03881660408201528660608201528560808201528460a082015261012060c08201525f614600610120830186613b11565b60e0830194909452506101000152979650505050505050565b60ff81511682526001600160a01b0360208201511660208301525f60408201516080604085015261464d6080850182613b11565b90506060830151848203606086015281815180845260208401915060208160051b8501016020840193505f5b828110156146c157601f1986830301845284518051835260208101519050604060208401526146ab6040840182613b11565b6020968701969590950194925050600101614679565b50979650505050505050565b604081525f6146df6040830185614619565b82810360208401526138f48185613b11565b5f60208284031215614701575f5ffd5b81516107d081613eb1565b634e487b7160e01b5f52602160045260245ffd5b5f61472d613d4384613d03565b83815290506020810160608402830185811115614748575f5ffd5b835b818110156128ba575f60608289031215614762575f5ffd5b61476a613caf565b9050815161477781613a99565b815260208281015190820152604082015161479181613a99565b6040820152835260209092019160600161474a565b5f82601f8301126147b5575f5ffd5b6107d083835160208501614720565b5f602082840312156147d4575f5ffd5b815167ffffffffffffffff8111156147ea575f5ffd5b8201608081850312156147fb575f5ffd5b614803613c68565b8151815260208083015190820152604082015167ffffffffffffffff81111561482a575f5ffd5b8201601f8101861361483a575f5ffd5b8051614848613d4382613d03565b8082825260208201915060208360061b850101925088831115614869575f5ffd5b6020840193505b828410156148b9576040848a031215614887575f5ffd5b61488f613c3f565b845161489a81613a99565b8152602085810151818301529083526040909401939190910190614870565b6040850152505050606082015167ffffffffffffffff8111156148da575f5ffd5b6148e6868285016147a6565b606083015250949350505050565b81515f90829060208501835b8281101561491e578151845260209384019390910190600101614900565b509195945050505050565b5f82601f830112614938575f5ffd5b8151614946613d4382613dbe565b81815284602083860101111561495a575f5ffd5b8160208501602083015e5f918101602001919091529392505050565b5f60208284031215614986575f5ffd5b815167ffffffffffffffff81111561499c575f5ffd5b8201606081850312156149ad575f5ffd5b6149b5613caf565b81516149c081613a99565b8152602082015167ffffffffffffffff8111156149db575f5ffd5b6149e786828501614929565b602083015250604082015167ffffffffffffffff811115614a06575f5ffd5b80830192505084601f830112614a1a575f5ffd5b8151614a28613d4382613d03565b8082825260208201915060208360051b860101925087831115614a49575f5ffd5b6020850194505b82851015614a6b578451825260209485019490910190614a50565b6040840152509095945050505050565b606081525f614a8d6060830186614619565b8460208401528281036040840152614aa58185613b11565b9695505050505050565b602081525f6107d06020830184613b3f565b5f60208284031215614ad1575f5ffd5b815167ffffffffffffffff811115614ae7575f5ffd5b820160408185031215614af8575f5ffd5b614b00613c3f565b81518152602082015167ffffffffffffffff811115614b1d575f5ffd5b80830192505084601f830112614b31575f5ffd5b614b4085835160208501614720565b6020820152949350505050565b5f60208284031215614b5d575f5ffd5b815167ffffffffffffffff811115614b73575f5ffd5b820160408185031215614b84575f5ffd5b614b8c613c3f565b81518152602082015167ffffffffffffffff811115614ba9575f5ffd5b80830192505084601f830112614bbd575f5ffd5b8151614bcb613d4382613d03565b8082825260208201915060208360051b860101925087831115614bec575f5ffd5b602085015b83811015614c8657805167ffffffffffffffff811115614c0f575f5ffd5b86016060818b03601f19011215614c24575f5ffd5b614c2c613caf565b6020820151614c3a81613a99565b8152604082015167ffffffffffffffff811115614c55575f5ffd5b614c648c602083860101614929565b6020838101919091526060939093015160408301525084529283019201614bf1565b506020840152509095945050505050565b5f82825180855260208501945060208160051b830101602085015f5b83811015614ce557601f19858403018852614ccf838351613b11565b6020988901989093509190910190600101614cb3565b50909695505050505050565b602081525f6107d06020830184614c97565b5f60208284031215614d13575f5ffd5b815167ffffffffffffffff811115614d29575f5ffd5b820160408185031215614d3a575f5ffd5b614d42613c3f565b81518152602082015167ffffffffffffffff811115614d5f575f5ffd5b80830192505084601f830112614d73575f5ffd5b8151614d81613d4382613d03565b8082825260208201915060208360051b860101925087831115614da2575f5ffd5b602085015b83811015614c8657805167ffffffffffffffff811115614dc5575f5ffd5b614dd48a6020838a0101614929565b84525060209283019201614da7565b5f60208284031215614df3575f5ffd5b815167ffffffffffffffff811115614e09575f5ffd5b820160808185031215614e1a575f5ffd5b614e22613c68565b8151614e2d81613a99565b81526020828101519082015260408201517fffffffff0000000000000000000000000000000000000000000000000000000081168114614e6b575f5ffd5b6040820152606082015167ffffffffffffffff811115614e89575f5ffd5b80830192505084601f830112614e9d575f5ffd5b8151614eab613d4382613d03565b8082825260208201915060208360051b860101925087831115614ecc575f5ffd5b602085015b83811015614f6d57805167ffffffffffffffff811115614eef575f5ffd5b86016060818b03601f19011215614f04575f5ffd5b614f0c613caf565b602082015160028110614f1d575f5ffd5b8152604082015167ffffffffffffffff811115614f38575f5ffd5b614f478c602083860101614929565b602083015250614f596060830161445c565b604082015284525060209283019201614ed1565b506060840152509095945050505050565b5f82825180855260208501945060208160051b830101602085015f5b83811015614ce557601f19858403018852614fb6838351614c97565b6020988901989093509190910190600101614f9a565b606081525f60e082016001600160a01b038651166060840152602086015160808401527fffffffff0000000000000000000000000000000000000000000000000000000060408701511660a08401526060860151608060c0850152818151808452610100860191506101008160051b87010193506020830192505f5b818110156150bb5786850360ff19018352835180516002811061507957634e487b7160e01b5f52602160045260245ffd5b808752506020810151606060208801526150966060880182613b11565b6040928301511515979092019690965294506020938401939290920191600101615048565b5050505082810360208401526150d18186614f7e565b915050826040830152949350505050565b5f602082840312156150f2575f5ffd5b815167ffffffffffffffff811115615108575f5ffd5b611c5484828501614929565b5f60208284031215615124575f5ffd5b5051919050565b60c081525f61513d60c0830189614619565b8281036020840152875181526020880151606060208301526151626060830182614c97565b90506040890151828203604084015281925080518083526020830193506020820192505f91505b808210156151ac5782518452602084019350602083019250600182019150615189565b50505086604084015285606084015282810360808401526151cd8186613b11565b905082810360a08401526151e18185613b11565b9998505050505050505050565b6001600160a01b03851681526001600160a01b0384166020820152608060408201525f61521e6080830185613b11565b905082606083015295945050505050565b5f82518060208501845e5f92019182525091905056fe6080604052348015600e575f5ffd5b506109a98061001c5f395ff3fe608060405234801561000f575f5ffd5b506004361061003f575f3560e01c80635e07a6e614610043578063f18d03cc1461006b578063ff883fcf14610080575b5f5ffd5b610056610051366004610636565b6100a0565b60405190151581526020015b60405180910390f35b61007e61007936600461064f565b6100ec565b005b61009361008e366004610703565b6101cb565b60405161006291906107d3565b5f816001600160a01b03163b5f036100b957505f919050565b6100c2826102b3565b156100cf57506001919050565b6100d882610364565b156100e557506001919050565b505f919050565b6100f5846102b3565b1561017d576040517fbeabacc80000000000000000000000000000000000000000000000000000000081526001600160a01b03848116600483015283811660248301526044820183905285169063beabacc8906064015f604051808303815f87803b158015610162575f5ffd5b505af1158015610174573d5f5f3e3d5ffd5b505050506101c5565b61018684610364565b1561019c57610197848484846103d3565b6101c5565b604051636b94637360e11b81526001600160a01b03851660048201526024015b60405180910390fd5b50505050565b60606101d6856102b3565b1561026d576040517f4ae000410000000000000000000000000000000000000000000000000000000081526001600160a01b03861690634ae0004190610224908790879087906004016107e5565b5f604051808303815f875af115801561023f573d5f5f3e3d5ffd5b505050506040513d5f823e601f3d908101601f191682016040526102669190810190610863565b90506102ab565b61027685610364565b1561028757610266858585856104a2565b604051636b94637360e11b81526001600160a01b03861660048201526024016101bc565b949350505050565b6040517f01ffc9a70000000000000000000000000000000000000000000000000000000081527ff44bac890000000000000000000000000000000000000000000000000000000060048201525f906001600160a01b038316906301ffc9a790602401602060405180830381865afa92505050801561034e575060408051601f3d908101601f1916820190925261034b918101906108a4565b60015b61035957505f919050565b92915050565b919050565b5f816001600160a01b031663e75235b86040518163ffffffff1660e01b8152600401602060405180830381865afa9250505080156103bf575060408051601f3d908101601f191682019092526103bc918101906108bd565b60015b6103ca57505f919050565b50600192915050565b73eeeeeeeeeeeeeeeeeeeeeeeeeeeeeeeeeeeeeeee6001600160a01b0384161461047f57604080516001600160a01b038416602482015260448082018490528251808303909101815260649091019091526020810180517bffffffffffffffffffffffffffffffffffffffffffffffffffffffff167fa9059cbb0000000000000000000000000000000000000000000000000000000017905261047a90859085905f6104a2565b61049b565b604080515f81526020810190915261049b9085908490846104a2565b5050505050565b60605f5f866001600160a01b0316635229073f8786885f6040518563ffffffff1660e01b81526004016104d894939291906108d4565b5f604051808303815f875af11580156104f3573d5f5f3e3d5ffd5b505050506040513d5f823e601f3d908101601f1916820160405261051a9190810190610928565b9150915084515f146105365761053186838361054b565b610540565b61054082826105c3565b979650505050505050565b6060826105605761055b826105de565b6105bc565b815115801561057757506001600160a01b0384163b155b156105b9576040517f9996b3150000000000000000000000000000000000000000000000000000000081526001600160a01b03851660048201526024016101bc565b50805b9392505050565b6060826105d8576105d3826105de565b610359565b50919050565b8051156105ee5780518082602001fd5b6040517fd6bda27500000000000000000000000000000000000000000000000000000000815260040160405180910390fd5b80356001600160a01b038116811461035f575f5ffd5b5f60208284031215610646575f5ffd5b6105bc82610620565b5f5f5f5f60808587031215610662575f5ffd5b61066b85610620565b935061067960208601610620565b925061068760408601610620565b9396929550929360600135925050565b634e487b7160e01b5f52604160045260245ffd5b604051601f8201601f1916810167ffffffffffffffff811182821017156106d4576106d4610697565b604052919050565b5f67ffffffffffffffff8211156106f5576106f5610697565b50601f01601f191660200190565b5f5f5f5f60808587031215610716575f5ffd5b61071f85610620565b935061072d60208601610620565b9250604085013567ffffffffffffffff811115610748575f5ffd5b8501601f81018713610758575f5ffd5b803561076b610766826106dc565b6106ab565b81815288602083850101111561077f575f5ffd5b816020840160208301375f91810160200191909152949793965093946060013593505050565b5f81518084528060208401602086015e5f602082860101526020601f19601f83011685010191505092915050565b602081525f6105bc60208301846107a5565b6001600160a01b0384168152606060208201525f61080660608301856107a5565b9050826040830152949350505050565b5f82601f830112610825575f5ffd5b8151610833610766826106dc565b818152846020838601011115610847575f5ffd5b8160208501602083015e5f918101602001919091529392505050565b5f60208284031215610873575f5ffd5b815167ffffffffffffffff811115610889575f5ffd5b6102ab84828501610816565b8051801515811461035f575f5ffd5b5f602082840312156108b4575f5ffd5b6105bc82610895565b5f602082840312156108cd575f5ffd5b5051919050565b6001600160a01b0385168152836020820152608060408201525f6108fb60808301856107a5565b90506002831061091957634e487b7160e01b5f52602160045260245ffd5b82606083015295945050505050565b5f5f60408385031215610939575f5ffd5b61094283610895565b9150602083015167ffffffffffffffff81111561095d575f5ffd5b61096985828601610816565b915050925092905056fea264697066735822122044a28506e8a4bd162591bec9dca6a9c4cdc2688a8e844ccd7c1807a2f175e12b64736f6c634300081c0033a26469706673582212207433b89de705bcd6873c14b2e3f3203dd78cd7260065cb82d757e627aba0433964736f6c634300081c0033",
  "linkReferences": {},
  "deployedLinkReferences": {},
  "immutableReferences": {},
  "inputSourceName": "project/contracts/Settler.sol",
  "buildInfoId": "167571dafa48e7ff636310c6c9f0fc8e202e44bc"
}