{
  "_format": "hh3-artifact-1",
  "contractName": "SmartAccount",
  "sourceName": "contracts/SmartAccount.sol",
  "abi": [
    {
      "inputs": [
        {
          "internalType": "address",
          "name": "_settler",
          "type": "address"
        },
        {
          "internalType": "address",
          "name": "_owner",
          "type": "address"
        }
      ],
      "stateMutability": "nonpayable",
      "type": "constructor"
    },
    {
      "inputs": [
        {
          "internalType": "address",
          "name": "target",
          "type": "address"
        }
      ],
      "name": "AddressEmptyCode",
      "type": "error"
    },
    {
      "inputs": [],
      "name": "FailedCall",
      "type": "error"
    },
    {
      "inputs": [
        {
          "internalType": "uint256",
          "name": "balance",
          "type": "uint256"
        },
        {
          "internalType": "uint256",
          "name": "needed",
          "type": "uint256"
        }
      ],
      "name": "InsufficientBalance",
      "type": "error"
    },
    {
      "inputs": [
        {
          "internalType": "address",
          "name": "owner",
          "type": "address"
        }
      ],
      "name": "OwnableInvalidOwner",
      "type": "error"
    },
    {
      "inputs": [
        {
          "internalType": "address",
          "name": "account",
          "type": "address"
        }
      ],
      "name": "OwnableUnauthorizedAccount",
      "type": "error"
    },
    {
      "inputs": [],
      "name": "ReentrancyGuardReentrantCall",
      "type": "error"
    },
    {
      "inputs": [
        {
          "internalType": "address",
          "name": "token",
          "type": "address"
        }
      ],
      "name": "SafeERC20FailedOperation",
      "type": "error"
    },
    {
      "inputs": [],
      "name": "SmartAccountInputInvalidLength",
      "type": "error"
    },
    {
      "inputs": [],
      "name": "SmartAccountSettlerZero",
      "type": "error"
    },
    {
      "inputs": [
        {
          "internalType": "address",
          "name": "sender",
          "type": "address"
        }
      ],
      "name": "SmartAccountUnauthorizedSender",
      "type": "error"
    },
    {
      "anonymous": false,
      "inputs": [
        {
          "indexed": true,
          "internalType": "address",
          "name": "target",
          "type": "address"
        },
        {
          "indexed": false,
          "internalType": "bytes",
          "name": "data",
          "type": "bytes"
        },
        {
          "indexed": false,
          "internalType": "uint256",
          "name": "value",
          "type": "uint256"
        },
        {
          "indexed": false,
          "internalType": "bytes",
          "name": "result",
          "type": "bytes"
        }
      ],
      "name": "Called",
      "type": "event"
    },
    {
      "anonymous": false,
      "inputs": [
        {
          "indexed": true,
          "internalType": "address",
          "name": "previousOwner",
          "type": "address"
        },
        {
          "indexed": true,
          "internalType": "address",
          "name": "newOwner",
          "type": "address"
        }
      ],
      "name": "OwnershipTransferred",
      "type": "event"
    },
    {
      "anonymous": false,
      "inputs": [
        {
          "indexed": true,
          "internalType": "address",
          "name": "settler",
          "type": "address"
        }
      ],
      "name": "SettlerSet",
      "type": "event"
    },
    {
      "anonymous": false,
      "inputs": [
        {
          "indexed": true,
          "internalType": "address",
          "name": "account",
          "type": "address"
        },
        {
          "indexed": false,
          "internalType": "bool",
          "name": "allowed",
          "type": "bool"
        }
      ],
      "name": "SignerAllowedSet",
      "type": "event"
    },
    {
      "anonymous": false,
      "inputs": [
        {
          "indexed": true,
          "internalType": "address",
          "name": "token",
          "type": "address"
        },
        {
          "indexed": true,
          "internalType": "address",
          "name": "recipient",
          "type": "address"
        },
        {
          "indexed": false,
          "internalType": "uint256",
          "name": "amount",
          "type": "uint256"
        }
      ],
      "name": "Transferred",
      "type": "event"
    },
    {
      "inputs": [
        {
          "internalType": "address",
          "name": "target",
          "type": "address"
        },
        {
          "internalType": "bytes",
          "name": "data",
          "type": "bytes"
        },
        {
          "internalType": "uint256",
          "name": "value",
          "type": "uint256"
        }
      ],
      "name": "call",
      "outputs": [
        {
          "internalType": "bytes",
          "name": "result",
          "type": "bytes"
        }
      ],
      "stateMutability": "nonpayable",
      "type": "function"
    },
    {
      "inputs": [
        {
          "internalType": "address",
          "name": "",
          "type": "address"
        }
      ],
      "name": "isSignerAllowed",
      "outputs": [
        {
          "internalType": "bool",
          "name": "",
          "type": "bool"
        }
      ],
      "stateMutability": "view",
      "type": "function"
    },
    {
      "inputs": [
        {
          "internalType": "bytes32",
          "name": "hash",
          "type": "bytes32"
        },
        {
          "internalType": "bytes",
          "name": "signature",
          "type": "bytes"
        }
      ],
      "name": "isValidSignature",
      "outputs": [
        {
          "internalType": "bytes4",
          "name": "",
          "type": "bytes4"
        }
      ],
      "stateMutability": "view",
      "type": "function"
    },
    {
      "inputs": [],
      "name": "owner",
      "outputs": [
        {
          "internalType": "address",
          "name": "",
          "type": "address"
        }
      ],
      "stateMutability": "view",
      "type": "function"
    },
    {
      "inputs": [],
      "name": "renounceOwnership",
      "outputs": [],
      "stateMutability": "nonpayable",
      "type": "function"
    },
    {
      "inputs": [
        {
          "internalType": "address[]",
          "name": "accounts",
          "type": "address[]"
        },
        {
          "internalType": "bool[]",
          "name": "allowances",
          "type": "bool[]"
        }
      ],
      "name": "setAllowedSigners",
      "outputs": [],
      "stateMutability": "nonpayable",
      "type": "function"
    },
    {
      "inputs": [
        {
          "internalType": "address",
          "name": "newSettler",
          "type": "address"
        }
      ],
      "name": "setSettler",
      "outputs": [],
      "stateMutability": "nonpayable",
      "type": "function"
    },
    {
      "inputs": [],
      "name": "settler",
      "outputs": [
        {
          "internalType": "address",
          "name": "",
          "type": "address"
        }
      ],
      "stateMutability": "view",
      "type": "function"
    },
    {
      "inputs": [
        {
          "internalType": "bytes4",
          "name": "interfaceId",
          "type": "bytes4"
        }
      ],
      "name": "supportsInterface",
      "outputs": [
        {
          "internalType": "bool",
          "name": "",
          "type": "bool"
        }
      ],
      "stateMutability": "view",
      "type": "function"
    },
    {
      "inputs": [
        {
          "internalType": "address",
          "name": "token",
          "type": "address"
        },
        {
          "internalType": "address",
          "name": "recipient",
          "type": "address"
        },
        {
          "internalType": "uint256",
          "name": "amount",
          "type": "uint256"
        }
      ],
      "name": "transfer",
      "outputs": [],
      "stateMutability": "nonpayable",
      "type": "function"
    },
    {
      "inputs": [
        {
          "internalType": "address",
          "name": "newOwner",
          "type": "address"
        }
      ],
      "name": "transferOwnership",
      "outputs": [],
      "stateMutability": "nonpayable",
      "type": "function"
    },
    {
      "stateMutability": "payable",
      "type": "receive"
    }
  ],
  "bytecode": "0x608060405234801561000f575f5ffd5b506040516111ae3803806111ae83398101604081905261002e91610154565b806001600160a01b03811661005c57604051631e4fbdf760e01b81525f600482015260240160405180910390fd5b6100658161007a565b5060018055610073826100c9565b5050610185565b5f80546001600160a01b038381166001600160a01b0319831681178455604051919092169283917f8be0079c531659141344cd1fd0a4f28419497f9722a3daafe3b4186f6b6457e09190a35050565b6001600160a01b0381166100f0576040516321cb06d160e21b815260040160405180910390fd5b600380546001600160a01b0319166001600160a01b0383169081179091556040517f91b7b87cc50ee71ce8dc7cdc2c2d6434b8525023c067481a16db26fa5b5be9ac905f90a250565b80516001600160a01b038116811461014f575f5ffd5b919050565b5f5f60408385031215610165575f5ffd5b61016e83610139565b915061017c60208401610139565b90509250929050565b61101c806101925f395ff3fe6080604052600436106100bb575f3560e01c80638da5cb5b11610071578063dc1424881161004c578063dc14248814610201578063dddf6ff914610220578063f2fde38b1461024e575f5ffd5b80638da5cb5b14610193578063ab221a76146101c3578063beabacc8146101e2575f5ffd5b80631626ba7e116100a15780631626ba7e1461011b5780634ae0004114610153578063715018a61461017f575f5ffd5b806301ffc9a7146100c657806307f19eba146100fa575f5ffd5b366100c257005b5f5ffd5b3480156100d1575f5ffd5b506100e56100e0366004610c17565b61026d565b60405190151581526020015b60405180910390f35b348015610105575f5ffd5b50610119610114366004610c59565b6102d5565b005b348015610126575f5ffd5b5061013a610135366004610d23565b6102e9565b6040516001600160e01b031990911681526020016100f1565b34801561015e575f5ffd5b5061017261016d366004610d67565b61037e565b6040516100f19190610de9565b34801561018a575f5ffd5b50610119610445565b34801561019e575f5ffd5b505f546001600160a01b03165b6040516001600160a01b0390911681526020016100f1565b3480156101ce575f5ffd5b506003546101ab906001600160a01b031681565b3480156101ed575f5ffd5b506101196101fc366004610dfb565b610458565b34801561020c575f5ffd5b5061011961021b366004610ecf565b61051c565b34801561022b575f5ffd5b506100e561023a366004610c59565b60026020525f908152604090205460ff1681565b348015610259575f5ffd5b50610119610268366004610c59565b610610565b5f6001600160e01b031982167ff44bac890000000000000000000000000000000000000000000000000000000014806102cf57507f01ffc9a7000000000000000000000000000000000000000000000000000000006001600160e01b03198316145b92915050565b6102dd610663565b6102e6816106a8565b50565b5f5f6102f5848461073e565b50909150506001600160a01b0381161580159061033f57505f546001600160a01b038281169116148061033f57506001600160a01b0381165f9081526002602052604090205460ff165b1561036d57507f1626ba7e0000000000000000000000000000000000000000000000000000000090506102cf565b506001600160e01b03199392505050565b5f805460609133916001600160a01b03168214806103a957506003546001600160a01b038381169116145b9050806103d957604051632f55c6f560e01b81526001600160a01b03831660048201526024015b60405180910390fd5b6103e1610787565b6103ec8686866107ca565b9250856001600160a01b03167f8e5d52c2fd20a8ca33fcfe8232fb93b5c1b40ac5c050512ac0ba6033dfb02d4e86868660405161042b93929190610f88565b60405180910390a261043c60018055565b50509392505050565b61044d610663565b6104565f61086c565b565b5f80543391906001600160a01b031682148061048157506003546001600160a01b038381169116145b9050806104ac57604051632f55c6f560e01b81526001600160a01b03831660048201526024016103d0565b6104b4610787565b6104bf8585856108c8565b836001600160a01b0316856001600160a01b03167fd1ba4ac2e2a11b5101f6cb4d978f514a155b421e8ec396d2d9abaf0bb02917ee8560405161050491815260200190565b60405180910390a361051560018055565b5050505050565b610524610663565b805182511461055f576040517f3631f99400000000000000000000000000000000000000000000000000000000815260040160405180910390fd5b5f5b825181101561060b575f83828151811061057d5761057d610fbc565b602002602001015190505f83838151811061059a5761059a610fbc565b6020908102919091018101516001600160a01b0384165f81815260028452604090819020805460ff19168415159081179091559051908152919350917f0713736f3edc0b468ea39c4d075a3c1b7302be3a2f2a4b236ba90ac262ea070e910160405180910390a25050600101610561565b505050565b610618610663565b6001600160a01b03811661065a576040517f1e4fbdf70000000000000000000000000000000000000000000000000000000081525f60048201526024016103d0565b6102e68161086c565b5f546001600160a01b03163314610456576040517f118cdaa70000000000000000000000000000000000000000000000000000000081523360048201526024016103d0565b6001600160a01b0381166106e8576040517f872c1b4400000000000000000000000000000000000000000000000000000000815260040160405180910390fd5b6003805473ffffffffffffffffffffffffffffffffffffffff19166001600160a01b0383169081179091556040517f91b7b87cc50ee71ce8dc7cdc2c2d6434b8525023c067481a16db26fa5b5be9ac905f90a250565b5f5f5f8351604103610775576020840151604085015160608601515f1a61076788828585610901565b955095509550505050610780565b505081515f91506002905b9250925092565b6002600154036107c3576040517f3ee5aeb500000000000000000000000000000000000000000000000000000000815260040160405180910390fd5b6002600155565b6060814710156107f65760405163cf47918160e01b8152476004820152602481018390526044016103d0565b5f5f856001600160a01b031684866040516108119190610fd0565b5f6040518083038185875af1925050503d805f811461084b576040519150601f19603f3d011682016040523d82523d5f602084013e610850565b606091505b50915091506108608683836109c9565b925050505b9392505050565b5f80546001600160a01b0383811673ffffffffffffffffffffffffffffffffffffffff19831681178455604051919092169283917f8be0079c531659141344cd1fd0a4f28419497f9722a3daafe3b4186f6b6457e09190a35050565b73eeeeeeeeeeeeeeeeeeeeeeeeeeeeeeeeeeeeeeee6001600160a01b038416036108f65761060b8282610a3e565b61060b838383610ad0565b5f80807f7fffffffffffffffffffffffffffffff5d576e7357a4501ddfe92f46681b20a084111561093a57505f915060039050826109bf565b604080515f808252602082018084528a905260ff891692820192909252606081018790526080810186905260019060a0016020604051602081039080840390855afa15801561098b573d5f5f3e3d5ffd5b5050604051601f1901519150506001600160a01b0381166109b657505f9250600191508290506109bf565b92505f91508190505b9450945094915050565b6060826109de576109d982610b50565b610865565b81511580156109f557506001600160a01b0384163b155b15610a37576040517f9996b3150000000000000000000000000000000000000000000000000000000081526001600160a01b03851660048201526024016103d0565b5080610865565b80471015610a685760405163cf47918160e01b8152476004820152602481018290526044016103d0565b5f5f836001600160a01b0316836040515f6040518083038185875af1925050503d805f8114610ab2576040519150601f19603f3d011682016040523d82523d5f602084013e610ab7565b606091505b509150915081610aca57610aca81610b50565b50505050565b604080516001600160a01b038416602482015260448082018490528251808303909101815260649091019091526020810180517bffffffffffffffffffffffffffffffffffffffffffffffffffffffff167fa9059cbb0000000000000000000000000000000000000000000000000000000017905261060b908490610b92565b805115610b605780518082602001fd5b6040517fd6bda27500000000000000000000000000000000000000000000000000000000815260040160405180910390fd5b5f5f60205f8451602086015f885af180610bb1576040513d5f823e3d81fd5b50505f513d91508115610bc8578060011415610bd5565b6001600160a01b0384163b155b15610aca576040517f5274afe70000000000000000000000000000000000000000000000000000000081526001600160a01b03851660048201526024016103d0565b5f60208284031215610c27575f5ffd5b81356001600160e01b031981168114610865575f5ffd5b80356001600160a01b0381168114610c54575f5ffd5b919050565b5f60208284031215610c69575f5ffd5b61086582610c3e565b634e487b7160e01b5f52604160045260245ffd5b604051601f8201601f1916810167ffffffffffffffff81118282101715610caf57610caf610c72565b604052919050565b5f82601f830112610cc6575f5ffd5b813567ffffffffffffffff811115610ce057610ce0610c72565b610cf3601f8201601f1916602001610c86565b818152846020838601011115610d07575f5ffd5b816020850160208301375f918101602001919091529392505050565b5f5f60408385031215610d34575f5ffd5b82359150602083013567ffffffffffffffff811115610d51575f5ffd5b610d5d85828601610cb7565b9150509250929050565b5f5f5f60608486031215610d79575f5ffd5b610d8284610c3e565b9250602084013567ffffffffffffffff811115610d9d575f5ffd5b610da986828701610cb7565b93969395505050506040919091013590565b5f81518084528060208401602086015e5f602082860101526020601f19601f83011685010191505092915050565b602081525f6108656020830184610dbb565b5f5f5f60608486031215610e0d575f5ffd5b610e1684610c3e565b9250610e2460208501610c3e565b929592945050506040919091013590565b5f67ffffffffffffffff821115610e4e57610e4e610c72565b5060051b60200190565b5f82601f830112610e67575f5ffd5b8135610e7a610e7582610e35565b610c86565b8082825260208201915060208360051b860101925085831115610e9b575f5ffd5b602085015b83811015610ec55780358015158114610eb7575f5ffd5b835260209283019201610ea0565b5095945050505050565b5f5f60408385031215610ee0575f5ffd5b823567ffffffffffffffff811115610ef6575f5ffd5b8301601f81018513610f06575f5ffd5b8035610f14610e7582610e35565b8082825260208201915060208360051b850101925087831115610f35575f5ffd5b6020840193505b82841015610f5e57610f4d84610c3e565b825260209384019390910190610f3c565b9450505050602083013567ffffffffffffffff811115610f7c575f5ffd5b610d5d85828601610e58565b606081525f610f9a6060830186610dbb565b8460208401528281036040840152610fb28185610dbb565b9695505050505050565b634e487b7160e01b5f52603260045260245ffd5b5f82518060208501845e5f92019182525091905056fea26469706673582212208ebe6b991ba45f40b45d6c04330361ed407484d45f606d7fc521ca1c101ef95764736f6c634300081c0033",
  "linkReferences": {},
  "deployedLinkReferences": {},
  "immutableReferences": {},
  "inputSourceName": "project/contracts/SmartAccount.sol",
  "buildInfoId": "529d9bfb0e23f1cc1e37008f681fd45d53e5196b"
}