{
  "_format": "hh3-artifact-1",
  "contractName": "MimicHelper",
  "sourceName": "contracts/utils/MimicHelper.sol",
  "abi": [
    {
      "anonymous": false,
      "inputs": [
        {
          "indexed": true,
          "internalType": "address",
          "name": "user",
          "type": "address"
        },
        {
          "indexed": true,
          "internalType": "string",
          "name": "key",
          "type": "string"
        },
        {
          "indexed": true,
          "internalType": "bytes",
          "name": "data",
          "type": "bytes"
        }
      ],
      "name": "StorageSet",
      "type": "event"
    },
    {
      "inputs": [
        {
          "internalType": "address",
          "name": "target",
          "type": "address"
        }
      ],
      "name": "getCode",
      "outputs": [
        {
          "internalType": "bytes",
          "name": "",
          "type": "bytes"
        }
      ],
      "stateMutability": "view",
      "type": "function"
    },
    {
      "inputs": [
        {
          "internalType": "address",
          "name": "target",
          "type": "address"
        }
      ],
      "name": "getNativeTokenBalance",
      "outputs": [
        {
          "internalType": "uint256",
          "name": "",
          "type": "uint256"
        }
      ],
      "stateMutability": "view",
      "type": "function"
    },
    {
      "inputs": [
        {
          "internalType": "address",
          "name": "user",
          "type": "address"
        },
        {
          "internalType": "string",
          "name": "key",
          "type": "string"
        }
      ],
      "name": "getStorage",
      "outputs": [
        {
          "internalType": "bytes",
          "name": "",
          "type": "bytes"
        }
      ],
      "stateMutability": "view",
      "type": "function"
    },
    {
      "inputs": [
        {
          "internalType": "string",
          "name": "key",
          "type": "string"
        },
        {
          "internalType": "bytes",
          "name": "data",
          "type": "bytes"
        }
      ],
      "name": "setStorage",
      "outputs": [],
      "stateMutability": "nonpayable",
      "type": "function"
    }
  ],
  "bytecode": "0x6080604052348015600e575f5ffd5b506105f48061001c5f395ff3fe608060405234801561000f575f5ffd5b506004361061004a575f3560e01c80631c1bbd371461004e57806353f71fd3146100635780637e105ce21461008c578063effd663c1461009f575b5f5ffd5b61006161005c3660046102b9565b6100c8565b005b6100766100713660046103b6565b610161565b6040516100839190610405565b60405180910390f35b61007661009a36600461043a565b610233565b6100ba6100ad36600461043a565b6001600160a01b03163190565b604051908152602001610083565b335f908152602081905260409081902090518291906100ea908690869061045a565b9081526020016040518091039020908161010491906104ed565b508060405161011391906105a8565b6040518091039020838360405161012b92919061045a565b6040519081900381209033907f56ab5c6148f0ccf4e18c36573ddf31db2c597b58811188358cc6935661a38836905f90a4505050565b60605f5f856001600160a01b03166001600160a01b031681526020019081526020015f20838360405161019592919061045a565b908152602001604051809103902080546101ae90610469565b80601f01602080910402602001604051908101604052809291908181526020018280546101da90610469565b80156102255780601f106101fc57610100808354040283529160200191610225565b820191905f5260205f20905b81548152906001019060200180831161020857829003601f168201915b505050505090509392505050565b6060816001600160a01b0316803b806020016040519081016040528181525f908060200190933c92915050565b5f5f83601f840112610270575f5ffd5b50813567ffffffffffffffff811115610287575f5ffd5b60208301915083602082850101111561029e575f5ffd5b9250929050565b634e487b7160e01b5f52604160045260245ffd5b5f5f5f604084860312156102cb575f5ffd5b833567ffffffffffffffff8111156102e1575f5ffd5b6102ed86828701610260565b909450925050602084013567ffffffffffffffff81111561030c575f5ffd5b8401601f8101861361031c575f5ffd5b803567ffffffffffffffff811115610336576103366102a5565b604051601f8201601f19908116603f0116810167ffffffffffffffff81118282101715610365576103656102a5565b60405281815282820160200188101561037c575f5ffd5b816020840160208301375f602083830101528093505050509250925092565b80356001600160a01b03811681146103b1575f5ffd5b919050565b5f5f5f604084860312156103c8575f5ffd5b6103d18461039b565b9250602084013567ffffffffffffffff8111156103ec575f5ffd5b6103f886828701610260565b9497909650939450505050565b602081525f82518060208401528060208501604085015e5f604082850101526040601f19601f83011684010191505092915050565b5f6020828403121561044a575f5ffd5b6104538261039b565b9392505050565b818382375f9101908152919050565b600181811c9082168061047d57607f821691505b60208210810361049b57634e487b7160e01b5f52602260045260245ffd5b50919050565b601f8211156104e857805f5260205f20601f840160051c810160208510156104c65750805b601f840160051c820191505b818110156104e5575f81556001016104d2565b50505b505050565b815167ffffffffffffffff811115610507576105076102a5565b61051b816105158454610469565b846104a1565b6020601f82116001811461054d575f83156105365750848201515b5f19600385901b1c1916600184901b1784556104e5565b5f84815260208120601f198516915b8281101561057c578785015182556020948501946001909201910161055c565b508482101561059957868401515f19600387901b60f8161c191681555b50505050600190811b01905550565b5f82518060208501845e5f92019182525091905056fea26469706673582212203ecf313e33ffc17bcc5dffe1fa123cd9bf2d3c584d41391a2f7f78513def6ed364736f6c634300081c0033",
  "linkReferences": {},
  "deployedLinkReferences": {},
  "immutableReferences": {},
  "inputSourceName": "project/contracts/utils/MimicHelper.sol",
  "buildInfoId": "c1330536164be24643c51488b01cb54b8abf1339"
}