{
  "_format": "hh3-artifact-1",
  "contractName": "Controller",
  "sourceName": "contracts/Controller.sol",
  "abi": [
    {
      "inputs": [
        {
          "internalType": "address",
          "name": "owner",
          "type": "address"
        },
        {
          "internalType": "address[]",
          "name": "solvers",
          "type": "address[]"
        },
        {
          "internalType": "address[]",
          "name": "executors",
          "type": "address[]"
        },
        {
          "internalType": "address[]",
          "name": "proposalSigners",
          "type": "address[]"
        }
      ],
      "stateMutability": "nonpayable",
      "type": "constructor"
    },
    {
      "inputs": [],
      "name": "ControllerInputInvalidLength",
      "type": "error"
    },
    {
      "inputs": [
        {
          "internalType": "address",
          "name": "owner",
          "type": "address"
        }
      ],
      "name": "OwnableInvalidOwner",
      "type": "error"
    },
    {
      "inputs": [
        {
          "internalType": "address",
          "name": "account",
          "type": "address"
        }
      ],
      "name": "OwnableUnauthorizedAccount",
      "type": "error"
    },
    {
      "anonymous": false,
      "inputs": [
        {
          "indexed": true,
          "internalType": "address",
          "name": "executor",
          "type": "address"
        },
        {
          "indexed": false,
          "internalType": "bool",
          "name": "allowed",
          "type": "bool"
        }
      ],
      "name": "ExecutorAllowedSet",
      "type": "event"
    },
    {
      "anonymous": false,
      "inputs": [
        {
          "indexed": true,
          "internalType": "address",
          "name": "previousOwner",
          "type": "address"
        },
        {
          "indexed": true,
          "internalType": "address",
          "name": "newOwner",
          "type": "address"
        }
      ],
      "name": "OwnershipTransferred",
      "type": "event"
    },
    {
      "anonymous": false,
      "inputs": [
        {
          "indexed": true,
          "internalType": "address",
          "name": "proposalSigner",
          "type": "address"
        },
        {
          "indexed": false,
          "internalType": "bool",
          "name": "allowed",
          "type": "bool"
        }
      ],
      "name": "ProposalSignerAllowedSet",
      "type": "event"
    },
    {
      "anonymous": false,
      "inputs": [
        {
          "indexed": true,
          "internalType": "address",
          "name": "solver",
          "type": "address"
        },
        {
          "indexed": false,
          "internalType": "bool",
          "name": "allowed",
          "type": "bool"
        }
      ],
      "name": "SolverAllowedSet",
      "type": "event"
    },
    {
      "inputs": [
        {
          "internalType": "address",
          "name": "",
          "type": "address"
        }
      ],
      "name": "isExecutorAllowed",
      "outputs": [
        {
          "internalType": "bool",
          "name": "",
          "type": "bool"
        }
      ],
      "stateMutability": "view",
      "type": "function"
    },
    {
      "inputs": [
        {
          "internalType": "address",
          "name": "",
          "type": "address"
        }
      ],
      "name": "isProposalSignerAllowed",
      "outputs": [
        {
          "internalType": "bool",
          "name": "",
          "type": "bool"
        }
      ],
      "stateMutability": "view",
      "type": "function"
    },
    {
      "inputs": [
        {
          "internalType": "address",
          "name": "",
          "type": "address"
        }
      ],
      "name": "isSolverAllowed",
      "outputs": [
        {
          "internalType": "bool",
          "name": "",
          "type": "bool"
        }
      ],
      "stateMutability": "view",
      "type": "function"
    },
    {
      "inputs": [],
      "name": "owner",
      "outputs": [
        {
          "internalType": "address",
          "name": "",
          "type": "address"
        }
      ],
      "stateMutability": "view",
      "type": "function"
    },
    {
      "inputs": [],
      "name": "renounceOwnership",
      "outputs": [],
      "stateMutability": "nonpayable",
      "type": "function"
    },
    {
      "inputs": [
        {
          "internalType": "address[]",
          "name": "executors",
          "type": "address[]"
        },
        {
          "internalType": "bool[]",
          "name": "alloweds",
          "type": "bool[]"
        }
      ],
      "name": "setAllowedExecutors",
      "outputs": [],
      "stateMutability": "nonpayable",
      "type": "function"
    },
    {
      "inputs": [
        {
          "internalType": "address[]",
          "name": "signers",
          "type": "address[]"
        },
        {
          "internalType": "bool[]",
          "name": "alloweds",
          "type": "bool[]"
        }
      ],
      "name": "setAllowedProposalSigners",
      "outputs": [],
      "stateMutability": "nonpayable",
      "type": "function"
    },
    {
      "inputs": [
        {
          "internalType": "address[]",
          "name": "solvers",
          "type": "address[]"
        },
        {
          "internalType": "bool[]",
          "name": "alloweds",
          "type": "bool[]"
        }
      ],
      "name": "setAllowedSolvers",
      "outputs": [],
      "stateMutability": "nonpayable",
      "type": "function"
    },
    {
      "inputs": [
        {
          "internalType": "address",
          "name": "newOwner",
          "type": "address"
        }
      ],
      "name": "transferOwnership",
      "outputs": [],
      "stateMutability": "nonpayable",
      "type": "function"
    }
  ],
  "bytecode": "0x608060405234801561000f575f5ffd5b50604051610b65380380610b6583398101604081905261002e91610357565b836001600160a01b03811661005c57604051631e4fbdf760e01b81525f600482015260240160405180910390fd5b61006581610129565b505f5b83518110156100a35761009b848281518110610086576100866103f8565b6020026020010151600161017860201b60201c565b600101610068565b505f5b82518110156100e1576100d98382815181106100c4576100c46103f8565b602002602001015160016101d760201b60201c565b6001016100a6565b505f5b815181101561011f57610117828281518110610102576101026103f8565b6020026020010151600161022e60201b60201c565b6001016100e4565b505050505061040c565b5f80546001600160a01b038381166001600160a01b0319831681178455604051919092169283917f8be0079c531659141344cd1fd0a4f28419497f9722a3daafe3b4186f6b6457e09190a35050565b6001600160a01b0382165f81815260016020908152604091829020805460ff191685151590811790915591519182527f77c2be228290b8130d2d04fdcbbf8b38325c4b5251dd42162b939d5291b7f15091015b60405180910390a25050565b6001600160a01b0382165f81815260026020908152604091829020805460ff191685151590811790915591519182527f0329466f8a52b1374ddd654a2b6890da94c718cacde4001884e38cb8570d992491016101cb565b6001600160a01b0382165f81815260036020908152604091829020805460ff191685151590811790915591519182527ffa088805a5f9d0e7a882a9a4462dbd262d6af56a56eeed6fc4dfc6b6272f75c391016101cb565b80516001600160a01b038116811461029b575f5ffd5b919050565b634e487b7160e01b5f52604160045260245ffd5b5f82601f8301126102c3575f5ffd5b81516001600160401b038111156102dc576102dc6102a0565b604051600582901b90603f8201601f191681016001600160401b038111828210171561030a5761030a6102a0565b604052918252602081850181019290810186841115610327575f5ffd5b6020860192505b8383101561034d5761033f83610285565b81526020928301920161032e565b5095945050505050565b5f5f5f5f6080858703121561036a575f5ffd5b61037385610285565b60208601519094506001600160401b0381111561038e575f5ffd5b61039a878288016102b4565b604087015190945090506001600160401b038111156103b7575f5ffd5b6103c3878288016102b4565b606087015190935090506001600160401b038111156103e0575f5ffd5b6103ec878288016102b4565b91505092959194509250565b634e487b7160e01b5f52603260045260245ffd5b61074c806104195f395ff3fe608060405234801561000f575f5ffd5b506004361061009f575f3560e01c80637d701102116100725780638f72c136116100585780638f72c13614610146578063d9d8edb914610159578063f2fde38b1461017b575f5ffd5b80637d7011021461010a5780638da5cb5b1461012c575f5ffd5b8063090de7df146100a3578063163eed9e146100b85780633d41132f146100ef578063715018a614610102575b5f5ffd5b6100b66100b136600461061f565b61018e565b005b6100da6100c63660046106e2565b60036020525f908152604090205460ff1681565b60405190151581526020015b60405180910390f35b6100b66100fd36600461061f565b61020c565b6100b6610285565b6100da6101183660046106e2565b60026020525f908152604090205460ff1681565b5f546040516001600160a01b0390911681526020016100e6565b6100b661015436600461061f565b610298565b6100da6101673660046106e2565b60016020525f908152604090205460ff1681565b6100b66101893660046106e2565b610311565b61019661036c565b80518251146101b857604051633ac5d5cd60e21b815260040160405180910390fd5b5f5b8251811015610207576101ff8382815181106101d8576101d8610702565b60200260200101518383815181106101f2576101f2610702565b60200260200101516103b1565b6001016101ba565b505050565b61021461036c565b805182511461023657604051633ac5d5cd60e21b815260040160405180910390fd5b5f5b82518110156102075761027d83828151811061025657610256610702565b602002602001015183838151811061027057610270610702565b6020026020010151610410565b600101610238565b61028d61036c565b6102965f610467565b565b6102a061036c565b80518251146102c257604051633ac5d5cd60e21b815260040160405180910390fd5b5f5b8251811015610207576103098382815181106102e2576102e2610702565b60200260200101518383815181106102fc576102fc610702565b60200260200101516104ce565b6001016102c4565b61031961036c565b6001600160a01b038116610360576040517f1e4fbdf70000000000000000000000000000000000000000000000000000000081525f60048201526024015b60405180910390fd5b61036981610467565b50565b5f546001600160a01b03163314610296576040517f118cdaa7000000000000000000000000000000000000000000000000000000008152336004820152602401610357565b6001600160a01b0382165f81815260036020908152604091829020805460ff191685151590811790915591519182527ffa088805a5f9d0e7a882a9a4462dbd262d6af56a56eeed6fc4dfc6b6272f75c391015b60405180910390a25050565b6001600160a01b0382165f81815260026020908152604091829020805460ff191685151590811790915591519182527f0329466f8a52b1374ddd654a2b6890da94c718cacde4001884e38cb8570d99249101610404565b5f80546001600160a01b038381167fffffffffffffffffffffffff0000000000000000000000000000000000000000831681178455604051919092169283917f8be0079c531659141344cd1fd0a4f28419497f9722a3daafe3b4186f6b6457e09190a35050565b6001600160a01b0382165f81815260016020908152604091829020805460ff191685151590811790915591519182527f77c2be228290b8130d2d04fdcbbf8b38325c4b5251dd42162b939d5291b7f1509101610404565b634e487b7160e01b5f52604160045260245ffd5b604051601f8201601f1916810167ffffffffffffffff8111828210171561056257610562610525565b604052919050565b5f67ffffffffffffffff82111561058357610583610525565b5060051b60200190565b80356001600160a01b03811681146105a3575f5ffd5b919050565b5f82601f8301126105b7575f5ffd5b81356105ca6105c58261056a565b610539565b8082825260208201915060208360051b8601019250858311156105eb575f5ffd5b602085015b838110156106155780358015158114610607575f5ffd5b8352602092830192016105f0565b5095945050505050565b5f5f60408385031215610630575f5ffd5b823567ffffffffffffffff811115610646575f5ffd5b8301601f81018513610656575f5ffd5b80356106646105c58261056a565b8082825260208201915060208360051b850101925087831115610685575f5ffd5b6020840193505b828410156106ae5761069d8461058d565b82526020938401939091019061068c565b9450505050602083013567ffffffffffffffff8111156106cc575f5ffd5b6106d8858286016105a8565b9150509250929050565b5f602082840312156106f2575f5ffd5b6106fb8261058d565b9392505050565b634e487b7160e01b5f52603260045260245ffdfea2646970667358221220dc41f7b90e92ebf629d257c109e28fa292989e5d0e5f3a93218d781c4ac8a56464736f6c634300081c0033",
  "linkReferences": {},
  "deployedLinkReferences": {},
  "immutableReferences": {},
  "inputSourceName": "project/contracts/Controller.sol",
  "buildInfoId": "529d9bfb0e23f1cc1e37008f681fd45d53e5196b"
}