{
  "_format": "hh3-artifact-1",
  "contractName": "PaymentsReceiver",
  "sourceName": "contracts/payments/PaymentsReceiver.sol",
  "abi": [
    {
      "inputs": [
        {
          "internalType": "address",
          "name": "owner",
          "type": "address"
        },
        {
          "internalType": "address[]",
          "name": "tokens",
          "type": "address[]"
        }
      ],
      "stateMutability": "nonpayable",
      "type": "constructor"
    },
    {
      "inputs": [
        {
          "internalType": "address",
          "name": "owner",
          "type": "address"
        }
      ],
      "name": "OwnableInvalidOwner",
      "type": "error"
    },
    {
      "inputs": [
        {
          "internalType": "address",
          "name": "account",
          "type": "address"
        }
      ],
      "name": "OwnableUnauthorizedAccount",
      "type": "error"
    },
    {
      "inputs": [],
      "name": "PaymentsReceiverAmountZero",
      "type": "error"
    },
    {
      "inputs": [],
      "name": "PaymentsReceiverInputInvalidLength",
      "type": "error"
    },
    {
      "inputs": [],
      "name": "PaymentsReceiverRecipientZero",
      "type": "error"
    },
    {
      "inputs": [
        {
          "internalType": "address",
          "name": "token",
          "type": "address"
        }
      ],
      "name": "PaymentsReceiverTokenNotAllowed",
      "type": "error"
    },
    {
      "inputs": [],
      "name": "PaymentsReceiverTokenZero",
      "type": "error"
    },
    {
      "inputs": [],
      "name": "PaymentsReceiverUserZero",
      "type": "error"
    },
    {
      "inputs": [
        {
          "internalType": "address",
          "name": "token",
          "type": "address"
        }
      ],
      "name": "SafeERC20FailedOperation",
      "type": "error"
    },
    {
      "anonymous": false,
      "inputs": [
        {
          "indexed": true,
          "internalType": "address",
          "name": "token",
          "type": "address"
        },
        {
          "indexed": true,
          "internalType": "address",
          "name": "depositor",
          "type": "address"
        },
        {
          "indexed": true,
          "internalType": "address",
          "name": "user",
          "type": "address"
        },
        {
          "indexed": false,
          "internalType": "uint256",
          "name": "amount",
          "type": "uint256"
        },
        {
          "indexed": false,
          "internalType": "uint8",
          "name": "decimals",
          "type": "uint8"
        }
      ],
      "name": "Deposited",
      "type": "event"
    },
    {
      "anonymous": false,
      "inputs": [
        {
          "indexed": true,
          "internalType": "address",
          "name": "previousOwner",
          "type": "address"
        },
        {
          "indexed": true,
          "internalType": "address",
          "name": "newOwner",
          "type": "address"
        }
      ],
      "name": "OwnershipTransferred",
      "type": "event"
    },
    {
      "anonymous": false,
      "inputs": [
        {
          "indexed": true,
          "internalType": "address",
          "name": "token",
          "type": "address"
        },
        {
          "indexed": false,
          "internalType": "bool",
          "name": "allowed",
          "type": "bool"
        }
      ],
      "name": "TokenAllowedSet",
      "type": "event"
    },
    {
      "anonymous": false,
      "inputs": [
        {
          "indexed": true,
          "internalType": "address",
          "name": "token",
          "type": "address"
        },
        {
          "indexed": true,
          "internalType": "address",
          "name": "recipient",
          "type": "address"
        },
        {
          "indexed": false,
          "internalType": "uint256",
          "name": "amount",
          "type": "uint256"
        }
      ],
      "name": "Withdrawn",
      "type": "event"
    },
    {
      "inputs": [
        {
          "internalType": "address",
          "name": "token",
          "type": "address"
        },
        {
          "internalType": "uint256",
          "name": "amount",
          "type": "uint256"
        }
      ],
      "name": "deposit",
      "outputs": [],
      "stateMutability": "nonpayable",
      "type": "function"
    },
    {
      "inputs": [
        {
          "internalType": "address",
          "name": "token",
          "type": "address"
        },
        {
          "internalType": "address",
          "name": "user",
          "type": "address"
        },
        {
          "internalType": "uint256",
          "name": "amount",
          "type": "uint256"
        }
      ],
      "name": "depositOnBehalf",
      "outputs": [],
      "stateMutability": "nonpayable",
      "type": "function"
    },
    {
      "inputs": [
        {
          "internalType": "address",
          "name": "",
          "type": "address"
        }
      ],
      "name": "isTokenAllowed",
      "outputs": [
        {
          "internalType": "bool",
          "name": "",
          "type": "bool"
        }
      ],
      "stateMutability": "view",
      "type": "function"
    },
    {
      "inputs": [],
      "name": "owner",
      "outputs": [
        {
          "internalType": "address",
          "name": "",
          "type": "address"
        }
      ],
      "stateMutability": "view",
      "type": "function"
    },
    {
      "inputs": [],
      "name": "renounceOwnership",
      "outputs": [],
      "stateMutability": "nonpayable",
      "type": "function"
    },
    {
      "inputs": [
        {
          "internalType": "address[]",
          "name": "tokens",
          "type": "address[]"
        },
        {
          "internalType": "bool[]",
          "name": "alloweds",
          "type": "bool[]"
        }
      ],
      "name": "setAllowedTokens",
      "outputs": [],
      "stateMutability": "nonpayable",
      "type": "function"
    },
    {
      "inputs": [
        {
          "internalType": "address",
          "name": "newOwner",
          "type": "address"
        }
      ],
      "name": "transferOwnership",
      "outputs": [],
      "stateMutability": "nonpayable",
      "type": "function"
    },
    {
      "inputs": [
        {
          "internalType": "address",
          "name": "token",
          "type": "address"
        },
        {
          "internalType": "address",
          "name": "recipient",
          "type": "address"
        },
        {
          "internalType": "uint256",
          "name": "amount",
          "type": "uint256"
        }
      ],
      "name": "withdraw",
      "outputs": [],
      "stateMutability": "nonpayable",
      "type": "function"
    }
  ],
  "bytecode": "0x608060405234801561000f575f5ffd5b50604051610c8a380380610c8a83398101604081905261002e91610187565b816001600160a01b03811661005c57604051631e4fbdf760e01b81525f600482015260240160405180910390fd5b610065816100ab565b505f5b81518110156100a35761009b82828151811061008657610086610265565b602002602001015160016100fa60201b60201c565b600101610068565b505050610279565b5f80546001600160a01b038381166001600160a01b0319831681178455604051919092169283917f8be0079c531659141344cd1fd0a4f28419497f9722a3daafe3b4186f6b6457e09190a35050565b6001600160a01b0382165f81815260016020908152604091829020805460ff191685151590811790915591519182527fdc86ea80c17dba36e8aac1a8a9461dcc3967506848bd50e2e48b90507867abb9910160405180910390a25050565b80516001600160a01b038116811461016e575f5ffd5b919050565b634e487b7160e01b5f52604160045260245ffd5b5f5f60408385031215610198575f5ffd5b6101a183610158565b60208401519092506001600160401b038111156101bc575f5ffd5b8301601f810185136101cc575f5ffd5b80516001600160401b038111156101e5576101e5610173565b604051600582901b90603f8201601f191681016001600160401b038111828210171561021357610213610173565b604052918252602081840181019290810188841115610230575f5ffd5b6020850194505b838510156102565761024885610158565b815260209485019401610237565b50809450505050509250929050565b634e487b7160e01b5f52603260045260245ffd5b610a04806102865f395ff3fe608060405234801561000f575f5ffd5b5060043610610085575f3560e01c8063d9caed1211610058578063d9caed12146100d8578063f2fde38b146100eb578063f7c7697a146100fe578063f9eaee0d14610111575f5ffd5b806347e7ef2414610089578063715018a61461009e57806374ae623b146100a65780638da5cb5b146100b9575b5f5ffd5b61009c610097366004610776565b610143565b005b61009c610152565b61009c6100b436600461087d565b610165565b5f546040516001600160a01b0390911681526020015b60405180910390f35b61009c6100e6366004610940565b6101fc565b61009c6100f936600461097a565b6102f1565b61009c61010c366004610940565b61034c565b61013361011f36600461097a565b60016020525f908152604090205460ff1681565b60405190151581526020016100cf565b61014e823383610393565b5050565b61015a610519565b6101635f61055e565b565b61016d610519565b80518251146101a8576040517f99345cda00000000000000000000000000000000000000000000000000000000815260040160405180910390fd5b5f5b82518110156101f7576101ef8382815181106101c8576101c861099a565b60200260200101518383815181106101e2576101e261099a565b60200260200101516105c5565b6001016101aa565b505050565b610204610519565b6001600160a01b03831661022b5760405163c7b20c9760e01b815260040160405180910390fd5b6001600160a01b03821661026b576040517f905bc50600000000000000000000000000000000000000000000000000000000815260040160405180910390fd5b805f0361028b5760405163d75ce56360e01b815260040160405180910390fd5b61029f6001600160a01b0384168383610623565b816001600160a01b0316836001600160a01b03167fd1c19fbcd4551a5edfb66d43d2e337c04837afda3482b42bdf569a8fccdae5fb836040516102e491815260200190565b60405180910390a3505050565b6102f9610519565b6001600160a01b038116610340576040517f1e4fbdf70000000000000000000000000000000000000000000000000000000081525f60048201526024015b60405180910390fd5b6103498161055e565b50565b6001600160a01b03821661038c576040517ffe5e228200000000000000000000000000000000000000000000000000000000815260040160405180910390fd5b6101f78383835b6001600160a01b0383166103ba5760405163c7b20c9760e01b815260040160405180910390fd5b805f036103da5760405163d75ce56360e01b815260040160405180910390fd5b6001600160a01b0383165f9081526001602052604090205460ff16610436576040517f4d2318c50000000000000000000000000000000000000000000000000000000081526001600160a01b0384166004820152602401610337565b3361044c6001600160a01b038516823085610697565b5f846001600160a01b031663313ce5676040518163ffffffff1660e01b8152600401602060405180830381865afa158015610489573d5f5f3e3d5ffd5b505050506040513d601f19601f820116820180604052508101906104ad91906109ae565b9050836001600160a01b0316826001600160a01b0316866001600160a01b03167fa896b0a451f0a1a3815b8174a9dd97595554b3e08d2abefd8329d364575f245c868560405161050a92919091825260ff16602082015260400190565b60405180910390a45050505050565b5f546001600160a01b03163314610163576040517f118cdaa7000000000000000000000000000000000000000000000000000000008152336004820152602401610337565b5f80546001600160a01b038381167fffffffffffffffffffffffff0000000000000000000000000000000000000000831681178455604051919092169283917f8be0079c531659141344cd1fd0a4f28419497f9722a3daafe3b4186f6b6457e09190a35050565b6001600160a01b0382165f81815260016020908152604091829020805460ff191685151590811790915591519182527fdc86ea80c17dba36e8aac1a8a9461dcc3967506848bd50e2e48b90507867abb9910160405180910390a25050565b6040516001600160a01b038381166024830152604482018390526101f791859182169063a9059cbb906064015b604051602081830303815290604052915060e01b6020820180517bffffffffffffffffffffffffffffffffffffffffffffffffffffffff83818316178352505050506106d6565b6040516001600160a01b0384811660248301528381166044830152606482018390526106d09186918216906323b872dd90608401610650565b50505050565b5f5f60205f8451602086015f885af1806106f5576040513d5f823e3d81fd5b50505f513d9150811561070c578060011415610719565b6001600160a01b0384163b155b156106d0576040517f5274afe70000000000000000000000000000000000000000000000000000000081526001600160a01b0385166004820152602401610337565b80356001600160a01b0381168114610771575f5ffd5b919050565b5f5f60408385031215610787575f5ffd5b6107908361075b565b946020939093013593505050565b634e487b7160e01b5f52604160045260245ffd5b604051601f8201601f1916810167ffffffffffffffff811182821017156107db576107db61079e565b604052919050565b5f67ffffffffffffffff8211156107fc576107fc61079e565b5060051b60200190565b5f82601f830112610815575f5ffd5b8135610828610823826107e3565b6107b2565b8082825260208201915060208360051b860101925085831115610849575f5ffd5b602085015b838110156108735780358015158114610865575f5ffd5b83526020928301920161084e565b5095945050505050565b5f5f6040838503121561088e575f5ffd5b823567ffffffffffffffff8111156108a4575f5ffd5b8301601f810185136108b4575f5ffd5b80356108c2610823826107e3565b8082825260208201915060208360051b8501019250878311156108e3575f5ffd5b6020840193505b8284101561090c576108fb8461075b565b8252602093840193909101906108ea565b9450505050602083013567ffffffffffffffff81111561092a575f5ffd5b61093685828601610806565b9150509250929050565b5f5f5f60608486031215610952575f5ffd5b61095b8461075b565b92506109696020850161075b565b929592945050506040919091013590565b5f6020828403121561098a575f5ffd5b6109938261075b565b9392505050565b634e487b7160e01b5f52603260045260245ffd5b5f602082840312156109be575f5ffd5b815160ff81168114610993575f5ffdfea2646970667358221220773491c3e32b9fef4dad405c9ba30c60e8010bfdccf76632e0bf2f26c567e08d64736f6c634300081c0033",
  "linkReferences": {},
  "deployedLinkReferences": {},
  "immutableReferences": {},
  "inputSourceName": "project/contracts/payments/PaymentsReceiver.sol",
  "buildInfoId": "c1189ff488d34b4f29bf5e6b53d119b6dc995198"
}