{
  "_format": "hh3-artifact-1",
  "contractName": "Controller",
  "sourceName": "contracts/Controller.sol",
  "abi": [
    {
      "inputs": [
        {
          "internalType": "address",
          "name": "owner",
          "type": "address"
        },
        {
          "internalType": "address[]",
          "name": "solvers",
          "type": "address[]"
        },
        {
          "internalType": "address[]",
          "name": "executors",
          "type": "address[]"
        },
        {
          "internalType": "address[]",
          "name": "proposalSigners",
          "type": "address[]"
        },
        {
          "internalType": "address[]",
          "name": "validators",
          "type": "address[]"
        },
        {
          "internalType": "uint8",
          "name": "_minValidations",
          "type": "uint8"
        }
      ],
      "stateMutability": "nonpayable",
      "type": "constructor"
    },
    {
      "inputs": [],
      "name": "ControllerInputInvalidLength",
      "type": "error"
    },
    {
      "inputs": [
        {
          "internalType": "address",
          "name": "owner",
          "type": "address"
        }
      ],
      "name": "OwnableInvalidOwner",
      "type": "error"
    },
    {
      "inputs": [
        {
          "internalType": "address",
          "name": "account",
          "type": "address"
        }
      ],
      "name": "OwnableUnauthorizedAccount",
      "type": "error"
    },
    {
      "anonymous": false,
      "inputs": [
        {
          "indexed": true,
          "internalType": "address",
          "name": "executor",
          "type": "address"
        },
        {
          "indexed": false,
          "internalType": "bool",
          "name": "allowed",
          "type": "bool"
        }
      ],
      "name": "ExecutorAllowedSet",
      "type": "event"
    },
    {
      "anonymous": false,
      "inputs": [
        {
          "indexed": true,
          "internalType": "uint8",
          "name": "newMinValidation",
          "type": "uint8"
        }
      ],
      "name": "MinValidationSet",
      "type": "event"
    },
    {
      "anonymous": false,
      "inputs": [
        {
          "indexed": true,
          "internalType": "address",
          "name": "previousOwner",
          "type": "address"
        },
        {
          "indexed": true,
          "internalType": "address",
          "name": "newOwner",
          "type": "address"
        }
      ],
      "name": "OwnershipTransferred",
      "type": "event"
    },
    {
      "anonymous": false,
      "inputs": [
        {
          "indexed": true,
          "internalType": "address",
          "name": "proposalSigner",
          "type": "address"
        },
        {
          "indexed": false,
          "internalType": "bool",
          "name": "allowed",
          "type": "bool"
        }
      ],
      "name": "ProposalSignerAllowedSet",
      "type": "event"
    },
    {
      "anonymous": false,
      "inputs": [
        {
          "indexed": true,
          "internalType": "address",
          "name": "solver",
          "type": "address"
        },
        {
          "indexed": false,
          "internalType": "bool",
          "name": "allowed",
          "type": "bool"
        }
      ],
      "name": "SolverAllowedSet",
      "type": "event"
    },
    {
      "anonymous": false,
      "inputs": [
        {
          "indexed": true,
          "internalType": "address",
          "name": "validator",
          "type": "address"
        },
        {
          "indexed": false,
          "internalType": "bool",
          "name": "allowed",
          "type": "bool"
        }
      ],
      "name": "ValidatorAllowedSet",
      "type": "event"
    },
    {
      "inputs": [
        {
          "internalType": "address",
          "name": "",
          "type": "address"
        }
      ],
      "name": "isExecutorAllowed",
      "outputs": [
        {
          "internalType": "bool",
          "name": "",
          "type": "bool"
        }
      ],
      "stateMutability": "view",
      "type": "function"
    },
    {
      "inputs": [
        {
          "internalType": "address",
          "name": "",
          "type": "address"
        }
      ],
      "name": "isProposalSignerAllowed",
      "outputs": [
        {
          "internalType": "bool",
          "name": "",
          "type": "bool"
        }
      ],
      "stateMutability": "view",
      "type": "function"
    },
    {
      "inputs": [
        {
          "internalType": "address",
          "name": "",
          "type": "address"
        }
      ],
      "name": "isSolverAllowed",
      "outputs": [
        {
          "internalType": "bool",
          "name": "",
          "type": "bool"
        }
      ],
      "stateMutability": "view",
      "type": "function"
    },
    {
      "inputs": [
        {
          "internalType": "address",
          "name": "",
          "type": "address"
        }
      ],
      "name": "isValidatorAllowed",
      "outputs": [
        {
          "internalType": "bool",
          "name": "",
          "type": "bool"
        }
      ],
      "stateMutability": "view",
      "type": "function"
    },
    {
      "inputs": [],
      "name": "minValidations",
      "outputs": [
        {
          "internalType": "uint8",
          "name": "",
          "type": "uint8"
        }
      ],
      "stateMutability": "view",
      "type": "function"
    },
    {
      "inputs": [],
      "name": "owner",
      "outputs": [
        {
          "internalType": "address",
          "name": "",
          "type": "address"
        }
      ],
      "stateMutability": "view",
      "type": "function"
    },
    {
      "inputs": [],
      "name": "renounceOwnership",
      "outputs": [],
      "stateMutability": "nonpayable",
      "type": "function"
    },
    {
      "inputs": [
        {
          "internalType": "address[]",
          "name": "executors",
          "type": "address[]"
        },
        {
          "internalType": "bool[]",
          "name": "alloweds",
          "type": "bool[]"
        }
      ],
      "name": "setAllowedExecutors",
      "outputs": [],
      "stateMutability": "nonpayable",
      "type": "function"
    },
    {
      "inputs": [
        {
          "internalType": "address[]",
          "name": "signers",
          "type": "address[]"
        },
        {
          "internalType": "bool[]",
          "name": "alloweds",
          "type": "bool[]"
        }
      ],
      "name": "setAllowedProposalSigners",
      "outputs": [],
      "stateMutability": "nonpayable",
      "type": "function"
    },
    {
      "inputs": [
        {
          "internalType": "address[]",
          "name": "solvers",
          "type": "address[]"
        },
        {
          "internalType": "bool[]",
          "name": "alloweds",
          "type": "bool[]"
        }
      ],
      "name": "setAllowedSolvers",
      "outputs": [],
      "stateMutability": "nonpayable",
      "type": "function"
    },
    {
      "inputs": [
        {
          "internalType": "address[]",
          "name": "validators",
          "type": "address[]"
        },
        {
          "internalType": "bool[]",
          "name": "alloweds",
          "type": "bool[]"
        }
      ],
      "name": "setAllowedValidators",
      "outputs": [],
      "stateMutability": "nonpayable",
      "type": "function"
    },
    {
      "inputs": [
        {
          "internalType": "uint8",
          "name": "newMinValidations",
          "type": "uint8"
        }
      ],
      "name": "setMinValidations",
      "outputs": [],
      "stateMutability": "nonpayable",
      "type": "function"
    },
    {
      "inputs": [
        {
          "internalType": "address",
          "name": "newOwner",
          "type": "address"
        }
      ],
      "name": "transferOwnership",
      "outputs": [],
      "stateMutability": "nonpayable",
      "type": "function"
    }
  ],
  "bytecode": "0x608060405234801561000f575f5ffd5b50604051610e6c380380610e6c83398101604081905261002e91610444565b856001600160a01b03811661005c57604051631e4fbdf760e01b81525f600482015260240160405180910390fd5b61006581610172565b505f5b85518110156100a35761009b8682815181106100865761008661051f565b602002602001015160016101c160201b60201c565b600101610068565b505f5b84518110156100e1576100d98582815181106100c4576100c461051f565b6020026020010151600161022060201b60201c565b6001016100a6565b505f5b835181101561011f576101178482815181106101025761010261051f565b6020026020010151600161027760201b60201c565b6001016100e4565b505f5b825181101561015d576101558382815181106101405761014061051f565b602002602001015160016102ce60201b60201c565b600101610122565b5061016781610325565b505050505050610533565b5f80546001600160a01b038381166001600160a01b0319831681178455604051919092169283917f8be0079c531659141344cd1fd0a4f28419497f9722a3daafe3b4186f6b6457e09190a35050565b6001600160a01b0382165f81815260016020908152604091829020805460ff191685151590811790915591519182527f77c2be228290b8130d2d04fdcbbf8b38325c4b5251dd42162b939d5291b7f15091015b60405180910390a25050565b6001600160a01b0382165f81815260026020908152604091829020805460ff191685151590811790915591519182527f0329466f8a52b1374ddd654a2b6890da94c718cacde4001884e38cb8570d99249101610214565b6001600160a01b0382165f81815260036020908152604091829020805460ff191685151590811790915591519182527ffa088805a5f9d0e7a882a9a4462dbd262d6af56a56eeed6fc4dfc6b6272f75c39101610214565b6001600160a01b0382165f81815260046020908152604091829020805460ff191685151590811790915591519182527fa8f11f3ae865f4949dc7b3a31787b81ec502e36457f4eaf39fdb7ee7badcb46c9101610214565b6005805460ff191660ff83169081179091556040517f17a16cb66f3fc2ad25dca98c6544248e292af9a9c295fef2b15258b1d01b0358905f90a250565b80516001600160a01b0381168114610378575f5ffd5b919050565b634e487b7160e01b5f52604160045260245ffd5b5f82601f8301126103a0575f5ffd5b81516001600160401b038111156103b9576103b961037d565b604051600582901b90603f8201601f191681016001600160401b03811182821017156103e7576103e761037d565b604052918252602081850181019290810186841115610404575f5ffd5b6020860192505b8383101561042a5761041c83610362565b81526020928301920161040b565b5095945050505050565b805160ff81168114610378575f5ffd5b5f5f5f5f5f5f60c08789031215610459575f5ffd5b61046287610362565b60208801519096506001600160401b0381111561047d575f5ffd5b61048989828a01610391565b604089015190965090506001600160401b038111156104a6575f5ffd5b6104b289828a01610391565b606089015190955090506001600160401b038111156104cf575f5ffd5b6104db89828a01610391565b608089015190945090506001600160401b038111156104f8575f5ffd5b61050489828a01610391565b92505061051360a08801610434565b90509295509295509295565b634e487b7160e01b5f52603260045260245ffd5b61092c806105405f395ff3fe608060405234801561000f575f5ffd5b50600436106100da575f3560e01c80637d701102116100885780638da5cb5b116100635780638da5cb5b146101ce5780638f72c136146101e8578063d9d8edb9146101fb578063f2fde38b1461021d575f5ffd5b80637d701102146101865780637e8d9637146101a857806384aaa224146101bb575f5ffd5b806361655670116100b8578063616556701461013d578063680038c71461015f578063715018a61461017e575f5ffd5b8063090de7df146100de578063163eed9e146100f35780633d41132f1461012a575b5f5ffd5b6100f16100ec3660046107df565b610230565b005b6101156101013660046108a2565b60036020525f908152604090205460ff1681565b60405190151581526020015b60405180910390f35b6100f16101383660046107df565b6102ae565b61011561014b3660046108a2565b60046020525f908152604090205460ff1681565b60055461016c9060ff1681565b60405160ff9091168152602001610121565b6100f1610327565b6101156101943660046108a2565b60026020525f908152604090205460ff1681565b6100f16101b63660046108c2565b61033a565b6100f16101c93660046107df565b61034e565b5f546040516001600160a01b039091168152602001610121565b6100f16101f63660046107df565b6103c7565b6101156102093660046108a2565b60016020525f908152604090205460ff1681565b6100f161022b3660046108a2565b610440565b610238610498565b805182511461025a57604051633ac5d5cd60e21b815260040160405180910390fd5b5f5b82518110156102a9576102a183828151811061027a5761027a6108e2565b6020026020010151838381518110610294576102946108e2565b60200260200101516104dd565b60010161025c565b505050565b6102b6610498565b80518251146102d857604051633ac5d5cd60e21b815260040160405180910390fd5b5f5b82518110156102a95761031f8382815181106102f8576102f86108e2565b6020026020010151838381518110610312576103126108e2565b602002602001015161053c565b6001016102da565b61032f610498565b6103385f610593565b565b610342610498565b61034b816105fa565b50565b610356610498565b805182511461037857604051633ac5d5cd60e21b815260040160405180910390fd5b5f5b82518110156102a9576103bf838281518110610398576103986108e2565b60200260200101518383815181106103b2576103b26108e2565b6020026020010151610637565b60010161037a565b6103cf610498565b80518251146103f157604051633ac5d5cd60e21b815260040160405180910390fd5b5f5b82518110156102a957610438838281518110610411576104116108e2565b602002602001015183838151811061042b5761042b6108e2565b602002602001015161068e565b6001016103f3565b610448610498565b6001600160a01b03811661048f576040517f1e4fbdf70000000000000000000000000000000000000000000000000000000081525f60048201526024015b60405180910390fd5b61034b81610593565b5f546001600160a01b03163314610338576040517f118cdaa7000000000000000000000000000000000000000000000000000000008152336004820152602401610486565b6001600160a01b0382165f81815260036020908152604091829020805460ff191685151590811790915591519182527ffa088805a5f9d0e7a882a9a4462dbd262d6af56a56eeed6fc4dfc6b6272f75c391015b60405180910390a25050565b6001600160a01b0382165f81815260026020908152604091829020805460ff191685151590811790915591519182527f0329466f8a52b1374ddd654a2b6890da94c718cacde4001884e38cb8570d99249101610530565b5f80546001600160a01b038381167fffffffffffffffffffffffff0000000000000000000000000000000000000000831681178455604051919092169283917f8be0079c531659141344cd1fd0a4f28419497f9722a3daafe3b4186f6b6457e09190a35050565b6005805460ff191660ff83169081179091556040517f17a16cb66f3fc2ad25dca98c6544248e292af9a9c295fef2b15258b1d01b0358905f90a250565b6001600160a01b0382165f81815260046020908152604091829020805460ff191685151590811790915591519182527fa8f11f3ae865f4949dc7b3a31787b81ec502e36457f4eaf39fdb7ee7badcb46c9101610530565b6001600160a01b0382165f81815260016020908152604091829020805460ff191685151590811790915591519182527f77c2be228290b8130d2d04fdcbbf8b38325c4b5251dd42162b939d5291b7f1509101610530565b634e487b7160e01b5f52604160045260245ffd5b604051601f8201601f1916810167ffffffffffffffff81118282101715610722576107226106e5565b604052919050565b5f67ffffffffffffffff821115610743576107436106e5565b5060051b60200190565b80356001600160a01b0381168114610763575f5ffd5b919050565b5f82601f830112610777575f5ffd5b813561078a6107858261072a565b6106f9565b8082825260208201915060208360051b8601019250858311156107ab575f5ffd5b602085015b838110156107d557803580151581146107c7575f5ffd5b8352602092830192016107b0565b5095945050505050565b5f5f604083850312156107f0575f5ffd5b823567ffffffffffffffff811115610806575f5ffd5b8301601f81018513610816575f5ffd5b80356108246107858261072a565b8082825260208201915060208360051b850101925087831115610845575f5ffd5b6020840193505b8284101561086e5761085d8461074d565b82526020938401939091019061084c565b9450505050602083013567ffffffffffffffff81111561088c575f5ffd5b61089885828601610768565b9150509250929050565b5f602082840312156108b2575f5ffd5b6108bb8261074d565b9392505050565b5f602082840312156108d2575f5ffd5b813560ff811681146108bb575f5ffd5b634e487b7160e01b5f52603260045260245ffdfea26469706673582212204e1a03491d67aedff2296b499cf5fee36529062002d67b286fb08859eac0e13664736f6c634300081c0033",
  "linkReferences": {},
  "deployedLinkReferences": {},
  "immutableReferences": {},
  "inputSourceName": "project/contracts/Controller.sol",
  "buildInfoId": "27822028aefba6db9743fbac66c2677f7feca3ad"
}